{"contracts/libs/LibStringUtils.sol":{"LibStringUtils":{"abi":[{"inputs":[{"internalType":"uint256","name":"value","type":"uint256"}],"name":"toString","outputs":[{"internalType":"string","name":"","type":"string"}],"stateMutability":"pure","type":"function"}],"evm":{"bytecode":{"linkReferences":{},"object":"6102ce61003a600b82828239805160001a60731461002d57634e487b7160e01b600052600060045260246000fd5b30600052607381538281f3fe73000000000000000000000000000000000000000030146080604052600436106100355760003560e01c80636900a3ae1461003a575b600080fd5b61004d61004836600461016c565b610063565b60405161005a9190610185565b60405180910390f35b60608160000361008a5750506040805180820190915260018152600360fc1b602082015290565b8160005b81156100b4578061009e816101e9565b91506100ad9050600a83610218565b915061008e565b60008167ffffffffffffffff8111156100cf576100cf61022c565b6040519080825280601f01601f1916602001820160405280156100f9576020820181803683370190505b5090505b84156101645761010e600183610242565b915061011b600a8661025b565b61012690603061026f565b60f81b81838151811061013b5761013b610282565b60200101906001600160f81b031916908160001a90535061015d600a86610218565b94506100fd565b949350505050565b60006020828403121561017e57600080fd5b5035919050565b600060208083528351808285015260005b818110156101b257858101830151858201604001528201610196565b506000604082860101526040601f19601f8301168501019250505092915050565b634e487b7160e01b600052601160045260246000fd5b6000600182016101fb576101fb6101d3565b5060010190565b634e487b7160e01b600052601260045260246000fd5b60008261022757610227610202565b500490565b634e487b7160e01b600052604160045260246000fd5b81810381811115610255576102556101d3565b92915050565b60008261026a5761026a610202565b500690565b80820180821115610255576102556101d3565b634e487b7160e01b600052603260045260246000fdfea264697066735822122056a7013a3046e3503f466269494cbd01e8abf4b53defca3629e349d4a8cf0a8e64736f6c63430008140033","opcodes":"PUSH2 0x2CE PUSH2 0x3A PUSH1 0xB DUP3 DUP3 DUP3 CODECOPY DUP1 MLOAD PUSH1 0x0 BYTE PUSH1 0x73 EQ PUSH2 0x2D JUMPI PUSH4 0x4E487B71 PUSH1 0xE0 SHL PUSH1 0x0 MSTORE PUSH1 0x0 PUSH1 0x4 MSTORE PUSH1 0x24 PUSH1 0x0 REVERT JUMPDEST ADDRESS PUSH1 0x0 MSTORE PUSH1 0x73 DUP2 MSTORE8 DUP3 DUP2 RETURN INVALID PUSH20 0x0 ADDRESS EQ PUSH1 0x80 PUSH1 0x40 MSTORE PUSH1 0x4 CALLDATASIZE LT PUSH2 0x35 JUMPI PUSH1 0x0 CALLDATALOAD PUSH1 0xE0 SHR DUP1 PUSH4 0x6900A3AE EQ PUSH2 0x3A JUMPI JUMPDEST PUSH1 0x0 DUP1 REVERT JUMPDEST PUSH2 0x4D PUSH2 0x48 CALLDATASIZE PUSH1 0x4 PUSH2 0x16C JUMP JUMPDEST PUSH2 0x63 JUMP JUMPDEST PUSH1 0x40 MLOAD PUSH2 0x5A SWAP2 SWAP1 PUSH2 0x185 JUMP JUMPDEST PUSH1 0x40 MLOAD DUP1 SWAP2 SUB SWAP1 RETURN JUMPDEST PUSH1 0x60 DUP2 PUSH1 0x0 SUB PUSH2 0x8A JUMPI POP POP PUSH1 0x40 DUP1 MLOAD DUP1 DUP3 ADD SWAP1 SWAP2 MSTORE PUSH1 0x1 DUP2 MSTORE PUSH1 0x3 PUSH1 0xFC SHL PUSH1 0x20 DUP3 ADD MSTORE SWAP1 JUMP JUMPDEST DUP2 PUSH1 0x0 JUMPDEST DUP2 ISZERO PUSH2 0xB4 JUMPI DUP1 PUSH2 0x9E DUP2 PUSH2 0x1E9 JUMP JUMPDEST SWAP2 POP PUSH2 0xAD SWAP1 POP PUSH1 0xA DUP4 PUSH2 0x218 JUMP JUMPDEST SWAP2 POP PUSH2 0x8E JUMP JUMPDEST PUSH1 0x0 DUP2 PUSH8 0xFFFFFFFFFFFFFFFF DUP2 GT ISZERO PUSH2 0xCF JUMPI PUSH2 0xCF PUSH2 0x22C JUMP JUMPDEST PUSH1 0x40 MLOAD SWAP1 DUP1 DUP3 MSTORE DUP1 PUSH1 0x1F ADD PUSH1 0x1F NOT AND PUSH1 0x20 ADD DUP3 ADD PUSH1 0x40 MSTORE DUP1 ISZERO PUSH2 0xF9 JUMPI PUSH1 0x20 DUP3 ADD DUP2 DUP1 CALLDATASIZE DUP4 CALLDATACOPY ADD SWAP1 POP JUMPDEST POP SWAP1 POP JUMPDEST DUP5 ISZERO PUSH2 0x164 JUMPI PUSH2 0x10E PUSH1 0x1 DUP4 PUSH2 0x242 JUMP JUMPDEST SWAP2 POP PUSH2 0x11B PUSH1 0xA DUP7 PUSH2 0x25B JUMP JUMPDEST PUSH2 0x126 SWAP1 PUSH1 0x30 PUSH2 0x26F JUMP JUMPDEST PUSH1 0xF8 SHL DUP2 DUP4 DUP2 MLOAD DUP2 LT PUSH2 0x13B JUMPI PUSH2 0x13B PUSH2 0x282 JUMP JUMPDEST PUSH1 0x20 ADD ADD SWAP1 PUSH1 0x1 PUSH1 0x1 PUSH1 0xF8 SHL SUB NOT AND SWAP1 DUP2 PUSH1 0x0 BYTE SWAP1 MSTORE8 POP PUSH2 0x15D PUSH1 0xA DUP7 PUSH2 0x218 JUMP JUMPDEST SWAP5 POP PUSH2 0xFD JUMP JUMPDEST SWAP5 SWAP4 POP POP POP POP JUMP JUMPDEST PUSH1 0x0 PUSH1 0x20 DUP3 DUP5 SUB SLT ISZERO PUSH2 0x17E JUMPI PUSH1 0x0 DUP1 REVERT JUMPDEST POP CALLDATALOAD SWAP2 SWAP1 POP JUMP JUMPDEST PUSH1 0x0 PUSH1 0x20 DUP1 DUP4 MSTORE DUP4 MLOAD DUP1 DUP3 DUP6 ADD MSTORE PUSH1 0x0 JUMPDEST DUP2 DUP2 LT ISZERO PUSH2 0x1B2 JUMPI DUP6 DUP2 ADD DUP4 ADD MLOAD DUP6 DUP3 ADD PUSH1 0x40 ADD MSTORE DUP3 ADD PUSH2 0x196 JUMP JUMPDEST POP PUSH1 0x0 PUSH1 0x40 DUP3 DUP7 ADD ADD MSTORE PUSH1 0x40 PUSH1 0x1F NOT PUSH1 0x1F DUP4 ADD AND DUP6 ADD ADD SWAP3 POP POP POP SWAP3 SWAP2 POP POP JUMP JUMPDEST PUSH4 0x4E487B71 PUSH1 0xE0 SHL PUSH1 0x0 MSTORE PUSH1 0x11 PUSH1 0x4 MSTORE PUSH1 0x24 PUSH1 0x0 REVERT JUMPDEST PUSH1 0x0 PUSH1 0x1 DUP3 ADD PUSH2 0x1FB JUMPI PUSH2 0x1FB PUSH2 0x1D3 JUMP JUMPDEST POP PUSH1 0x1 ADD SWAP1 JUMP JUMPDEST PUSH4 0x4E487B71 PUSH1 0xE0 SHL PUSH1 0x0 MSTORE PUSH1 0x12 PUSH1 0x4 MSTORE PUSH1 0x24 PUSH1 0x0 REVERT JUMPDEST PUSH1 0x0 DUP3 PUSH2 0x227 JUMPI PUSH2 0x227 PUSH2 0x202 JUMP JUMPDEST POP DIV SWAP1 JUMP JUMPDEST PUSH4 0x4E487B71 PUSH1 0xE0 SHL PUSH1 0x0 MSTORE PUSH1 0x41 PUSH1 0x4 MSTORE PUSH1 0x24 PUSH1 0x0 REVERT JUMPDEST DUP2 DUP2 SUB DUP2 DUP2 GT ISZERO PUSH2 0x255 JUMPI PUSH2 0x255 PUSH2 0x1D3 JUMP JUMPDEST SWAP3 SWAP2 POP POP JUMP JUMPDEST PUSH1 0x0 DUP3 PUSH2 0x26A JUMPI PUSH2 0x26A PUSH2 0x202 JUMP JUMPDEST POP MOD SWAP1 JUMP JUMPDEST DUP1 DUP3 ADD DUP1 DUP3 GT ISZERO PUSH2 0x255 JUMPI PUSH2 0x255 PUSH2 0x1D3 JUMP JUMPDEST PUSH4 0x4E487B71 PUSH1 0xE0 SHL PUSH1 0x0 MSTORE PUSH1 0x32 PUSH1 0x4 MSTORE PUSH1 0x24 PUSH1 0x0 REVERT INVALID LOG2 PUSH5 0x6970667358 0x22 SLT KECCAK256 JUMP 0xA7 ADD GASPRICE ADDRESS CHAINID 0xE3 POP EXTCODEHASH CHAINID PUSH3 0x69494C 0xBD ADD 0xE8 0xAB DELEGATECALL 0xB5 RETURNDATASIZE 0xEF 0xCA CALLDATASIZE 0x29 0xE3 0x49 0xD4 0xA8 0xCF EXP DUP15 PUSH5 0x736F6C6343 STOP ADDMOD EQ STOP CALLER "},"methodIdentifiers":{"toString(uint256)":"6900a3ae"}},"storageLayout":{"storage":[],"types":null}}}}