{
  "_format": "hh-sol-artifact-1",
  "contractName": "NofAlphaV3",
  "sourceName": "contracts/alpha/Alpha.v3.sol",
  "abi": [
    {
      "inputs": [],
      "stateMutability": "nonpayable",
      "type": "constructor"
    },
    {
      "anonymous": false,
      "inputs": [
        {
          "indexed": true,
          "internalType": "address",
          "name": "owner",
          "type": "address"
        },
        {
          "indexed": true,
          "internalType": "address",
          "name": "approved",
          "type": "address"
        },
        {
          "indexed": true,
          "internalType": "uint256",
          "name": "tokenId",
          "type": "uint256"
        }
      ],
      "name": "Approval",
      "type": "event"
    },
    {
      "anonymous": false,
      "inputs": [
        {
          "indexed": true,
          "internalType": "address",
          "name": "owner",
          "type": "address"
        },
        {
          "indexed": true,
          "internalType": "address",
          "name": "operator",
          "type": "address"
        },
        {
          "indexed": false,
          "internalType": "bool",
          "name": "approved",
          "type": "bool"
        }
      ],
      "name": "ApprovalForAll",
      "type": "event"
    },
    {
      "anonymous": false,
      "inputs": [
        {
          "indexed": false,
          "internalType": "uint256",
          "name": "_fromTokenId",
          "type": "uint256"
        },
        {
          "indexed": false,
          "internalType": "uint256",
          "name": "_toTokenId",
          "type": "uint256"
        }
      ],
      "name": "BatchMetadataUpdate",
      "type": "event"
    },
    {
      "anonymous": false,
      "inputs": [
        {
          "indexed": false,
          "internalType": "address",
          "name": "buyer",
          "type": "address"
        },
        {
          "indexed": false,
          "internalType": "string",
          "name": "seasonName",
          "type": "string"
        }
      ],
      "name": "BuyPack",
      "type": "event"
    },
    {
      "anonymous": false,
      "inputs": [
        {
          "indexed": false,
          "internalType": "uint256",
          "name": "_tokenId",
          "type": "uint256"
        }
      ],
      "name": "MetadataUpdate",
      "type": "event"
    },
    {
      "anonymous": false,
      "inputs": [
        {
          "indexed": true,
          "internalType": "address",
          "name": "previousOwner",
          "type": "address"
        },
        {
          "indexed": true,
          "internalType": "address",
          "name": "newOwner",
          "type": "address"
        }
      ],
      "name": "OwnershipTransferred",
      "type": "event"
    },
    {
      "anonymous": false,
      "inputs": [
        {
          "indexed": true,
          "internalType": "address",
          "name": "from",
          "type": "address"
        },
        {
          "indexed": true,
          "internalType": "address",
          "name": "to",
          "type": "address"
        },
        {
          "indexed": true,
          "internalType": "uint256",
          "name": "tokenId",
          "type": "uint256"
        }
      ],
      "name": "Transfer",
      "type": "event"
    },
    {
      "anonymous": false,
      "inputs": [
        {
          "indexed": false,
          "internalType": "address",
          "name": "winner",
          "type": "address"
        },
        {
          "indexed": false,
          "internalType": "string",
          "name": "season",
          "type": "string"
        },
        {
          "indexed": false,
          "internalType": "uint256",
          "name": "position",
          "type": "uint256"
        }
      ],
      "name": "Winner",
      "type": "event"
    },
    {
      "inputs": [],
      "name": "DAI_TOKEN",
      "outputs": [
        {
          "internalType": "address",
          "name": "",
          "type": "address"
        }
      ],
      "stateMutability": "view",
      "type": "function"
    },
    {
      "inputs": [
        {
          "internalType": "address",
          "name": "to",
          "type": "address"
        },
        {
          "internalType": "uint256",
          "name": "tokenId",
          "type": "uint256"
        }
      ],
      "name": "approve",
      "outputs": [],
      "stateMutability": "nonpayable",
      "type": "function"
    },
    {
      "inputs": [
        {
          "internalType": "address",
          "name": "owner",
          "type": "address"
        }
      ],
      "name": "balanceOf",
      "outputs": [
        {
          "internalType": "uint256",
          "name": "",
          "type": "uint256"
        }
      ],
      "stateMutability": "view",
      "type": "function"
    },
    {
      "inputs": [],
      "name": "balanceReceiver",
      "outputs": [
        {
          "internalType": "address",
          "name": "",
          "type": "address"
        }
      ],
      "stateMutability": "view",
      "type": "function"
    },
    {
      "inputs": [],
      "name": "baseUri",
      "outputs": [
        {
          "internalType": "string",
          "name": "",
          "type": "string"
        }
      ],
      "stateMutability": "view",
      "type": "function"
    },
    {
      "inputs": [
        {
          "internalType": "uint256",
          "name": "_amount",
          "type": "uint256"
        },
        {
          "internalType": "string",
          "name": "_name",
          "type": "string"
        }
      ],
      "name": "buyPack",
      "outputs": [],
      "stateMutability": "nonpayable",
      "type": "function"
    },
    {
      "inputs": [
        {
          "internalType": "uint256",
          "name": "",
          "type": "uint256"
        }
      ],
      "name": "cards",
      "outputs": [
        {
          "internalType": "uint256",
          "name": "tokenId",
          "type": "uint256"
        },
        {
          "internalType": "uint256",
          "name": "class",
          "type": "uint256"
        },
        {
          "internalType": "uint256",
          "name": "collection",
          "type": "uint256"
        },
        {
          "internalType": "string",
          "name": "season",
          "type": "string"
        },
        {
          "internalType": "uint256",
          "name": "completion",
          "type": "uint256"
        },
        {
          "internalType": "uint256",
          "name": "number",
          "type": "uint256"
        }
      ],
      "stateMutability": "view",
      "type": "function"
    },
    {
      "inputs": [
        {
          "internalType": "address",
          "name": "",
          "type": "address"
        },
        {
          "internalType": "string",
          "name": "",
          "type": "string"
        },
        {
          "internalType": "uint256",
          "name": "",
          "type": "uint256"
        }
      ],
      "name": "cardsByUserBySeason",
      "outputs": [
        {
          "internalType": "uint256",
          "name": "tokenId",
          "type": "uint256"
        },
        {
          "internalType": "uint256",
          "name": "class",
          "type": "uint256"
        },
        {
          "internalType": "uint256",
          "name": "collection",
          "type": "uint256"
        },
        {
          "internalType": "string",
          "name": "season",
          "type": "string"
        },
        {
          "internalType": "uint256",
          "name": "completion",
          "type": "uint256"
        },
        {
          "internalType": "uint256",
          "name": "number",
          "type": "uint256"
        }
      ],
      "stateMutability": "view",
      "type": "function"
    },
    {
      "inputs": [
        {
          "internalType": "uint256",
          "name": "tokenId",
          "type": "uint256"
        }
      ],
      "name": "getApproved",
      "outputs": [
        {
          "internalType": "address",
          "name": "",
          "type": "address"
        }
      ],
      "stateMutability": "view",
      "type": "function"
    },
    {
      "inputs": [
        {
          "internalType": "address",
          "name": "_user",
          "type": "address"
        },
        {
          "internalType": "string",
          "name": "_seasonName",
          "type": "string"
        }
      ],
      "name": "getCardsByUserBySeason",
      "outputs": [
        {
          "components": [
            {
              "internalType": "uint256",
              "name": "tokenId",
              "type": "uint256"
            },
            {
              "internalType": "uint256",
              "name": "class",
              "type": "uint256"
            },
            {
              "internalType": "uint256",
              "name": "collection",
              "type": "uint256"
            },
            {
              "internalType": "string",
              "name": "season",
              "type": "string"
            },
            {
              "internalType": "uint256",
              "name": "completion",
              "type": "uint256"
            },
            {
              "internalType": "uint256",
              "name": "number",
              "type": "uint256"
            }
          ],
          "internalType": "struct NofAlphaV3.Card[]",
          "name": "",
          "type": "tuple[]"
        }
      ],
      "stateMutability": "view",
      "type": "function"
    },
    {
      "inputs": [
        {
          "internalType": "string",
          "name": "name",
          "type": "string"
        }
      ],
      "name": "getSeasonAlbums",
      "outputs": [
        {
          "internalType": "uint256[]",
          "name": "",
          "type": "uint256[]"
        }
      ],
      "stateMutability": "view",
      "type": "function"
    },
    {
      "inputs": [
        {
          "internalType": "string",
          "name": "name",
          "type": "string"
        }
      ],
      "name": "getSeasonCards",
      "outputs": [
        {
          "internalType": "uint256[]",
          "name": "",
          "type": "uint256[]"
        }
      ],
      "stateMutability": "view",
      "type": "function"
    },
    {
      "inputs": [],
      "name": "getSeasonData",
      "outputs": [
        {
          "internalType": "string[]",
          "name": "",
          "type": "string[]"
        },
        {
          "internalType": "uint256[]",
          "name": "",
          "type": "uint256[]"
        }
      ],
      "stateMutability": "view",
      "type": "function"
    },
    {
      "inputs": [
        {
          "internalType": "string",
          "name": "_seasonName",
          "type": "string"
        }
      ],
      "name": "getWinners",
      "outputs": [
        {
          "internalType": "address[]",
          "name": "",
          "type": "address[]"
        }
      ],
      "stateMutability": "view",
      "type": "function"
    },
    {
      "inputs": [
        {
          "internalType": "string",
          "name": "__baseUri",
          "type": "string"
        },
        {
          "internalType": "address",
          "name": "_daiTokenAddress",
          "type": "address"
        },
        {
          "internalType": "address",
          "name": "_balanceReceiver",
          "type": "address"
        }
      ],
      "name": "init",
      "outputs": [],
      "stateMutability": "nonpayable",
      "type": "function"
    },
    {
      "inputs": [
        {
          "internalType": "address",
          "name": "_owner",
          "type": "address"
        },
        {
          "internalType": "address",
          "name": "_operator",
          "type": "address"
        }
      ],
      "name": "isApprovedForAll",
      "outputs": [
        {
          "internalType": "bool",
          "name": "isOperator",
          "type": "bool"
        }
      ],
      "stateMutability": "view",
      "type": "function"
    },
    {
      "inputs": [],
      "name": "name",
      "outputs": [
        {
          "internalType": "string",
          "name": "",
          "type": "string"
        }
      ],
      "stateMutability": "view",
      "type": "function"
    },
    {
      "inputs": [
        {
          "internalType": "string",
          "name": "_name",
          "type": "string"
        },
        {
          "internalType": "uint256",
          "name": "_price",
          "type": "uint256"
        },
        {
          "internalType": "uint256",
          "name": "_amount",
          "type": "uint256"
        },
        {
          "internalType": "string",
          "name": "_folder",
          "type": "string"
        }
      ],
      "name": "newSeason",
      "outputs": [],
      "stateMutability": "nonpayable",
      "type": "function"
    },
    {
      "inputs": [],
      "name": "owner",
      "outputs": [
        {
          "internalType": "address",
          "name": "",
          "type": "address"
        }
      ],
      "stateMutability": "view",
      "type": "function"
    },
    {
      "inputs": [
        {
          "internalType": "uint256",
          "name": "tokenId",
          "type": "uint256"
        }
      ],
      "name": "ownerOf",
      "outputs": [
        {
          "internalType": "address",
          "name": "",
          "type": "address"
        }
      ],
      "stateMutability": "view",
      "type": "function"
    },
    {
      "inputs": [
        {
          "internalType": "uint256",
          "name": "card",
          "type": "uint256"
        },
        {
          "internalType": "uint256",
          "name": "album",
          "type": "uint256"
        }
      ],
      "name": "pasteCards",
      "outputs": [],
      "stateMutability": "nonpayable",
      "type": "function"
    },
    {
      "inputs": [],
      "name": "prizesBalance",
      "outputs": [
        {
          "internalType": "uint256",
          "name": "",
          "type": "uint256"
        }
      ],
      "stateMutability": "view",
      "type": "function"
    },
    {
      "inputs": [],
      "name": "renounceOwnership",
      "outputs": [],
      "stateMutability": "nonpayable",
      "type": "function"
    },
    {
      "inputs": [
        {
          "internalType": "address",
          "name": "from",
          "type": "address"
        },
        {
          "internalType": "address",
          "name": "to",
          "type": "address"
        },
        {
          "internalType": "uint256",
          "name": "tokenId",
          "type": "uint256"
        }
      ],
      "name": "safeTransferFrom",
      "outputs": [],
      "stateMutability": "nonpayable",
      "type": "function"
    },
    {
      "inputs": [
        {
          "internalType": "address",
          "name": "from",
          "type": "address"
        },
        {
          "internalType": "address",
          "name": "to",
          "type": "address"
        },
        {
          "internalType": "uint256",
          "name": "tokenId",
          "type": "uint256"
        },
        {
          "internalType": "bytes",
          "name": "data",
          "type": "bytes"
        }
      ],
      "name": "safeTransferFrom",
      "outputs": [],
      "stateMutability": "nonpayable",
      "type": "function"
    },
    {
      "inputs": [
        {
          "internalType": "uint256",
          "name": "",
          "type": "uint256"
        }
      ],
      "name": "seasonNames",
      "outputs": [
        {
          "internalType": "string",
          "name": "",
          "type": "string"
        }
      ],
      "stateMutability": "view",
      "type": "function"
    },
    {
      "inputs": [
        {
          "internalType": "uint256",
          "name": "",
          "type": "uint256"
        }
      ],
      "name": "seasonPrices",
      "outputs": [
        {
          "internalType": "uint256",
          "name": "",
          "type": "uint256"
        }
      ],
      "stateMutability": "view",
      "type": "function"
    },
    {
      "inputs": [
        {
          "internalType": "string",
          "name": "",
          "type": "string"
        }
      ],
      "name": "seasons",
      "outputs": [
        {
          "internalType": "uint256",
          "name": "price",
          "type": "uint256"
        },
        {
          "internalType": "string",
          "name": "folder",
          "type": "string"
        }
      ],
      "stateMutability": "view",
      "type": "function"
    },
    {
      "inputs": [
        {
          "internalType": "address",
          "name": "operator",
          "type": "address"
        },
        {
          "internalType": "bool",
          "name": "approved",
          "type": "bool"
        }
      ],
      "name": "setApprovalForAll",
      "outputs": [],
      "stateMutability": "nonpayable",
      "type": "function"
    },
    {
      "inputs": [
        {
          "internalType": "address",
          "name": "_newBalanceReceiver",
          "type": "address"
        }
      ],
      "name": "setBalanceReceiver",
      "outputs": [],
      "stateMutability": "nonpayable",
      "type": "function"
    },
    {
      "inputs": [
        {
          "internalType": "string",
          "name": "__baseURI",
          "type": "string"
        }
      ],
      "name": "setBaseURI",
      "outputs": [],
      "stateMutability": "nonpayable",
      "type": "function"
    },
    {
      "inputs": [
        {
          "internalType": "bytes4",
          "name": "interfaceId",
          "type": "bytes4"
        }
      ],
      "name": "supportsInterface",
      "outputs": [
        {
          "internalType": "bool",
          "name": "",
          "type": "bool"
        }
      ],
      "stateMutability": "view",
      "type": "function"
    },
    {
      "inputs": [],
      "name": "symbol",
      "outputs": [
        {
          "internalType": "string",
          "name": "",
          "type": "string"
        }
      ],
      "stateMutability": "view",
      "type": "function"
    },
    {
      "inputs": [
        {
          "internalType": "uint256",
          "name": "tokenId",
          "type": "uint256"
        }
      ],
      "name": "tokenURI",
      "outputs": [
        {
          "internalType": "string",
          "name": "",
          "type": "string"
        }
      ],
      "stateMutability": "view",
      "type": "function"
    },
    {
      "inputs": [
        {
          "internalType": "address",
          "name": "from",
          "type": "address"
        },
        {
          "internalType": "address",
          "name": "to",
          "type": "address"
        },
        {
          "internalType": "uint256",
          "name": "tokenId",
          "type": "uint256"
        }
      ],
      "name": "transferFrom",
      "outputs": [],
      "stateMutability": "nonpayable",
      "type": "function"
    },
    {
      "inputs": [
        {
          "internalType": "address",
          "name": "newOwner",
          "type": "address"
        }
      ],
      "name": "transferOwnership",
      "outputs": [],
      "stateMutability": "nonpayable",
      "type": "function"
    }
  ],
  "bytecode": "0x61016060405260146080908152600e60a052600c60c052600a60e0526008610100526006610120526005610140526200003d90600f9060076200018f565b503480156200004b57600080fd5b50604051806040016040528060098152602001684e4f4620416c70686160b81b815250604051806040016040528060048152602001634e4f464160e01b81525081600090816200009c9190620002e5565b506001620000ab8282620002e5565b505050620000c8620000c2620000ce60201b60201c565b620000df565b620003b1565b6000620000da62000131565b905090565b600780546001600160a01b038381166001600160a01b0319831681179093556040519116919082907f8be0079c531659141344cd1fd0a4f28419497f9722a3daafe3b4186f6b6457e090600090a35050565b60003033036200018957600080368080601f0160208091040260200160405190810160405280939291908181526020018383808284376000920191909152505050503601516001600160a01b031691506200018c9050565b50335b90565b600183019183908215620002175791602002820160005b83821115620001e657835183826101000a81548160ff021916908360ff1602179055509260200192600101602081600001049283019260010302620001a6565b8015620002155782816101000a81549060ff0219169055600101602081600001049283019260010302620001e6565b505b506200022592915062000229565b5090565b5b808211156200022557600081556001016200022a565b634e487b7160e01b600052604160045260246000fd5b600181811c908216806200026b57607f821691505b6020821081036200028c57634e487b7160e01b600052602260045260246000fd5b50919050565b601f821115620002e057600081815260208120601f850160051c81016020861015620002bb5750805b601f850160051c820191505b81811015620002dc57828155600101620002c7565b5050505b505050565b81516001600160401b0381111562000301576200030162000240565b620003198162000312845462000256565b8462000292565b602080601f831160018114620003515760008415620003385750858301515b600019600386901b1c1916600185901b178555620002dc565b600085815260208120601f198616915b82811015620003825788860151825594840194600190910190840162000361565b5085821015620003a15787850151600019600388901b60f8161c191681555b5050505050600190811b01905550565b6145f080620003c16000396000f3fe608060405234801561001057600080fd5b506004361061021c5760003560e01c80638477919b11610125578063be20e5a9116100ad578063e5db587a1161007c578063e5db587a146104c7578063e606df87146104d0578063e985e9c5146104e3578063e9d43f7d146104f6578063f2fde38b1461051657600080fd5b8063be20e5a91461047b578063c1f3a3bb1461048e578063c87b56dd146104a1578063d1811d02146104b457600080fd5b806395d89b41116100f457806395d89b411461042f5780639abc832014610437578063a22cb4651461043f578063b773d5c114610452578063b88d4fde1461046857600080fd5b80638477919b146103d85780638da5cb5b146103eb5780638dc10768146103fc57806395a4c5251461040f57600080fd5b806355f804b3116101a857806370a082311161017757806370a082311461035b578063715018a61461037c57806371f72fa014610384578063787f0b051461039757806383c73d81146103b857600080fd5b806355f804b31461030f57806361c66c1614610322578063627b253f146103355780636352211e1461034857600080fd5b8063095ea7b3116101ef578063095ea7b31461029e57806323b872dd146102b1578063308f5987146102c457806341c2c10f146102e957806342842e0e146102fc57600080fd5b8063015db3961461022157806301ffc9a71461023657806306fdde031461025e578063081812fc14610273575b600080fd5b61023461022f3660046138d9565b610529565b005b610249610244366004613935565b610d50565b60405190151581526020015b60405180910390f35b610266610d61565b60405161025591906139a2565b6102866102813660046139b5565b610df3565b6040516001600160a01b039091168152602001610255565b6102346102ac3660046139ea565b610e1a565b6102346102bf366004613a14565b610f41565b6102d76102d2366004613a50565b610f4c565b60405161025596959493929190613aa6565b6102346102f7366004613ae0565b611049565b61023461030a366004613a14565b61190a565b61023461031d366004613b02565b611925565b6102666103303660046139b5565b61193d565b600a54610286906001600160a01b031681565b6102866103563660046139b5565b6119e9565b61036e610369366004613b36565b611a49565b604051908152602001610255565b610234611acf565b610234610392366004613b51565b611ae3565b6103aa6103a5366004613b02565b611b27565b604051610255929190613bae565b6103cb6103c6366004613b02565b611bd7565b6040516102559190613c02565b6102346103e6366004613c15565b611c4a565b6007546001600160a01b0316610286565b6102d761040a3660046139b5565b611e7d565b61042261041d366004613cd3565b611ead565b6040516102559190613d14565b610266611f2a565b610266611f39565b61023461044d366004613d6f565b611f46565b61045a611f58565b604051610255929190613da6565b610234610476366004613e1c565b61208c565b6103cb610489366004613b02565b6122cf565b61023461049c366004613b36565b612340565b6102666104af3660046139b5565b61236a565b61036e6104c23660046139b5565b612375565b61036e60125481565b601354610286906001600160a01b031681565b6102496104f1366004613e8b565b612396565b610509610504366004613ebe565b6123f6565b6040516102559190613f10565b610234610524366004613b36565b612554565b600b816040516105399190613fb0565b9081526040805160209281900383019020336000908152600390910190925290205460ff16156105b05760405162461bcd60e51b815260206004820152601760248201527f59612074656e657320756e207061636b2077616368696e00000000000000000060448201526064015b60405180910390fd5b6001600b826040516105c29190613fb0565b908152604080516020928190038301812033600090815260039091019093529120805460ff1916921515929092179091558290600b90610603908490613fb0565b90815260405190819003602001902054146106605760405162461bcd60e51b815260206004820152601960248201527f53656e6420657861637420707269636520666f72205061636b0000000000000060448201526064016105a7565b6000606461066f84604b613fe2565b610679919061400f565b9050806012600082825461068d9190614023565b90915550506013546040516323b872dd60e01b8152336004820152306024820152604481018390526001600160a01b03909116906323b872dd906064016020604051808303816000875af11580156106e9573d6000803e3d6000fd5b505050506040513d601f19601f8201168201806040525081019061070d9190614036565b50601354600a546001600160a01b03918216916323b872dd913391166107338588614053565b6040516001600160e01b031960e086901b1681526001600160a01b03938416600482015292909116602483015260448201526064016020604051808303816000875af1158015610787573d6000803e3d6000fd5b505050506040513d601f19601f820116820180604052508101906107ab9190614036565b506000600b836040516107be9190613fb0565b9081526040805160209281900383018120600201544293820193909352016040516020818303038152906040528051906020012060001c6107ff9190614066565b90506000600b846040516108139190613fb0565b908152602001604051809103902060020182815481106108355761083561407a565b90600052602060002001549050600b846040516108529190613fb0565b90815260200160405180910390206002016001600b866040516108759190613fb0565b908152604051908190036020019020600201546108929190614053565b815481106108a2576108a261407a565b9060005260206000200154600b856040516108bd9190613fb0565b908152602001604051809103902060020183815481106108df576108df61407a565b9060005260206000200181905550600b846040516108fd9190613fb0565b908152602001604051809103902060020180548061091d5761091d614090565b60019003818190600052602060002001600090559055610a5333600b866040516109479190613fb0565b9081526020016040518091039020600401604051806040016040528060018152602001602f60f81b8152508473__$1bdba46fa44f06fa49315629a2a6224c43$__636900a3ae90916040518263ffffffff1660e01b81526004016109ad91815260200190565b600060405180830381865af41580156109ca573d6000803e3d6000fd5b505050506040513d6000823e601f3d908101601f191682016040526109f291908101906140a6565b60405180604001604052806005815260200164173539b7b760d91b815250604051602001610a2394939291906141c0565b60408051601f1981840301815291905260006001610a4260068761400f565b610a4c9190614053565b88866125cd565b505060005b6005811015610d11576000600b84604051610a739190613fb0565b9081526040805160209281900383018120600101544293820193909352016040516020818303038152906040528051906020012060001c610ab49190614066565b90506000600b85604051610ac89190613fb0565b90815260200160405180910390206001018281548110610aea57610aea61407a565b90600052602060002001549050600b85604051610b079190613fb0565b90815260200160405180910390206001016001600b87604051610b2a9190613fb0565b90815260405190819003602001902060010154610b479190614053565b81548110610b5757610b5761407a565b9060005260206000200154600b86604051610b729190613fb0565b90815260200160405180910390206001018381548110610b9457610b9461407a565b9060005260206000200181905550600b85604051610bb29190613fb0565b9081526020016040518091039020600101805480610bd257610bd2614090565b60019003818190600052602060002001600090559055610cfc33600b87604051610bfc9190613fb0565b9081526020016040518091039020600401604051806040016040528060018152602001602f60f81b8152508473__$1bdba46fa44f06fa49315629a2a6224c43$__636900a3ae90916040518263ffffffff1660e01b8152600401610c6291815260200190565b600060405180830381865af4158015610c7f573d6000803e3d6000fd5b505050506040513d6000823e601f3d908101601f19168201604052610ca791908101906140a6565b60405180604001604052806005815260200164173539b7b760d91b815250604051602001610cd894939291906141c0565b60408051601f198184030181529190526001610cf560068661400f565b89866125cd565b50508080610d099061420d565b915050610a58565b507f55d44f7f091f0389b4dcb1b6ae002ed20fe8229c546e6aaf1ccac2646cdf514c3383604051610d43929190614226565b60405180910390a1505050565b6000610d5b826126da565b92915050565b606060008054610d7090614113565b80601f0160208091040260200160405190810160405280929190818152602001828054610d9c90614113565b8015610de95780601f10610dbe57610100808354040283529160200191610de9565b820191906000526020600020905b815481529060010190602001808311610dcc57829003601f168201915b5050505050905090565b6000610dfe826126ff565b506000908152600460205260409020546001600160a01b031690565b6000610e25826119e9565b9050806001600160a01b0316836001600160a01b031603610e925760405162461bcd60e51b815260206004820152602160248201527f4552433732313a20617070726f76616c20746f2063757272656e74206f776e656044820152603960f91b60648201526084016105a7565b806001600160a01b0316610ea461275e565b6001600160a01b03161480610ec05750610ec0816104f161275e565b610f325760405162461bcd60e51b815260206004820152603d60248201527f4552433732313a20617070726f76652063616c6c6572206973206e6f7420746f60448201527f6b656e206f776e6572206f7220617070726f76656420666f7220616c6c00000060648201526084016105a7565b610f3c838361276d565b505050565b610f3c83838361190a565b600e6020908152600084815260409020835180850183018051928152908301928501929092209152805482908110610f8357600080fd5b90600052602060002090600602016000925092505050806000015490806001015490806002015490806003018054610fba90614113565b80601f0160208091040260200160405190810160405280929190818152602001828054610fe690614113565b80156110335780601f1061100857610100808354040283529160200191611033565b820191906000526020600020905b81548152906001019060200180831161101657829003601f168201915b5050505050908060040154908060050154905086565b33611053836119e9565b6001600160a01b0316146110a15760405162461bcd60e51b8152602060048201526015602482015274151a1a5cc81a5cc81b9bdd081e5bdd5c8818d85c99605a1b60448201526064016105a7565b336110ab826119e9565b6001600160a01b0316146110fa5760405162461bcd60e51b815260206004820152601660248201527554686973206973206e6f7420796f757220616c62756d60501b60448201526064016105a7565b6000818152600c6020526040902060010154156111505760405162461bcd60e51b815260206004820152601460248201527363617264206973206e6f7420616e20616c62756d60601b60448201526064016105a7565b6000828152600c60205260408120600301805461116c90614113565b80601f016020809104026020016040519081016040528092919081815260200182805461119890614113565b80156111e55780601f106111ba576101008083540402835291602001916111e5565b820191906000526020600020905b8154815290600101906020018083116111c857829003601f168201915b5050505050905060005b336000908152600e602052604090819020905161120d908490613fb0565b9081526040519081900360200190205460ff82161015611453576000848152600c6020908152604080832060050154338452600e909252918290209151909190611258908590613fb0565b90815260200160405180910390208260ff168154811061127a5761127a61407a565b9060005260206000209060060201600501540361144157336000908152600e60205260409081902090516112af908490613fb0565b90815260200160405180910390206001600e6000336001600160a01b03166001600160a01b03168152602001908152602001600020846040516112f29190613fb0565b9081526040519081900360200190205461130c9190614053565b8154811061131c5761131c61407a565b60009182526020808320338452600e90915260409283902092516006909202019190611349908590613fb0565b90815260200160405180910390208260ff168154811061136b5761136b61407a565b9060005260206000209060060201600082015481600001556001820154816001015560028201548160020155600382018160030190816113ab9190614298565b5060048281015490820155600591820154910155336000908152600e60205260409081902090516113dd908490613fb0565b90815260200160405180910390208054806113fa576113fa614090565b60008281526020812060066000199093019283020181815560018101829055600281018290559061142e60038301826137c0565b5060006004820181905560059091015590555b8061144b81614374565b9150506111ef565b5061145d836127db565b6000828152600c6020526040812060040180549161147a8361420d565b9091555050336000908152600e60209081526040808320868452600c90925291829020915190916114b091600390910190614393565b90815260200160405180910390206000815481106114d0576114d061407a565b6000918252602082206004600690920201018054916114ee8361420d565b90915550506000828152600c6020526040902060040154600503610f3c576000828152600c60205260408120600301805461152890614113565b80601f016020809104026020016040519081016040528092919081815260200182805461155490614113565b80156115a15780601f10611576576101008083540402835291602001916115a1565b820191906000526020600020905b81548152906001019060200180831161158457829003601f168201915b505050505090506007600d826040516115ba9190613fb0565b90815260405190819003602001902054101561179b57600d816040516115e09190613fb0565b908152604051908190036020908101822080546001818101835560009283529282200180546001600160a01b0319163317905591600a91600f91600d90611628908790613fb0565b908152604051908190036020019020546116429190614053565b600781106116525761165261407a565b602091828204019190069054906101000a900460ff1660ff16600b8460405161167b9190613fb0565b908152604051908190036020019020546116959190613fe2565b61169f919061400f565b905060125481111561170c5760405162461bcd60e51b815260206004820152603060248201527f5072697a65206d757374206265206c6f776572206f7220657175616c2074686160448201526f6e207072697a65732062616c616e636560801b60648201526084016105a7565b806012600082825461171e9190614053565b909155505060135460405163a9059cbb60e01b8152336004820152602481018390526001600160a01b039091169063a9059cbb906044016020604051808303816000875af1158015611774573d6000803e3d6000fd5b505050506040513d601f19601f820116820180604052508101906117989190614036565b50505b6118ae83600b836040516117af9190613fb0565b908152604080519182900360209081018320838301835260018452602f60f81b848301526000898152600c9092529082902060050154915163348051d760e11b81526004918201939273__$1bdba46fa44f06fa49315629a2a6224c43$__92636900a3ae9261182392910190815260200190565b600060405180830381865af4158015611840573d6000803e3d6000fd5b505050506040513d6000823e601f3d908101601f1916820160405261186891908101906140a6565b6040518060400160405280600681526020016523173539b7b760d11b81525060405160200161189a94939291906141c0565b6040516020818303038152906040526127e4565b7f953ec8b8176b9eb94e1561816a70bc231210aee5f1aaa59fdbad7915f9ad3c963382600d846040516118e19190613fb0565b908152604051908190036020018120546118fc93929161439f565b60405180910390a150505050565b610f3c8383836040518060200160405280600081525061208c565b61192d6128af565b600961193982826143d3565b5050565b6010818154811061194d57600080fd5b90600052602060002001600091509050805461196890614113565b80601f016020809104026020016040519081016040528092919081815260200182805461199490614113565b80156119e15780601f106119b6576101008083540402835291602001916119e1565b820191906000526020600020905b8154815290600101906020018083116119c457829003601f168201915b505050505081565b6000818152600260205260408120546001600160a01b031680610d5b5760405162461bcd60e51b8152602060048201526018602482015277115490cdcc8c4e881a5b9d985b1a59081d1bdad95b88125160421b60448201526064016105a7565b60006001600160a01b038216611ab35760405162461bcd60e51b815260206004820152602960248201527f4552433732313a2061646472657373207a65726f206973206e6f7420612076616044820152683634b21037bbb732b960b91b60648201526084016105a7565b506001600160a01b031660009081526003602052604090205490565b611ad76128af565b611ae16000612928565b565b611aeb6128af565b6009611af784826143d3565b50601380546001600160a01b039384166001600160a01b031991821617909155600a805492909316911617905550565b8051602081830181018051600b8252928201919093012091528054600482018054919291611b5490614113565b80601f0160208091040260200160405190810160405280929190818152602001828054611b8090614113565b8015611bcd5780601f10611ba257610100808354040283529160200191611bcd565b820191906000526020600020905b815481529060010190602001808311611bb057829003601f168201915b5050505050905082565b6060600b82604051611be99190613fb0565b9081526040805191829003602090810183206001018054808302850183019093528284529190830182828015611c3e57602002820191906000526020600020905b815481526020019060010190808311611c2a575b50505050509050919050565b611c526128af565b655af3107a4000831015611cb75760405162461bcd60e51b815260206004820152602660248201527f7061636b2076616c7565206d757374206265206174206c6561737420302e303060448201526530312044414960d01b60648201526084016105a7565b611cc2600683614066565b15611d0f5760405162461bcd60e51b815260206004820152601c60248201527f416d6f756e74206d757374206265206d756c7469706c65206f6620360000000060448201526064016105a7565b82600b85604051611d209190613fb0565b908152604051908190036020018120919091558190600b90611d43908790613fb0565b90815260200160405180910390206004019081611d6091906143d3565b50601080546001810182556000919091527f1b6847dc741a1b0cd08d278845f9d819d87b734759afb55fe2de5cb82a9ae67201611d9d85826143d3565b5060118054600181810183556000929092527f31ecc21a745e3968a04e9570e4425bc18fa8019c68028196b546d1669c200c68018490555b828111611e7657611de7600682614066565b600003611e2a57600b85604051611dfe9190613fb0565b908152604051602091819003820190206002018054600181018255600091825291902001819055611e64565b600b85604051611e3a9190613fb0565b90815260405160209181900382019020600190810180549182018155600090815291909120018190555b80611e6e8161420d565b915050611dd5565b5050505050565b600c60205260009081526040902080546001820154600283015460038401805493949293919291610fba90614113565b6060600d8383604051611ec192919061448a565b9081526040805191829003602090810183208054808302850183019093528284529190830182828015611f1d57602002820191906000526020600020905b81546001600160a01b03168152600190910190602001808311611eff575b5050505050905092915050565b606060018054610d7090614113565b6009805461196890614113565b611939611f5161275e565b838361297a565b6060806010601181805480602002602001604051908101604052809291908181526020016000905b8282101561202c578382906000526020600020018054611f9f90614113565b80601f0160208091040260200160405190810160405280929190818152602001828054611fcb90614113565b80156120185780601f10611fed57610100808354040283529160200191612018565b820191906000526020600020905b815481529060010190602001808311611ffb57829003601f168201915b505050505081526020019060010190611f80565b5050505091508080548060200260200160405190810160405280929190818152602001828054801561207d57602002820191906000526020600020905b815481526020019060010190808311612069575b50505050509050915091509091565b6000828152600c6020526040812060030180546120a890614113565b80601f01602080910402602001604051908101604052809291908181526020018280546120d490614113565b80156121215780601f106120f657610100808354040283529160200191612121565b820191906000526020600020905b81548152906001019060200180831161210457829003601f168201915b50505050509050612131816122cf565b51156121915760405162461bcd60e51b815260206004820152602960248201527f54686572652061726520616c62756d7320617661696c61626c6520696e20746860448201526834b99039b2b0b9b7b760b91b60648201526084016105a7565b61219d85858585612a48565b6000838152600c60205260409020600190810154900361225257600b816040516121c79190613fb0565b90815260408051602092819003830190206001600160a01b0387166000908152600390910190925290205460ff1661224d5760405162461bcd60e51b815260206004820152602360248201527f5265636569766572206973206e6f7420706c6179696e6720746869732073656160448201526239b7b760e91b60648201526084016105a7565b6122c4565b6000838152600c60205260409020600401546005146122c45760405162461bcd60e51b815260206004820152602860248201527f4f6e6c7920636f6d706c6574656420616c62756d732063616e206265207472616044820152671b9cd9995c9c995960c21b60648201526084016105a7565b611e76858585612acd565b6060600b826040516122e19190613fb0565b9081526040805191829003602090810183206002018054808302850183019093528284529190830182828015611c3e5760200282019190600052602060002090815481526020019060010190808311611c2a5750505050509050919050565b6123486128af565b600a80546001600160a01b0319166001600160a01b0392909216919091179055565b6060610d5b82612ea7565b6011818154811061238557600080fd5b600091825260209091200154905081565b60007358807bad0b376efc12f5ad86aac70e78ed67dead196001600160a01b038316016123c557506001610d5b565b6001600160a01b0380841660009081526005602090815260408083209386168352929052205460ff165b9392505050565b6001600160a01b0383166000908152600e602052604090819020905160609190612423908590859061448a565b9081526020016040518091039020805480602002602001604051908101604052809291908181526020016000905b8282101561254757838290600052602060002090600602016040518060c00160405290816000820154815260200160018201548152602001600282015481526020016003820180546124a290614113565b80601f01602080910402602001604051908101604052809291908181526020018280546124ce90614113565b801561251b5780601f106124f05761010080835404028352916020019161251b565b820191906000526020600020905b8154815290600101906020018083116124fe57829003601f168201915b505050505081526020016004820154815260200160058201548152505081526020019060010190612451565b5050505090509392505050565b61255c6128af565b6001600160a01b0381166125c15760405162461bcd60e51b815260206004820152602660248201527f4f776e61626c653a206e6577206f776e657220697320746865207a65726f206160448201526564647265737360d01b60648201526084016105a7565b6125ca81612928565b50565b600880549060019060006125e18385614023565b90915550506000818152600c60205260409020818155600181018690556002810185905560030161261284826143d3565b506000818152600c602090815260408083206005018590556001600160a01b038a168352600e90915290819020905161264c908590613fb0565b90815260408051602092819003830190206000848152600c8452918220815460018082018455928452939092208254600690940201928355808201549083015560028082015490830155906003808201906126a990840182614298565b50600482810154908201556005918201549101556126c78782612faa565b6126d181876127e4565b50505050505050565b60006001600160e01b03198216632483248360e11b1480610d5b5750610d5b82613143565b6000818152600260205260409020546001600160a01b03166125ca5760405162461bcd60e51b8152602060048201526018602482015277115490cdcc8c4e881a5b9d985b1a59081d1bdad95b88125160421b60448201526064016105a7565b6000612768613193565b905090565b600081815260046020526040902080546001600160a01b0319166001600160a01b03841690811790915581906127a2826119e9565b6001600160a01b03167f8c5be1e5ebec7d5bd14f71427d1e84f3dd0314c0f7b2291e5b200ac8c7c3b92560405160405180910390a45050565b6125ca816131ef565b6000828152600260205260409020546001600160a01b031661285f5760405162461bcd60e51b815260206004820152602e60248201527f45524337323155524953746f726167653a2055524920736574206f66206e6f6e60448201526d32bc34b9ba32b73a103a37b5b2b760911b60648201526084016105a7565b600082815260066020526040902061287782826143d3565b506040518281527ff8e1a15aba9398e019f0b49df1a4fde98ee17ae345cb5f6b5e2c27f5033e8ce79060200160405180910390a15050565b6128b761275e565b6001600160a01b03166128d26007546001600160a01b031690565b6001600160a01b031614611ae15760405162461bcd60e51b815260206004820181905260248201527f4f776e61626c653a2063616c6c6572206973206e6f7420746865206f776e657260448201526064016105a7565b600780546001600160a01b038381166001600160a01b0319831681179093556040519116919082907f8be0079c531659141344cd1fd0a4f28419497f9722a3daafe3b4186f6b6457e090600090a35050565b816001600160a01b0316836001600160a01b0316036129db5760405162461bcd60e51b815260206004820152601960248201527f4552433732313a20617070726f766520746f2063616c6c65720000000000000060448201526064016105a7565b6001600160a01b03838116600081815260056020908152604080832094871680845294825291829020805460ff191686151590811790915591519182527f17307eab39ab6107e8899845ad3d59bd9653f200f220920489ca2b5937696c31910160405180910390a3505050565b612a59612a5361275e565b8361322f565b612abb5760405162461bcd60e51b815260206004820152602d60248201527f4552433732313a2063616c6c6572206973206e6f7420746f6b656e206f776e6560448201526c1c881bdc88185c1c1c9bdd9959609a1b60648201526084016105a7565b612ac78484848461328d565b50505050565b6000818152600c602052604081206003018054612ae990614113565b80601f0160208091040260200160405190810160405280929190818152602001828054612b1590614113565b8015612b625780601f10612b3757610100808354040283529160200191612b62565b820191906000526020600020905b815481529060010190602001808311612b4557829003601f168201915b5050505050905060005b6001600160a01b0385166000908152600e6020526040908190209051612b93908490613fb0565b9081526040519081900360200190205460ff82161015612e08576000838152600c60209081526040808320600501546001600160a01b0389168452600e909252918290209151909190612be7908590613fb0565b90815260200160405180910390208260ff1681548110612c0957612c0961407a565b90600052602060002090600602016005015403612df6576001600160a01b0385166000908152600e6020526040908190209051612c47908490613fb0565b90815260200160405180910390206001600e6000886001600160a01b03166001600160a01b0316815260200190815260200160002084604051612c8a9190613fb0565b90815260405190819003602001902054612ca49190614053565b81548110612cb457612cb461407a565b9060005260206000209060060201600e6000876001600160a01b03166001600160a01b0316815260200190815260200160002083604051612cf59190613fb0565b90815260200160405180910390208260ff1681548110612d1757612d1761407a565b906000526020600020906006020160008201548160000155600182015481600101556002820154816002015560038201816003019081612d579190614298565b50600482810154908201556005918201549101556001600160a01b0385166000908152600e6020526040908190209051612d92908490613fb0565b9081526020016040518091039020805480612daf57612daf614090565b600082815260208120600660001990930192830201818155600181018290556002810182905590612de360038301826137c0565b5060006004820181905560059091015590555b80612e0081614374565b915050612b6c565b506001600160a01b0383166000908152600e6020526040908190209051612e30908390613fb0565b90815260408051602092819003830190206000858152600c845291822081546001808201845592845293909220825460069094020192835580820154908301556002808201549083015590600380820190612e8d90840182614298565b506004828101549082015560059182015491015550505050565b6060612eb2826126ff565b60008281526006602052604081208054612ecb90614113565b80601f0160208091040260200160405190810160405280929190818152602001828054612ef790614113565b8015612f445780601f10612f1957610100808354040283529160200191612f44565b820191906000526020600020905b815481529060010190602001808311612f2757829003601f168201915b505050505090506000612f556132c0565b90508051600003612f67575092915050565b815115612f99578082604051602001612f8192919061449a565b60405160208183030381529060405292505050919050565b612fa2846132cf565b949350505050565b6001600160a01b0382166130005760405162461bcd60e51b815260206004820181905260248201527f4552433732313a206d696e7420746f20746865207a65726f206164647265737360448201526064016105a7565b6000818152600260205260409020546001600160a01b0316156130655760405162461bcd60e51b815260206004820152601c60248201527f4552433732313a20746f6b656e20616c7265616479206d696e7465640000000060448201526064016105a7565b613073600083836001613335565b6000818152600260205260409020546001600160a01b0316156130d85760405162461bcd60e51b815260206004820152601c60248201527f4552433732313a20746f6b656e20616c7265616479206d696e7465640000000060448201526064016105a7565b6001600160a01b038216600081815260036020908152604080832080546001019055848352600290915280822080546001600160a01b0319168417905551839291907fddf252ad1be2c89b69c2b068fc378daa952ba7f163c4a11628f55a4df523b3ef908290a45050565b60006001600160e01b031982166380ac58cd60e01b148061317457506001600160e01b03198216635b5e139f60e01b145b80610d5b57506301ffc9a760e01b6001600160e01b0319831614610d5b565b60003033036131e957600080368080601f0160208091040260200160405190810160405280939291908181526020018383808284376000920191909152505050503601516001600160a01b031691506131ec9050565b50335b90565b6131f88161333a565b6000818152600660205260409020805461321190614113565b1590506125ca5760008181526006602052604081206125ca916137c0565b60008061323b836119e9565b9050806001600160a01b0316846001600160a01b0316148061326257506132628185612396565b80612fa25750836001600160a01b031661327b84610df3565b6001600160a01b031614949350505050565b6132988484846133dd565b6132a48484848461354e565b612ac75760405162461bcd60e51b81526004016105a7906144c9565b606060098054610d7090614113565b60606132da826126ff565b60006132e46132c0565b9050600081511161330457604051806020016040528060008152506123ef565b8061330e84613656565b60405160200161331f92919061449a565b6040516020818303038152906040529392505050565b612ac7565b6000613345826119e9565b9050613355816000846001613335565b61335e826119e9565b600083815260046020908152604080832080546001600160a01b03199081169091556001600160a01b0385168085526003845282852080546000190190558785526002909352818420805490911690555192935084927fddf252ad1be2c89b69c2b068fc378daa952ba7f163c4a11628f55a4df523b3ef908390a45050565b826001600160a01b03166133f0826119e9565b6001600160a01b0316146134165760405162461bcd60e51b81526004016105a79061451b565b6001600160a01b0382166134785760405162461bcd60e51b8152602060048201526024808201527f4552433732313a207472616e7366657220746f20746865207a65726f206164646044820152637265737360e01b60648201526084016105a7565b6134858383836001613335565b826001600160a01b0316613498826119e9565b6001600160a01b0316146134be5760405162461bcd60e51b81526004016105a79061451b565b600081815260046020908152604080832080546001600160a01b03199081169091556001600160a01b0387811680865260038552838620805460001901905590871680865283862080546001019055868652600290945282852080549092168417909155905184937fddf252ad1be2c89b69c2b068fc378daa952ba7f163c4a11628f55a4df523b3ef91a4505050565b60006001600160a01b0384163b1561364b57836001600160a01b031663150b7a0261357761275e565b8786866040518563ffffffff1660e01b81526004016135999493929190614560565b6020604051808303816000875af19250505080156135d4575060408051601f3d908101601f191682019092526135d19181019061459d565b60015b613631573d808015613602576040519150601f19603f3d011682016040523d82523d6000602084013e613607565b606091505b5080516000036136295760405162461bcd60e51b81526004016105a7906144c9565b805181602001fd5b6001600160e01b031916630a85bd0160e11b149050612fa2565b506001949350505050565b60606000613663836136e8565b60010190506000816001600160401b038111156136825761368261380e565b6040519080825280601f01601f1916602001820160405280156136ac576020820181803683370190505b5090508181016020015b600019016f181899199a1a9b1b9c1cb0b131b232b360811b600a86061a8153600a85049450846136b657509392505050565b60008072184f03e93ff9f4daa797ed6e38ed64bf6a1f0160401b83106137275772184f03e93ff9f4daa797ed6e38ed64bf6a1f0160401b830492506040015b6d04ee2d6d415b85acef81000000008310613753576d04ee2d6d415b85acef8100000000830492506020015b662386f26fc10000831061377157662386f26fc10000830492506010015b6305f5e1008310613789576305f5e100830492506008015b612710831061379d57612710830492506004015b606483106137af576064830492506002015b600a8310610d5b5760010192915050565b5080546137cc90614113565b6000825580601f106137dc575050565b601f0160209004906000526020600020908101906125ca91905b8082111561380a57600081556001016137f6565b5090565b634e487b7160e01b600052604160045260246000fd5b604051601f8201601f191681016001600160401b038111828210171561384c5761384c61380e565b604052919050565b60006001600160401b0382111561386d5761386d61380e565b50601f01601f191660200190565b600061388e61388984613854565b613824565b90508281528383830111156138a257600080fd5b828260208301376000602084830101529392505050565b600082601f8301126138ca57600080fd5b6123ef8383356020850161387b565b600080604083850312156138ec57600080fd5b8235915060208301356001600160401b0381111561390957600080fd5b613915858286016138b9565b9150509250929050565b6001600160e01b0319811681146125ca57600080fd5b60006020828403121561394757600080fd5b81356123ef8161391f565b60005b8381101561396d578181015183820152602001613955565b50506000910152565b6000815180845261398e816020860160208601613952565b601f01601f19169290920160200192915050565b6020815260006123ef6020830184613976565b6000602082840312156139c757600080fd5b5035919050565b80356001600160a01b03811681146139e557600080fd5b919050565b600080604083850312156139fd57600080fd5b613a06836139ce565b946020939093013593505050565b600080600060608486031215613a2957600080fd5b613a32846139ce565b9250613a40602085016139ce565b9150604084013590509250925092565b600080600060608486031215613a6557600080fd5b613a6e846139ce565b925060208401356001600160401b03811115613a8957600080fd5b613a95868287016138b9565b925050604084013590509250925092565b86815285602082015284604082015260c060608201526000613acb60c0830186613976565b60808301949094525060a00152949350505050565b60008060408385031215613af357600080fd5b50508035926020909101359150565b600060208284031215613b1457600080fd5b81356001600160401b03811115613b2a57600080fd5b612fa2848285016138b9565b600060208284031215613b4857600080fd5b6123ef826139ce565b600080600060608486031215613b6657600080fd5b83356001600160401b03811115613b7c57600080fd5b613b88868287016138b9565b935050613b97602085016139ce565b9150613ba5604085016139ce565b90509250925092565b828152604060208201526000612fa26040830184613976565b600081518084526020808501945080840160005b83811015613bf757815187529582019590820190600101613bdb565b509495945050505050565b6020815260006123ef6020830184613bc7565b60008060008060808587031215613c2b57600080fd5b84356001600160401b0380821115613c4257600080fd5b613c4e888389016138b9565b955060208701359450604087013593506060870135915080821115613c7257600080fd5b50613c7f878288016138b9565b91505092959194509250565b60008083601f840112613c9d57600080fd5b5081356001600160401b03811115613cb457600080fd5b602083019150836020828501011115613ccc57600080fd5b9250929050565b60008060208385031215613ce657600080fd5b82356001600160401b03811115613cfc57600080fd5b613d0885828601613c8b565b90969095509350505050565b6020808252825182820181905260009190848201906040850190845b81811015613d555783516001600160a01b031683529284019291840191600101613d30565b50909695505050505050565b80151581146125ca57600080fd5b60008060408385031215613d8257600080fd5b613d8b836139ce565b91506020830135613d9b81613d61565b809150509250929050565b6000604082016040835280855180835260608501915060608160051b8601019250602080880160005b83811015613dfd57605f19888703018552613deb868351613976565b95509382019390820190600101613dcf565b505085840381870152505050613e138185613bc7565b95945050505050565b60008060008060808587031215613e3257600080fd5b613e3b856139ce565b9350613e49602086016139ce565b92506040850135915060608501356001600160401b03811115613e6b57600080fd5b8501601f81018713613e7c57600080fd5b613c7f8782356020840161387b565b60008060408385031215613e9e57600080fd5b613ea7836139ce565b9150613eb5602084016139ce565b90509250929050565b600080600060408486031215613ed357600080fd5b613edc846139ce565b925060208401356001600160401b03811115613ef757600080fd5b613f0386828701613c8b565b9497909650939450505050565b60006020808301818452808551808352604092508286019150828160051b87010184880160005b83811015613fa257603f19898403018552815160c081518552888201518986015287820151888601526060808301518282880152613f7783880182613976565b6080858101519089015260a09485015194909701939093525050509386019390860190600101613f37565b509098975050505050505050565b60008251613fc2818460208701613952565b9190910192915050565b634e487b7160e01b600052601160045260246000fd5b8082028115828204841417610d5b57610d5b613fcc565b634e487b7160e01b600052601260045260246000fd5b60008261401e5761401e613ff9565b500490565b80820180821115610d5b57610d5b613fcc565b60006020828403121561404857600080fd5b81516123ef81613d61565b81810381811115610d5b57610d5b613fcc565b60008261407557614075613ff9565b500690565b634e487b7160e01b600052603260045260246000fd5b634e487b7160e01b600052603160045260246000fd5b6000602082840312156140b857600080fd5b81516001600160401b038111156140ce57600080fd5b8201601f810184136140df57600080fd5b80516140ed61388982613854565b81815285602083850101111561410257600080fd5b613e13826020830160208601613952565b600181811c9082168061412757607f821691505b60208210810361414757634e487b7160e01b600052602260045260246000fd5b50919050565b6000815461415a81614113565b600182811680156141725760018114614187576141b6565b60ff19841687528215158302870194506141b6565b8560005260208060002060005b858110156141ad5781548a820152908401908201614194565b50505082870194505b5050505092915050565b60006141cc828761414d565b85516141dc818360208a01613952565b85519101906141ef818360208901613952565b8451910190614202818360208801613952565b019695505050505050565b60006001820161421f5761421f613fcc565b5060010190565b6001600160a01b0383168152604060208201819052600090612fa290830184613976565b601f821115610f3c57600081815260208120601f850160051c810160208610156142715750805b601f850160051c820191505b818110156142905782815560010161427d565b505050505050565b8181036142a3575050565b6142ad8254614113565b6001600160401b038111156142c4576142c461380e565b6142d8816142d28454614113565b8461424a565b6000601f82116001811461430c57600083156142f45750848201545b600019600385901b1c1916600184901b178455611e76565b600085815260209020601f19841690600086815260209020845b838110156143465782860154825560019586019590910190602001614326565b50858310156143645781850154600019600388901b60f8161c191681555b5050505050600190811b01905550565b600060ff821660ff810361438a5761438a613fcc565b60010192915050565b60006123ef828461414d565b6001600160a01b03841681526060602082018190526000906143c390830185613976565b9050826040830152949350505050565b81516001600160401b038111156143ec576143ec61380e565b6143fa816142d28454614113565b602080601f83116001811461442f57600084156144175750858301515b600019600386901b1c1916600185901b178555614290565b600085815260208120601f198616915b8281101561445e5788860151825594840194600190910190840161443f565b508582101561436457939096015160001960f8600387901b161c19169092555050600190811b01905550565b8183823760009101908152919050565b600083516144ac818460208801613952565b8351908301906144c0818360208801613952565b01949350505050565b60208082526032908201527f4552433732313a207472616e7366657220746f206e6f6e20455243373231526560408201527131b2b4bb32b91034b6b83632b6b2b73a32b960711b606082015260800190565b60208082526025908201527f4552433732313a207472616e736665722066726f6d20696e636f72726563742060408201526437bbb732b960d91b606082015260800190565b6001600160a01b038581168252841660208201526040810183905260806060820181905260009061459390830184613976565b9695505050505050565b6000602082840312156145af57600080fd5b81516123ef8161391f56fea26469706673582212200177f713622859183a3aea5f6adc6822b1b63144487451bf70cbc87a56875e8164736f6c63430008140033",
  "linkReferences": {
    "contracts/libs/LibStringUtils.sol": {
      "LibStringUtils": [
        {
          "length": 20,
          "start": 3382
        },
        {
          "length": 20,
          "start": 4075
        },
        {
          "length": 20,
          "start": 7099
        }
      ]
    }
  },
  "deployedLinkReferences": {
    "contracts/libs/LibStringUtils.sol": {
      "LibStringUtils": [
        {
          "length": 20,
          "start": 2421
        },
        {
          "length": 20,
          "start": 3114
        },
        {
          "length": 20,
          "start": 6138
        }
      ]
    }
  }
}