{
  "_format": "hh-sol-artifact-1",
  "contractName": "NofAlphaV3",
  "sourceName": "contracts/alpha/Alpha.v3.sol",
  "abi": [
    {
      "inputs": [],
      "stateMutability": "nonpayable",
      "type": "constructor"
    },
    {
      "inputs": [],
      "name": "Alpha_AlbumNotCompleted",
      "type": "error"
    },
    {
      "inputs": [],
      "name": "Alpha_AlreadyHaveAPack",
      "type": "error"
    },
    {
      "inputs": [],
      "name": "Alpha_AmountMustBeMultipleOf6",
      "type": "error"
    },
    {
      "inputs": [],
      "name": "Alpha_AuthorizedStatusAlreadySet",
      "type": "error"
    },
    {
      "inputs": [],
      "name": "Alpha_CardIsNotAnAlbum",
      "type": "error"
    },
    {
      "inputs": [],
      "name": "Alpha_NotAuthorized",
      "type": "error"
    },
    {
      "inputs": [],
      "name": "Alpha_NotCorrectPriceForPack",
      "type": "error"
    },
    {
      "inputs": [],
      "name": "Alpha_NotEnoughPrizeBalance",
      "type": "error"
    },
    {
      "inputs": [],
      "name": "Alpha_NotPlayingThisSeason",
      "type": "error"
    },
    {
      "inputs": [],
      "name": "Alpha_NotYourAlbum",
      "type": "error"
    },
    {
      "inputs": [],
      "name": "Alpha_NotYourCard",
      "type": "error"
    },
    {
      "inputs": [],
      "name": "Alpha_PriceTooLow",
      "type": "error"
    },
    {
      "inputs": [],
      "name": "Alpha_StillAlbumsAvailable",
      "type": "error"
    },
    {
      "anonymous": false,
      "inputs": [
        {
          "indexed": true,
          "internalType": "address",
          "name": "owner",
          "type": "address"
        },
        {
          "indexed": true,
          "internalType": "address",
          "name": "approved",
          "type": "address"
        },
        {
          "indexed": true,
          "internalType": "uint256",
          "name": "tokenId",
          "type": "uint256"
        }
      ],
      "name": "Approval",
      "type": "event"
    },
    {
      "anonymous": false,
      "inputs": [
        {
          "indexed": true,
          "internalType": "address",
          "name": "owner",
          "type": "address"
        },
        {
          "indexed": true,
          "internalType": "address",
          "name": "operator",
          "type": "address"
        },
        {
          "indexed": false,
          "internalType": "bool",
          "name": "approved",
          "type": "bool"
        }
      ],
      "name": "ApprovalForAll",
      "type": "event"
    },
    {
      "anonymous": false,
      "inputs": [
        {
          "indexed": true,
          "internalType": "address",
          "name": "authorized",
          "type": "address"
        },
        {
          "indexed": false,
          "internalType": "bool",
          "name": "status",
          "type": "bool"
        }
      ],
      "name": "Authorized",
      "type": "event"
    },
    {
      "anonymous": false,
      "inputs": [
        {
          "indexed": false,
          "internalType": "uint256",
          "name": "_fromTokenId",
          "type": "uint256"
        },
        {
          "indexed": false,
          "internalType": "uint256",
          "name": "_toTokenId",
          "type": "uint256"
        }
      ],
      "name": "BatchMetadataUpdate",
      "type": "event"
    },
    {
      "anonymous": false,
      "inputs": [
        {
          "indexed": true,
          "internalType": "address",
          "name": "buyer",
          "type": "address"
        },
        {
          "indexed": true,
          "internalType": "string",
          "name": "seasonName",
          "type": "string"
        }
      ],
      "name": "BuyPack",
      "type": "event"
    },
    {
      "anonymous": false,
      "inputs": [
        {
          "indexed": false,
          "internalType": "uint256",
          "name": "_tokenId",
          "type": "uint256"
        }
      ],
      "name": "MetadataUpdate",
      "type": "event"
    },
    {
      "anonymous": false,
      "inputs": [
        {
          "indexed": true,
          "internalType": "address",
          "name": "previousOwner",
          "type": "address"
        },
        {
          "indexed": true,
          "internalType": "address",
          "name": "newOwner",
          "type": "address"
        }
      ],
      "name": "OwnershipTransferred",
      "type": "event"
    },
    {
      "anonymous": false,
      "inputs": [
        {
          "indexed": true,
          "internalType": "address",
          "name": "from",
          "type": "address"
        },
        {
          "indexed": true,
          "internalType": "address",
          "name": "to",
          "type": "address"
        },
        {
          "indexed": true,
          "internalType": "uint256",
          "name": "tokenId",
          "type": "uint256"
        }
      ],
      "name": "Transfer",
      "type": "event"
    },
    {
      "anonymous": false,
      "inputs": [
        {
          "indexed": true,
          "internalType": "address",
          "name": "winner",
          "type": "address"
        },
        {
          "indexed": true,
          "internalType": "string",
          "name": "season",
          "type": "string"
        },
        {
          "indexed": true,
          "internalType": "uint256",
          "name": "position",
          "type": "uint256"
        }
      ],
      "name": "Winner",
      "type": "event"
    },
    {
      "inputs": [],
      "name": "DAI_TOKEN",
      "outputs": [
        {
          "internalType": "address",
          "name": "",
          "type": "address"
        }
      ],
      "stateMutability": "view",
      "type": "function"
    },
    {
      "inputs": [
        {
          "internalType": "address",
          "name": "to",
          "type": "address"
        },
        {
          "internalType": "uint256",
          "name": "tokenId",
          "type": "uint256"
        }
      ],
      "name": "approve",
      "outputs": [],
      "stateMutability": "nonpayable",
      "type": "function"
    },
    {
      "inputs": [
        {
          "internalType": "address",
          "name": "",
          "type": "address"
        }
      ],
      "name": "authorized",
      "outputs": [
        {
          "internalType": "bool",
          "name": "",
          "type": "bool"
        }
      ],
      "stateMutability": "view",
      "type": "function"
    },
    {
      "inputs": [
        {
          "internalType": "address",
          "name": "owner",
          "type": "address"
        }
      ],
      "name": "balanceOf",
      "outputs": [
        {
          "internalType": "uint256",
          "name": "",
          "type": "uint256"
        }
      ],
      "stateMutability": "view",
      "type": "function"
    },
    {
      "inputs": [],
      "name": "balanceReceiver",
      "outputs": [
        {
          "internalType": "address",
          "name": "",
          "type": "address"
        }
      ],
      "stateMutability": "view",
      "type": "function"
    },
    {
      "inputs": [],
      "name": "baseUri",
      "outputs": [
        {
          "internalType": "string",
          "name": "",
          "type": "string"
        }
      ],
      "stateMutability": "view",
      "type": "function"
    },
    {
      "inputs": [
        {
          "internalType": "uint256",
          "name": "_amount",
          "type": "uint256"
        },
        {
          "internalType": "string",
          "name": "_name",
          "type": "string"
        }
      ],
      "name": "buyPack",
      "outputs": [],
      "stateMutability": "nonpayable",
      "type": "function"
    },
    {
      "inputs": [
        {
          "internalType": "uint256",
          "name": "",
          "type": "uint256"
        }
      ],
      "name": "cards",
      "outputs": [
        {
          "internalType": "uint256",
          "name": "tokenId",
          "type": "uint256"
        },
        {
          "internalType": "uint256",
          "name": "class",
          "type": "uint256"
        },
        {
          "internalType": "uint256",
          "name": "collection",
          "type": "uint256"
        },
        {
          "internalType": "string",
          "name": "season",
          "type": "string"
        },
        {
          "internalType": "uint256",
          "name": "completion",
          "type": "uint256"
        },
        {
          "internalType": "uint256",
          "name": "number",
          "type": "uint256"
        }
      ],
      "stateMutability": "view",
      "type": "function"
    },
    {
      "inputs": [
        {
          "internalType": "address",
          "name": "",
          "type": "address"
        },
        {
          "internalType": "string",
          "name": "",
          "type": "string"
        },
        {
          "internalType": "uint256",
          "name": "",
          "type": "uint256"
        }
      ],
      "name": "cardsByUserBySeason",
      "outputs": [
        {
          "internalType": "uint256",
          "name": "tokenId",
          "type": "uint256"
        },
        {
          "internalType": "uint256",
          "name": "class",
          "type": "uint256"
        },
        {
          "internalType": "uint256",
          "name": "collection",
          "type": "uint256"
        },
        {
          "internalType": "string",
          "name": "season",
          "type": "string"
        },
        {
          "internalType": "uint256",
          "name": "completion",
          "type": "uint256"
        },
        {
          "internalType": "uint256",
          "name": "number",
          "type": "uint256"
        }
      ],
      "stateMutability": "view",
      "type": "function"
    },
    {
      "inputs": [
        {
          "internalType": "address",
          "name": "_newAuthorized",
          "type": "address"
        },
        {
          "internalType": "bool",
          "name": "_authorized",
          "type": "bool"
        }
      ],
      "name": "editAuthorized",
      "outputs": [],
      "stateMutability": "nonpayable",
      "type": "function"
    },
    {
      "inputs": [
        {
          "internalType": "uint256",
          "name": "tokenId",
          "type": "uint256"
        }
      ],
      "name": "getApproved",
      "outputs": [
        {
          "internalType": "address",
          "name": "",
          "type": "address"
        }
      ],
      "stateMutability": "view",
      "type": "function"
    },
    {
      "inputs": [
        {
          "internalType": "address",
          "name": "_user",
          "type": "address"
        },
        {
          "internalType": "string",
          "name": "_seasonName",
          "type": "string"
        }
      ],
      "name": "getCardsByUserBySeason",
      "outputs": [
        {
          "components": [
            {
              "internalType": "uint256",
              "name": "tokenId",
              "type": "uint256"
            },
            {
              "internalType": "uint256",
              "name": "class",
              "type": "uint256"
            },
            {
              "internalType": "uint256",
              "name": "collection",
              "type": "uint256"
            },
            {
              "internalType": "string",
              "name": "season",
              "type": "string"
            },
            {
              "internalType": "uint256",
              "name": "completion",
              "type": "uint256"
            },
            {
              "internalType": "uint256",
              "name": "number",
              "type": "uint256"
            }
          ],
          "internalType": "struct NofAlphaV3.Card[]",
          "name": "",
          "type": "tuple[]"
        }
      ],
      "stateMutability": "view",
      "type": "function"
    },
    {
      "inputs": [
        {
          "internalType": "string",
          "name": "_name",
          "type": "string"
        }
      ],
      "name": "getSeasonAlbums",
      "outputs": [
        {
          "internalType": "uint256[]",
          "name": "",
          "type": "uint256[]"
        }
      ],
      "stateMutability": "view",
      "type": "function"
    },
    {
      "inputs": [
        {
          "internalType": "string",
          "name": "_name",
          "type": "string"
        }
      ],
      "name": "getSeasonCards",
      "outputs": [
        {
          "internalType": "uint256[]",
          "name": "",
          "type": "uint256[]"
        }
      ],
      "stateMutability": "view",
      "type": "function"
    },
    {
      "inputs": [],
      "name": "getSeasonData",
      "outputs": [
        {
          "internalType": "string[]",
          "name": "",
          "type": "string[]"
        },
        {
          "internalType": "uint256[]",
          "name": "",
          "type": "uint256[]"
        }
      ],
      "stateMutability": "view",
      "type": "function"
    },
    {
      "inputs": [
        {
          "internalType": "string",
          "name": "_seasonName",
          "type": "string"
        }
      ],
      "name": "getWinners",
      "outputs": [
        {
          "internalType": "address[]",
          "name": "",
          "type": "address[]"
        }
      ],
      "stateMutability": "view",
      "type": "function"
    },
    {
      "inputs": [
        {
          "internalType": "string",
          "name": "__baseUri",
          "type": "string"
        },
        {
          "internalType": "address",
          "name": "_daiTokenAddress",
          "type": "address"
        },
        {
          "internalType": "address",
          "name": "_balanceReceiver",
          "type": "address"
        }
      ],
      "name": "init",
      "outputs": [],
      "stateMutability": "nonpayable",
      "type": "function"
    },
    {
      "inputs": [
        {
          "internalType": "address",
          "name": "_owner",
          "type": "address"
        },
        {
          "internalType": "address",
          "name": "_operator",
          "type": "address"
        }
      ],
      "name": "isApprovedForAll",
      "outputs": [
        {
          "internalType": "bool",
          "name": "isOperator",
          "type": "bool"
        }
      ],
      "stateMutability": "view",
      "type": "function"
    },
    {
      "inputs": [],
      "name": "name",
      "outputs": [
        {
          "internalType": "string",
          "name": "",
          "type": "string"
        }
      ],
      "stateMutability": "view",
      "type": "function"
    },
    {
      "inputs": [
        {
          "internalType": "string",
          "name": "_name",
          "type": "string"
        },
        {
          "internalType": "uint256",
          "name": "_price",
          "type": "uint256"
        },
        {
          "internalType": "uint256",
          "name": "_amount",
          "type": "uint256"
        },
        {
          "internalType": "string",
          "name": "_folder",
          "type": "string"
        }
      ],
      "name": "newSeason",
      "outputs": [],
      "stateMutability": "nonpayable",
      "type": "function"
    },
    {
      "inputs": [],
      "name": "owner",
      "outputs": [
        {
          "internalType": "address",
          "name": "",
          "type": "address"
        }
      ],
      "stateMutability": "view",
      "type": "function"
    },
    {
      "inputs": [
        {
          "internalType": "uint256",
          "name": "tokenId",
          "type": "uint256"
        }
      ],
      "name": "ownerOf",
      "outputs": [
        {
          "internalType": "address",
          "name": "",
          "type": "address"
        }
      ],
      "stateMutability": "view",
      "type": "function"
    },
    {
      "inputs": [
        {
          "internalType": "uint256",
          "name": "card",
          "type": "uint256"
        },
        {
          "internalType": "uint256",
          "name": "album",
          "type": "uint256"
        }
      ],
      "name": "pasteCards",
      "outputs": [],
      "stateMutability": "nonpayable",
      "type": "function"
    },
    {
      "inputs": [],
      "name": "prizesBalance",
      "outputs": [
        {
          "internalType": "uint256",
          "name": "",
          "type": "uint256"
        }
      ],
      "stateMutability": "view",
      "type": "function"
    },
    {
      "inputs": [],
      "name": "renounceOwnership",
      "outputs": [],
      "stateMutability": "nonpayable",
      "type": "function"
    },
    {
      "inputs": [
        {
          "internalType": "address",
          "name": "from",
          "type": "address"
        },
        {
          "internalType": "address",
          "name": "to",
          "type": "address"
        },
        {
          "internalType": "uint256",
          "name": "tokenId",
          "type": "uint256"
        }
      ],
      "name": "safeTransferFrom",
      "outputs": [],
      "stateMutability": "nonpayable",
      "type": "function"
    },
    {
      "inputs": [
        {
          "internalType": "address",
          "name": "_from",
          "type": "address"
        },
        {
          "internalType": "address",
          "name": "_to",
          "type": "address"
        },
        {
          "internalType": "uint256",
          "name": "_tokenId",
          "type": "uint256"
        },
        {
          "internalType": "bytes",
          "name": "_data",
          "type": "bytes"
        }
      ],
      "name": "safeTransferFrom",
      "outputs": [],
      "stateMutability": "nonpayable",
      "type": "function"
    },
    {
      "inputs": [
        {
          "internalType": "uint256",
          "name": "",
          "type": "uint256"
        }
      ],
      "name": "seasonNames",
      "outputs": [
        {
          "internalType": "string",
          "name": "",
          "type": "string"
        }
      ],
      "stateMutability": "view",
      "type": "function"
    },
    {
      "inputs": [
        {
          "internalType": "uint256",
          "name": "",
          "type": "uint256"
        }
      ],
      "name": "seasonPrices",
      "outputs": [
        {
          "internalType": "uint256",
          "name": "",
          "type": "uint256"
        }
      ],
      "stateMutability": "view",
      "type": "function"
    },
    {
      "inputs": [
        {
          "internalType": "string",
          "name": "",
          "type": "string"
        }
      ],
      "name": "seasons",
      "outputs": [
        {
          "internalType": "uint256",
          "name": "price",
          "type": "uint256"
        },
        {
          "internalType": "string",
          "name": "folder",
          "type": "string"
        }
      ],
      "stateMutability": "view",
      "type": "function"
    },
    {
      "inputs": [
        {
          "internalType": "address",
          "name": "operator",
          "type": "address"
        },
        {
          "internalType": "bool",
          "name": "approved",
          "type": "bool"
        }
      ],
      "name": "setApprovalForAll",
      "outputs": [],
      "stateMutability": "nonpayable",
      "type": "function"
    },
    {
      "inputs": [
        {
          "internalType": "address",
          "name": "_newBalanceReceiver",
          "type": "address"
        }
      ],
      "name": "setBalanceReceiver",
      "outputs": [],
      "stateMutability": "nonpayable",
      "type": "function"
    },
    {
      "inputs": [
        {
          "internalType": "string",
          "name": "__baseURI",
          "type": "string"
        }
      ],
      "name": "setBaseURI",
      "outputs": [],
      "stateMutability": "nonpayable",
      "type": "function"
    },
    {
      "inputs": [
        {
          "internalType": "bytes4",
          "name": "interfaceId",
          "type": "bytes4"
        }
      ],
      "name": "supportsInterface",
      "outputs": [
        {
          "internalType": "bool",
          "name": "",
          "type": "bool"
        }
      ],
      "stateMutability": "view",
      "type": "function"
    },
    {
      "inputs": [],
      "name": "symbol",
      "outputs": [
        {
          "internalType": "string",
          "name": "",
          "type": "string"
        }
      ],
      "stateMutability": "view",
      "type": "function"
    },
    {
      "inputs": [
        {
          "internalType": "uint256",
          "name": "tokenId",
          "type": "uint256"
        }
      ],
      "name": "tokenURI",
      "outputs": [
        {
          "internalType": "string",
          "name": "",
          "type": "string"
        }
      ],
      "stateMutability": "view",
      "type": "function"
    },
    {
      "inputs": [
        {
          "internalType": "address",
          "name": "from",
          "type": "address"
        },
        {
          "internalType": "address",
          "name": "to",
          "type": "address"
        },
        {
          "internalType": "uint256",
          "name": "tokenId",
          "type": "uint256"
        }
      ],
      "name": "transferFrom",
      "outputs": [],
      "stateMutability": "nonpayable",
      "type": "function"
    },
    {
      "inputs": [
        {
          "internalType": "address",
          "name": "newOwner",
          "type": "address"
        }
      ],
      "name": "transferOwnership",
      "outputs": [],
      "stateMutability": "nonpayable",
      "type": "function"
    }
  ],
  "bytecode": "0x61016060405260146080818152600e60a052600c60c052600a60e0526008610100526006610120526005610140526200003b919060076200018d565b503480156200004957600080fd5b50604051806040016040528060098152602001684e4f4620416c70686160b81b815250604051806040016040528060048152602001634e4f464160e01b81525081600090816200009a9190620002e3565b506001620000a98282620002e3565b505050620000c6620000c0620000cc60201b60201c565b620000dd565b620003af565b6000620000d86200012f565b905090565b600780546001600160a01b038381166001600160a01b0319831681179093556040519116919082907f8be0079c531659141344cd1fd0a4f28419497f9722a3daafe3b4186f6b6457e090600090a35050565b60003033036200018757600080368080601f0160208091040260200160405190810160405280939291908181526020018383808284376000920191909152505050503601516001600160a01b031691506200018a9050565b50335b90565b600183019183908215620002155791602002820160005b83821115620001e457835183826101000a81548160ff021916908360ff1602179055509260200192600101602081600001049283019260010302620001a4565b8015620002135782816101000a81549060ff0219169055600101602081600001049283019260010302620001e4565b505b506200022392915062000227565b5090565b5b8082111562000223576000815560010162000228565b634e487b7160e01b600052604160045260246000fd5b600181811c908216806200026957607f821691505b6020821081036200028a57634e487b7160e01b600052602260045260246000fd5b50919050565b601f821115620002de57600081815260208120601f850160051c81016020861015620002b95750805b601f850160051c820191505b81811015620002da57828155600101620002c5565b5050505b505050565b81516001600160401b03811115620002ff57620002ff6200023e565b620003178162000310845462000254565b8462000290565b602080601f8311600181146200034f5760008415620003365750858301515b600019600386901b1c1916600185901b178555620002da565b600085815260208120601f198616915b8281101562000380578886015182559484019460019091019084016200035f565b50858210156200039f5787850151600019600388901b60f8161c191681555b5050505050600190811b01905550565b61445780620003bf6000396000f3fe608060405234801561001057600080fd5b50600436106102325760003560e01c80638477919b11610130578063b9181611116100b8578063e5db587a1161007c578063e5db587a14610513578063e606df871461051c578063e985e9c51461052f578063e9d43f7d14610542578063f2fde38b1461056257600080fd5b8063b9181611146104a4578063be20e5a9146104c7578063c1f3a3bb146104da578063c87b56dd146104ed578063d1811d021461050057600080fd5b806395d89b41116100ff57806395d89b41146104585780639abc832014610460578063a22cb46514610468578063b773d5c11461047b578063b88d4fde1461049157600080fd5b80638477919b146104015780638da5cb5b146104145780638dc107681461042557806395a4c5251461043857600080fd5b806355f804b3116101be57806370a082311161018257806370a0823114610384578063715018a6146103a557806371f72fa0146103ad578063787f0b05146103c057806383c73d81146103e157600080fd5b806355f804b31461032557806361c66c1614610338578063627b253f1461034b5780636352211e1461035e57806365545bc61461037157600080fd5b8063095ea7b311610205578063095ea7b3146102b457806323b872dd146102c7578063308f5987146102da57806341c2c10f146102ff57806342842e0e1461031257600080fd5b8063015db3961461023757806301ffc9a71461024c57806306fdde0314610274578063081812fc14610289575b600080fd5b61024a610245366004613798565b610575565b005b61025f61025a3660046137f4565b610cfe565b60405190151581526020015b60405180910390f35b61027c610d0f565b60405161026b9190613861565b61029c610297366004613874565b610da1565b6040516001600160a01b03909116815260200161026b565b61024a6102c23660046138a9565b610dc8565b61024a6102d53660046138d3565b610ef4565b6102ed6102e836600461390f565b610eff565b60405161026b96959493929190613965565b61024a61030d36600461399f565b610ffc565b61024a6103203660046138d3565b611808565b61024a6103333660046139c1565b611823565b61027c610346366004613874565b61183b565b60085461029c906001600160a01b031681565b61029c61036c366004613874565b6118e7565b61024a61037f366004613a03565b611947565b610397610392366004613a3a565b6119ef565b60405190815260200161026b565b61024a611a75565b61024a6103bb366004613a55565b611a89565b6103d36103ce3660046139c1565b611ae7565b60405161026b929190613ab2565b6103f46103ef3660046139c1565b611b97565b60405161026b9190613b06565b61024a61040f366004613b19565b611c0a565b6007546001600160a01b031661029c565b6102ed610433366004613874565b611df8565b61044b610446366004613bd7565b611e28565b60405161026b9190613c18565b61027c611ea5565b61027c611eb4565b61024a610476366004613a03565b611ec1565b610483611ed3565b60405161026b929190613c65565b61024a61049f366004613cdb565b612007565b61025f6104b2366004613a3a565b600e6020526000908152604090205460ff1681565b6103f46104d53660046139c1565b61218e565b61024a6104e8366004613a3a565b6121ff565b61027c6104fb366004613874565b612229565b61039761050e366004613874565b612234565b61039760115481565b60095461029c906001600160a01b031681565b61025f61053d366004613d4a565b612255565b610555610550366004613d7d565b6122b5565b60405161026b9190613dcf565b61024a610570366004613a3a565b612413565b600a816040516105859190613e6f565b9081526040805160209281900383019020336000908152600390910190925290205460ff16156105c857604051635327f26b60e01b815260040160405180910390fd5b600a816040516105d89190613e6f565b9081526040519081900360200190205482146106075760405163ad3973c160e01b815260040160405180910390fd5b6000606461061684604b613ea1565b6106209190613ece565b905080601160008282546106349190613ee2565b90915550506009546040516323b872dd60e01b8152336004820152306024820152604481018390526001600160a01b03909116906323b872dd906064016020604051808303816000875af1158015610690573d6000803e3d6000fd5b505050506040513d601f19601f820116820180604052508101906106b49190613ef5565b506009546008546001600160a01b03918216916323b872dd913391166106da8588613f12565b6040516001600160e01b031960e086901b1681526001600160a01b03938416600482015292909116602483015260448201526064016020604051808303816000875af115801561072e573d6000803e3d6000fd5b505050506040513d601f19601f820116820180604052508101906107529190613ef5565b506000600a836040516107659190613e6f565b9081526040805160209281900383018120600201544293820193909352016040516020818303038152906040528051906020012060001c6107a69190613f25565b90506000600a846040516107ba9190613e6f565b908152602001604051809103902060020182815481106107dc576107dc613f39565b90600052602060002001549050600a846040516107f99190613e6f565b90815260200160405180910390206002016001600a8660405161081c9190613e6f565b908152604051908190036020019020600201546108399190613f12565b8154811061084957610849613f39565b9060005260206000200154600a856040516108649190613e6f565b9081526020016040518091039020600201838154811061088657610886613f39565b9060005260206000200181905550600a846040516108a49190613e6f565b90815260200160405180910390206002018054806108c4576108c4613f4f565b600190038181906000526020600020016000905590556109fa33600a866040516108ee9190613e6f565b9081526020016040518091039020600401604051806040016040528060018152602001602f60f81b8152508473__$1bdba46fa44f06fa49315629a2a6224c43$__636900a3ae90916040518263ffffffff1660e01b815260040161095491815260200190565b600060405180830381865af4158015610971573d6000803e3d6000fd5b505050506040513d6000823e601f3d908101601f191682016040526109999190810190613f65565b60405180604001604052806005815260200164173539b7b760d91b8152506040516020016109ca949392919061407f565b60408051601f19818403018152919052600060016109e9600687613ece565b6109f39190613f12565b888661248c565b505060005b6005811015610cb8576000600a84604051610a1a9190613e6f565b9081526040805160209281900383018120600101544293820193909352016040516020818303038152906040528051906020012060001c610a5b9190613f25565b90506000600a85604051610a6f9190613e6f565b90815260200160405180910390206001018281548110610a9157610a91613f39565b90600052602060002001549050600a85604051610aae9190613e6f565b90815260200160405180910390206001016001600a87604051610ad19190613e6f565b90815260405190819003602001902060010154610aee9190613f12565b81548110610afe57610afe613f39565b9060005260206000200154600a86604051610b199190613e6f565b90815260200160405180910390206001018381548110610b3b57610b3b613f39565b9060005260206000200181905550600a85604051610b599190613e6f565b9081526020016040518091039020600101805480610b7957610b79613f4f565b60019003818190600052602060002001600090559055610ca333600a87604051610ba39190613e6f565b9081526020016040518091039020600401604051806040016040528060018152602001602f60f81b8152508473__$1bdba46fa44f06fa49315629a2a6224c43$__636900a3ae90916040518263ffffffff1660e01b8152600401610c0991815260200190565b600060405180830381865af4158015610c26573d6000803e3d6000fd5b505050506040513d6000823e601f3d908101601f19168201604052610c4e9190810190613f65565b60405180604001604052806005815260200164173539b7b760d91b815250604051602001610c7f949392919061407f565b60408051601f198184030181529190526001610c9c600686613ece565b898661248c565b50508080610cb0906140cc565b9150506109ff565b5081604051610cc79190613e6f565b6040519081900381209033907f55d44f7f091f0389b4dcb1b6ae002ed20fe8229c546e6aaf1ccac2646cdf514c90600090a3505050565b6000610d0982612599565b92915050565b606060008054610d1e90613fd2565b80601f0160208091040260200160405190810160405280929190818152602001828054610d4a90613fd2565b8015610d975780601f10610d6c57610100808354040283529160200191610d97565b820191906000526020600020905b815481529060010190602001808311610d7a57829003601f168201915b5050505050905090565b6000610dac826125be565b506000908152600460205260409020546001600160a01b031690565b6000610dd3826118e7565b9050806001600160a01b0316836001600160a01b031603610e455760405162461bcd60e51b815260206004820152602160248201527f4552433732313a20617070726f76616c20746f2063757272656e74206f776e656044820152603960f91b60648201526084015b60405180910390fd5b806001600160a01b0316610e5761261d565b6001600160a01b03161480610e735750610e738161053d61261d565b610ee55760405162461bcd60e51b815260206004820152603d60248201527f4552433732313a20617070726f76652063616c6c6572206973206e6f7420746f60448201527f6b656e206f776e6572206f7220617070726f76656420666f7220616c6c0000006064820152608401610e3c565b610eef838361262c565b505050565b610eef838383611808565b600d6020908152600084815260409020835180850183018051928152908301928501929092209152805482908110610f3657600080fd5b90600052602060002090600602016000925092505050806000015490806001015490806002015490806003018054610f6d90613fd2565b80601f0160208091040260200160405190810160405280929190818152602001828054610f9990613fd2565b8015610fe65780601f10610fbb57610100808354040283529160200191610fe6565b820191906000526020600020905b815481529060010190602001808311610fc957829003601f168201915b5050505050908060040154908060050154905086565b33611006836118e7565b6001600160a01b03161461102d576040516318fc232560e01b815260040160405180910390fd5b33611037826118e7565b6001600160a01b03161461105e5760405163364be83560e01b815260040160405180910390fd5b6000818152600b60205260409020600101541561108e5760405163d0286c2360e01b815260040160405180910390fd5b6000828152600b6020526040812060030180546110aa90613fd2565b80601f01602080910402602001604051908101604052809291908181526020018280546110d690613fd2565b80156111235780601f106110f857610100808354040283529160200191611123565b820191906000526020600020905b81548152906001019060200180831161110657829003601f168201915b5050505050905060005b336000908152600d602052604090819020905161114b908490613e6f565b9081526040519081900360200190205460ff82161015611391576000848152600b6020908152604080832060050154338452600d909252918290209151909190611196908590613e6f565b90815260200160405180910390208260ff16815481106111b8576111b8613f39565b9060005260206000209060060201600501540361137f57336000908152600d60205260409081902090516111ed908490613e6f565b90815260200160405180910390206001600d6000336001600160a01b03166001600160a01b03168152602001908152602001600020846040516112309190613e6f565b9081526040519081900360200190205461124a9190613f12565b8154811061125a5761125a613f39565b60009182526020808320338452600d90915260409283902092516006909202019190611287908590613e6f565b90815260200160405180910390208260ff16815481106112a9576112a9613f39565b9060005260206000209060060201600082015481600001556001820154816001015560028201548160020155600382018160030190816112e99190614133565b5060048281015490820155600591820154910155336000908152600d602052604090819020905161131b908490613e6f565b908152602001604051809103902080548061133857611338613f4f565b60008281526020812060066000199093019283020181815560018101829055600281018290559061136c600383018261367f565b5060006004820181905560059091015590555b806113898161420f565b91505061112d565b5061139b8361269a565b6000828152600b602052604081206004018054916113b8836140cc565b9091555050336000908152600d60209081526040808320868452600b90925291829020915190916113ee9160039091019061422e565b908152602001604051809103902060008154811061140e5761140e613f39565b60009182526020822060046006909202010180549161142c836140cc565b90915550506000828152600b6020526040902060040154600503610eef576000828152600b60205260408120600301805461146690613fd2565b80601f016020809104026020016040519081016040528092919081815260200182805461149290613fd2565b80156114df5780601f106114b4576101008083540402835291602001916114df565b820191906000526020600020905b8154815290600101906020018083116114c257829003601f168201915b505050505090506007600c826040516114f89190613e6f565b90815260405190819003602001902054101561169157600c8160405161151e9190613e6f565b908152604051908190036020908101822080546001818101835560009283529282200180546001600160a01b0319163317905591600a91601491600c90611566908790613e6f565b908152604051908190036020019020546115809190613f12565b6007811061159057611590613f39565b602091828204019190069054906101000a900460ff1660ff16600a846040516115b99190613e6f565b908152604051908190036020019020546115d39190613ea1565b6115dd9190613ece565b90506011548111156116025760405163090d760160e01b815260040160405180910390fd5b80601160008282546116149190613f12565b909155505060095460405163a9059cbb60e01b8152336004820152602481018390526001600160a01b039091169063a9059cbb906044016020604051808303816000875af115801561166a573d6000803e3d6000fd5b505050506040513d601f19601f8201168201806040525081019061168e9190613ef5565b50505b6117a483600a836040516116a59190613e6f565b908152604080519182900360209081018320838301835260018452602f60f81b848301526000898152600b9092529082902060050154915163348051d760e11b81526004918201939273__$1bdba46fa44f06fa49315629a2a6224c43$__92636900a3ae9261171992910190815260200190565b600060405180830381865af4158015611736573d6000803e3d6000fd5b505050506040513d6000823e601f3d908101601f1916820160405261175e9190810190613f65565b6040518060400160405280600681526020016523173539b7b760d11b815250604051602001611790949392919061407f565b6040516020818303038152906040526126a3565b600c816040516117b49190613e6f565b90815260405190819003602001812054906117d0908390613e6f565b6040519081900381209033907f953ec8b8176b9eb94e1561816a70bc231210aee5f1aaa59fdbad7915f9ad3c9690600090a450505050565b610eef83838360405180602001604052806000815250612007565b61182b61276e565b600f611837828261423a565b5050565b6010818154811061184b57600080fd5b90600052602060002001600091509050805461186690613fd2565b80601f016020809104026020016040519081016040528092919081815260200182805461189290613fd2565b80156118df5780601f106118b4576101008083540402835291602001916118df565b820191906000526020600020905b8154815290600101906020018083116118c257829003601f168201915b505050505081565b6000818152600260205260408120546001600160a01b031680610d095760405162461bcd60e51b8152602060048201526018602482015277115490cdcc8c4e881a5b9d985b1a59081d1bdad95b88125160421b6044820152606401610e3c565b61194f61276e565b6001600160a01b0382166000908152600e602052604090205481151560ff9091161515036119905760405163295d231d60e11b815260040160405180910390fd5b6001600160a01b0382166000818152600e6020908152604091829020805460ff191685151590811790915591519182527f4c0079b9bcd37cd5d29a13938effd97c881798cbc6bd52a3026a29d94b27d1bf910160405180910390a25050565b60006001600160a01b038216611a595760405162461bcd60e51b815260206004820152602960248201527f4552433732313a2061646472657373207a65726f206973206e6f7420612076616044820152683634b21037bbb732b960b91b6064820152608401610e3c565b506001600160a01b031660009081526003602052604090205490565b611a7d61276e565b611a8760006127e7565b565b611a9161276e565b600f611a9d848261423a565b50600980546001600160a01b039384166001600160a01b0319918216179091556008805492909316911617905550336000908152600e60205260409020805460ff19166001179055565b8051602081830181018051600a8252928201919093012091528054600482018054919291611b1490613fd2565b80601f0160208091040260200160405190810160405280929190818152602001828054611b4090613fd2565b8015611b8d5780601f10611b6257610100808354040283529160200191611b8d565b820191906000526020600020905b815481529060010190602001808311611b7057829003601f168201915b5050505050905082565b6060600a82604051611ba99190613e6f565b9081526040805191829003602090810183206001018054808302850183019093528284529190830182828015611bfe57602002820191906000526020600020905b815481526020019060010190808311611bea575b50505050509050919050565b336000908152600e602052604090205460ff16611c3a57604051630d87421760e11b815260040160405180910390fd5b655af3107a4000831015611c615760405163b04a217360e01b815260040160405180910390fd5b611c6c600683613f25565b15611c8a576040516307fb5d6d60e01b815260040160405180910390fd5b82600a85604051611c9b9190613e6f565b908152604051908190036020018120919091558190600a90611cbe908790613e6f565b90815260200160405180910390206004019081611cdb919061423a565b50601080546001810182556000919091527f1b6847dc741a1b0cd08d278845f9d819d87b734759afb55fe2de5cb82a9ae67201611d18858261423a565b5060138054600181810183556000929092527f66de8ffda797e3de9c05e8fc57b3bf0ec28a930d40b0d285d93c06501cf6a090018490555b828111611df157611d62600682613f25565b600003611da557600a85604051611d799190613e6f565b908152604051602091819003820190206002018054600181018255600091825291902001819055611ddf565b600a85604051611db59190613e6f565b90815260405160209181900382019020600190810180549182018155600090815291909120018190555b80611de9816140cc565b915050611d50565b5050505050565b600b60205260009081526040902080546001820154600283015460038401805493949293919291610f6d90613fd2565b6060600c8383604051611e3c9291906142f1565b9081526040805191829003602090810183208054808302850183019093528284529190830182828015611e9857602002820191906000526020600020905b81546001600160a01b03168152600190910190602001808311611e7a575b5050505050905092915050565b606060018054610d1e90613fd2565b600f805461186690613fd2565b611837611ecc61261d565b8383612839565b6060806010601381805480602002602001604051908101604052809291908181526020016000905b82821015611fa7578382906000526020600020018054611f1a90613fd2565b80601f0160208091040260200160405190810160405280929190818152602001828054611f4690613fd2565b8015611f935780601f10611f6857610100808354040283529160200191611f93565b820191906000526020600020905b815481529060010190602001808311611f7657829003601f168201915b505050505081526020019060010190611efb565b50505050915080805480602002602001604051908101604052809291908181526020018280548015611ff857602002820191906000526020600020905b815481526020019060010190808311611fe4575b50505050509050915091509091565b6000828152600b60205260408120600301805461202390613fd2565b80601f016020809104026020016040519081016040528092919081815260200182805461204f90613fd2565b801561209c5780601f106120715761010080835404028352916020019161209c565b820191906000526020600020905b81548152906001019060200180831161207f57829003601f168201915b505050505090506120ac8161218e565b51156120cb57604051631c5836a160e21b815260040160405180910390fd5b6000838152600b60205260409020600190810154900361214557600a816040516120f59190613e6f565b90815260408051602092819003830190206001600160a01b0387166000908152600390910190925290205460ff1661214057604051636341b66f60e11b815260040160405180910390fd5b612177565b6000838152600b60205260409020600401546005146121775760405163f959be5b60e01b815260040160405180910390fd5b612182858585612907565b611df185858585612ce1565b6060600a826040516121a09190613e6f565b9081526040805191829003602090810183206002018054808302850183019093528284529190830182828015611bfe5760200282019190600052602060002090815481526020019060010190808311611bea5750505050509050919050565b61220761276e565b600880546001600160a01b0319166001600160a01b0392909216919091179055565b6060610d0982612d66565b6013818154811061224457600080fd5b600091825260209091200154905081565b60007358807bad0b376efc12f5ad86aac70e78ed67dead196001600160a01b0383160161228457506001610d09565b6001600160a01b0380841660009081526005602090815260408083209386168352929052205460ff165b9392505050565b6001600160a01b0383166000908152600d6020526040908190209051606091906122e290859085906142f1565b9081526020016040518091039020805480602002602001604051908101604052809291908181526020016000905b8282101561240657838290600052602060002090600602016040518060c001604052908160008201548152602001600182015481526020016002820154815260200160038201805461236190613fd2565b80601f016020809104026020016040519081016040528092919081815260200182805461238d90613fd2565b80156123da5780601f106123af576101008083540402835291602001916123da565b820191906000526020600020905b8154815290600101906020018083116123bd57829003601f168201915b505050505081526020016004820154815260200160058201548152505081526020019060010190612310565b5050505090509392505050565b61241b61276e565b6001600160a01b0381166124805760405162461bcd60e51b815260206004820152602660248201527f4f776e61626c653a206e6577206f776e657220697320746865207a65726f206160448201526564647265737360d01b6064820152608401610e3c565b612489816127e7565b50565b601280549060019060006124a08385613ee2565b90915550506000818152600b6020526040902081815560018101869055600281018590556003016124d1848261423a565b506000818152600b602090815260408083206005018590556001600160a01b038a168352600d90915290819020905161250b908590613e6f565b90815260408051602092819003830190206000848152600b84529182208154600180820184559284529390922082546006909402019283558082015490830155600280820154908301559060038082019061256890840182614133565b50600482810154908201556005918201549101556125868782612e69565b61259081876126a3565b50505050505050565b60006001600160e01b03198216632483248360e11b1480610d095750610d0982613002565b6000818152600260205260409020546001600160a01b03166124895760405162461bcd60e51b8152602060048201526018602482015277115490cdcc8c4e881a5b9d985b1a59081d1bdad95b88125160421b6044820152606401610e3c565b6000612627613052565b905090565b600081815260046020526040902080546001600160a01b0319166001600160a01b0384169081179091558190612661826118e7565b6001600160a01b03167f8c5be1e5ebec7d5bd14f71427d1e84f3dd0314c0f7b2291e5b200ac8c7c3b92560405160405180910390a45050565b612489816130ae565b6000828152600260205260409020546001600160a01b031661271e5760405162461bcd60e51b815260206004820152602e60248201527f45524337323155524953746f726167653a2055524920736574206f66206e6f6e60448201526d32bc34b9ba32b73a103a37b5b2b760911b6064820152608401610e3c565b6000828152600660205260409020612736828261423a565b506040518281527ff8e1a15aba9398e019f0b49df1a4fde98ee17ae345cb5f6b5e2c27f5033e8ce79060200160405180910390a15050565b61277661261d565b6001600160a01b03166127916007546001600160a01b031690565b6001600160a01b031614611a875760405162461bcd60e51b815260206004820181905260248201527f4f776e61626c653a2063616c6c6572206973206e6f7420746865206f776e65726044820152606401610e3c565b600780546001600160a01b038381166001600160a01b0319831681179093556040519116919082907f8be0079c531659141344cd1fd0a4f28419497f9722a3daafe3b4186f6b6457e090600090a35050565b816001600160a01b0316836001600160a01b03160361289a5760405162461bcd60e51b815260206004820152601960248201527f4552433732313a20617070726f766520746f2063616c6c6572000000000000006044820152606401610e3c565b6001600160a01b03838116600081815260056020908152604080832094871680845294825291829020805460ff191686151590811790915591519182527f17307eab39ab6107e8899845ad3d59bd9653f200f220920489ca2b5937696c31910160405180910390a3505050565b6000818152600b60205260408120600301805461292390613fd2565b80601f016020809104026020016040519081016040528092919081815260200182805461294f90613fd2565b801561299c5780601f106129715761010080835404028352916020019161299c565b820191906000526020600020905b81548152906001019060200180831161297f57829003601f168201915b5050505050905060005b6001600160a01b0385166000908152600d60205260409081902090516129cd908490613e6f565b9081526040519081900360200190205460ff82161015612c42576000838152600b60209081526040808320600501546001600160a01b0389168452600d909252918290209151909190612a21908590613e6f565b90815260200160405180910390208260ff1681548110612a4357612a43613f39565b90600052602060002090600602016005015403612c30576001600160a01b0385166000908152600d6020526040908190209051612a81908490613e6f565b90815260200160405180910390206001600d6000886001600160a01b03166001600160a01b0316815260200190815260200160002084604051612ac49190613e6f565b90815260405190819003602001902054612ade9190613f12565b81548110612aee57612aee613f39565b9060005260206000209060060201600d6000876001600160a01b03166001600160a01b0316815260200190815260200160002083604051612b2f9190613e6f565b90815260200160405180910390208260ff1681548110612b5157612b51613f39565b906000526020600020906006020160008201548160000155600182015481600101556002820154816002015560038201816003019081612b919190614133565b50600482810154908201556005918201549101556001600160a01b0385166000908152600d6020526040908190209051612bcc908490613e6f565b9081526020016040518091039020805480612be957612be9613f4f565b600082815260208120600660001990930192830201818155600181018290556002810182905590612c1d600383018261367f565b5060006004820181905560059091015590555b80612c3a8161420f565b9150506129a6565b506001600160a01b0383166000908152600d6020526040908190209051612c6a908390613e6f565b90815260408051602092819003830190206000858152600b845291822081546001808201845592845293909220825460069094020192835580820154908301556002808201549083015590600380820190612cc790840182614133565b506004828101549082015560059182015491015550505050565b612cf2612cec61261d565b836130ee565b612d545760405162461bcd60e51b815260206004820152602d60248201527f4552433732313a2063616c6c6572206973206e6f7420746f6b656e206f776e6560448201526c1c881bdc88185c1c1c9bdd9959609a1b6064820152608401610e3c565b612d608484848461314c565b50505050565b6060612d71826125be565b60008281526006602052604081208054612d8a90613fd2565b80601f0160208091040260200160405190810160405280929190818152602001828054612db690613fd2565b8015612e035780601f10612dd857610100808354040283529160200191612e03565b820191906000526020600020905b815481529060010190602001808311612de657829003601f168201915b505050505090506000612e1461317f565b90508051600003612e26575092915050565b815115612e58578082604051602001612e40929190614301565b60405160208183030381529060405292505050919050565b612e618461318e565b949350505050565b6001600160a01b038216612ebf5760405162461bcd60e51b815260206004820181905260248201527f4552433732313a206d696e7420746f20746865207a65726f20616464726573736044820152606401610e3c565b6000818152600260205260409020546001600160a01b031615612f245760405162461bcd60e51b815260206004820152601c60248201527f4552433732313a20746f6b656e20616c7265616479206d696e746564000000006044820152606401610e3c565b612f326000838360016131f4565b6000818152600260205260409020546001600160a01b031615612f975760405162461bcd60e51b815260206004820152601c60248201527f4552433732313a20746f6b656e20616c7265616479206d696e746564000000006044820152606401610e3c565b6001600160a01b038216600081815260036020908152604080832080546001019055848352600290915280822080546001600160a01b0319168417905551839291907fddf252ad1be2c89b69c2b068fc378daa952ba7f163c4a11628f55a4df523b3ef908290a45050565b60006001600160e01b031982166380ac58cd60e01b148061303357506001600160e01b03198216635b5e139f60e01b145b80610d0957506301ffc9a760e01b6001600160e01b0319831614610d09565b60003033036130a857600080368080601f0160208091040260200160405190810160405280939291908181526020018383808284376000920191909152505050503601516001600160a01b031691506130ab9050565b50335b90565b6130b7816131f9565b600081815260066020526040902080546130d090613fd2565b1590506124895760008181526006602052604081206124899161367f565b6000806130fa836118e7565b9050806001600160a01b0316846001600160a01b0316148061312157506131218185612255565b80612e615750836001600160a01b031661313a84610da1565b6001600160a01b031614949350505050565b61315784848461329c565b6131638484848461340d565b612d605760405162461bcd60e51b8152600401610e3c90614330565b6060600f8054610d1e90613fd2565b6060613199826125be565b60006131a361317f565b905060008151116131c357604051806020016040528060008152506122ae565b806131cd84613515565b6040516020016131de929190614301565b6040516020818303038152906040529392505050565b612d60565b6000613204826118e7565b90506132148160008460016131f4565b61321d826118e7565b600083815260046020908152604080832080546001600160a01b03199081169091556001600160a01b0385168085526003845282852080546000190190558785526002909352818420805490911690555192935084927fddf252ad1be2c89b69c2b068fc378daa952ba7f163c4a11628f55a4df523b3ef908390a45050565b826001600160a01b03166132af826118e7565b6001600160a01b0316146132d55760405162461bcd60e51b8152600401610e3c90614382565b6001600160a01b0382166133375760405162461bcd60e51b8152602060048201526024808201527f4552433732313a207472616e7366657220746f20746865207a65726f206164646044820152637265737360e01b6064820152608401610e3c565b61334483838360016131f4565b826001600160a01b0316613357826118e7565b6001600160a01b03161461337d5760405162461bcd60e51b8152600401610e3c90614382565b600081815260046020908152604080832080546001600160a01b03199081169091556001600160a01b0387811680865260038552838620805460001901905590871680865283862080546001019055868652600290945282852080549092168417909155905184937fddf252ad1be2c89b69c2b068fc378daa952ba7f163c4a11628f55a4df523b3ef91a4505050565b60006001600160a01b0384163b1561350a57836001600160a01b031663150b7a0261343661261d565b8786866040518563ffffffff1660e01b815260040161345894939291906143c7565b6020604051808303816000875af1925050508015613493575060408051601f3d908101601f1916820190925261349091810190614404565b60015b6134f0573d8080156134c1576040519150601f19603f3d011682016040523d82523d6000602084013e6134c6565b606091505b5080516000036134e85760405162461bcd60e51b8152600401610e3c90614330565b805181602001fd5b6001600160e01b031916630a85bd0160e11b149050612e61565b506001949350505050565b60606000613522836135a7565b60010190506000816001600160401b03811115613541576135416136cd565b6040519080825280601f01601f19166020018201604052801561356b576020820181803683370190505b5090508181016020015b600019016f181899199a1a9b1b9c1cb0b131b232b360811b600a86061a8153600a850494508461357557509392505050565b60008072184f03e93ff9f4daa797ed6e38ed64bf6a1f0160401b83106135e65772184f03e93ff9f4daa797ed6e38ed64bf6a1f0160401b830492506040015b6d04ee2d6d415b85acef81000000008310613612576d04ee2d6d415b85acef8100000000830492506020015b662386f26fc10000831061363057662386f26fc10000830492506010015b6305f5e1008310613648576305f5e100830492506008015b612710831061365c57612710830492506004015b6064831061366e576064830492506002015b600a8310610d095760010192915050565b50805461368b90613fd2565b6000825580601f1061369b575050565b601f01602090049060005260206000209081019061248991905b808211156136c957600081556001016136b5565b5090565b634e487b7160e01b600052604160045260246000fd5b604051601f8201601f191681016001600160401b038111828210171561370b5761370b6136cd565b604052919050565b60006001600160401b0382111561372c5761372c6136cd565b50601f01601f191660200190565b600061374d61374884613713565b6136e3565b905082815283838301111561376157600080fd5b828260208301376000602084830101529392505050565b600082601f83011261378957600080fd5b6122ae8383356020850161373a565b600080604083850312156137ab57600080fd5b8235915060208301356001600160401b038111156137c857600080fd5b6137d485828601613778565b9150509250929050565b6001600160e01b03198116811461248957600080fd5b60006020828403121561380657600080fd5b81356122ae816137de565b60005b8381101561382c578181015183820152602001613814565b50506000910152565b6000815180845261384d816020860160208601613811565b601f01601f19169290920160200192915050565b6020815260006122ae6020830184613835565b60006020828403121561388657600080fd5b5035919050565b80356001600160a01b03811681146138a457600080fd5b919050565b600080604083850312156138bc57600080fd5b6138c58361388d565b946020939093013593505050565b6000806000606084860312156138e857600080fd5b6138f18461388d565b92506138ff6020850161388d565b9150604084013590509250925092565b60008060006060848603121561392457600080fd5b61392d8461388d565b925060208401356001600160401b0381111561394857600080fd5b61395486828701613778565b925050604084013590509250925092565b86815285602082015284604082015260c06060820152600061398a60c0830186613835565b60808301949094525060a00152949350505050565b600080604083850312156139b257600080fd5b50508035926020909101359150565b6000602082840312156139d357600080fd5b81356001600160401b038111156139e957600080fd5b612e6184828501613778565b801515811461248957600080fd5b60008060408385031215613a1657600080fd5b613a1f8361388d565b91506020830135613a2f816139f5565b809150509250929050565b600060208284031215613a4c57600080fd5b6122ae8261388d565b600080600060608486031215613a6a57600080fd5b83356001600160401b03811115613a8057600080fd5b613a8c86828701613778565b935050613a9b6020850161388d565b9150613aa96040850161388d565b90509250925092565b828152604060208201526000612e616040830184613835565b600081518084526020808501945080840160005b83811015613afb57815187529582019590820190600101613adf565b509495945050505050565b6020815260006122ae6020830184613acb565b60008060008060808587031215613b2f57600080fd5b84356001600160401b0380821115613b4657600080fd5b613b5288838901613778565b955060208701359450604087013593506060870135915080821115613b7657600080fd5b50613b8387828801613778565b91505092959194509250565b60008083601f840112613ba157600080fd5b5081356001600160401b03811115613bb857600080fd5b602083019150836020828501011115613bd057600080fd5b9250929050565b60008060208385031215613bea57600080fd5b82356001600160401b03811115613c0057600080fd5b613c0c85828601613b8f565b90969095509350505050565b6020808252825182820181905260009190848201906040850190845b81811015613c595783516001600160a01b031683529284019291840191600101613c34565b50909695505050505050565b6000604082016040835280855180835260608501915060608160051b8601019250602080880160005b83811015613cbc57605f19888703018552613caa868351613835565b95509382019390820190600101613c8e565b505085840381870152505050613cd28185613acb565b95945050505050565b60008060008060808587031215613cf157600080fd5b613cfa8561388d565b9350613d086020860161388d565b92506040850135915060608501356001600160401b03811115613d2a57600080fd5b8501601f81018713613d3b57600080fd5b613b838782356020840161373a565b60008060408385031215613d5d57600080fd5b613d668361388d565b9150613d746020840161388d565b90509250929050565b600080600060408486031215613d9257600080fd5b613d9b8461388d565b925060208401356001600160401b03811115613db657600080fd5b613dc286828701613b8f565b9497909650939450505050565b60006020808301818452808551808352604092508286019150828160051b87010184880160005b83811015613e6157603f19898403018552815160c081518552888201518986015287820151888601526060808301518282880152613e3683880182613835565b6080858101519089015260a09485015194909701939093525050509386019390860190600101613df6565b509098975050505050505050565b60008251613e81818460208701613811565b9190910192915050565b634e487b7160e01b600052601160045260246000fd5b8082028115828204841417610d0957610d09613e8b565b634e487b7160e01b600052601260045260246000fd5b600082613edd57613edd613eb8565b500490565b80820180821115610d0957610d09613e8b565b600060208284031215613f0757600080fd5b81516122ae816139f5565b81810381811115610d0957610d09613e8b565b600082613f3457613f34613eb8565b500690565b634e487b7160e01b600052603260045260246000fd5b634e487b7160e01b600052603160045260246000fd5b600060208284031215613f7757600080fd5b81516001600160401b03811115613f8d57600080fd5b8201601f81018413613f9e57600080fd5b8051613fac61374882613713565b818152856020838501011115613fc157600080fd5b613cd2826020830160208601613811565b600181811c90821680613fe657607f821691505b60208210810361400657634e487b7160e01b600052602260045260246000fd5b50919050565b6000815461401981613fd2565b60018281168015614031576001811461404657614075565b60ff1984168752821515830287019450614075565b8560005260208060002060005b8581101561406c5781548a820152908401908201614053565b50505082870194505b5050505092915050565b600061408b828761400c565b855161409b818360208a01613811565b85519101906140ae818360208901613811565b84519101906140c1818360208801613811565b019695505050505050565b6000600182016140de576140de613e8b565b5060010190565b601f821115610eef57600081815260208120601f850160051c8101602086101561410c5750805b601f850160051c820191505b8181101561412b57828155600101614118565b505050505050565b81810361413e575050565b6141488254613fd2565b6001600160401b0381111561415f5761415f6136cd565b6141738161416d8454613fd2565b846140e5565b6000601f8211600181146141a7576000831561418f5750848201545b600019600385901b1c1916600184901b178455611df1565b600085815260209020601f19841690600086815260209020845b838110156141e157828601548255600195860195909101906020016141c1565b50858310156141ff5781850154600019600388901b60f8161c191681555b5050505050600190811b01905550565b600060ff821660ff810361422557614225613e8b565b60010192915050565b60006122ae828461400c565b81516001600160401b03811115614253576142536136cd565b6142618161416d8454613fd2565b602080601f831160018114614296576000841561427e5750858301515b600019600386901b1c1916600185901b17855561412b565b600085815260208120601f198616915b828110156142c5578886015182559484019460019091019084016142a6565b50858210156141ff57939096015160001960f8600387901b161c19169092555050600190811b01905550565b8183823760009101908152919050565b60008351614313818460208801613811565b835190830190614327818360208801613811565b01949350505050565b60208082526032908201527f4552433732313a207472616e7366657220746f206e6f6e20455243373231526560408201527131b2b4bb32b91034b6b83632b6b2b73a32b960711b606082015260800190565b60208082526025908201527f4552433732313a207472616e736665722066726f6d20696e636f72726563742060408201526437bbb732b960d91b606082015260800190565b6001600160a01b03858116825284166020820152604081018390526080606082018190526000906143fa90830184613835565b9695505050505050565b60006020828403121561441657600080fd5b81516122ae816137de56fea2646970667358221220d4ec0bd1d596200f4cc20a85eb6892b0bde45f5a6bb1cd69a94329a89f053e5464736f6c63430008140033",
  "linkReferences": {
    "contracts/libs/LibStringUtils.sol": {
      "LibStringUtils": [
        {
          "length": 20,
          "start": 3291
        },
        {
          "length": 20,
          "start": 3984
        },
        {
          "length": 20,
          "start": 6831
        }
      ]
    }
  },
  "deployedLinkReferences": {
    "contracts/libs/LibStringUtils.sol": {
      "LibStringUtils": [
        {
          "length": 20,
          "start": 2332
        },
        {
          "length": 20,
          "start": 3025
        },
        {
          "length": 20,
          "start": 5872
        }
      ]
    }
  }
}