{
  "_format": "hh-sol-artifact-1",
  "contractName": "NofAlphaV3",
  "sourceName": "contracts/alpha/Alpha.v3.sol",
  "abi": [
    {
      "inputs": [],
      "stateMutability": "nonpayable",
      "type": "constructor"
    },
    {
      "inputs": [],
      "name": "Alpha_AlbumNotCompleted",
      "type": "error"
    },
    {
      "inputs": [],
      "name": "Alpha_AlreadyHaveAPack",
      "type": "error"
    },
    {
      "inputs": [],
      "name": "Alpha_AmountMustBeMultipleOf6",
      "type": "error"
    },
    {
      "inputs": [],
      "name": "Alpha_CardIsNotAnAlbum",
      "type": "error"
    },
    {
      "inputs": [],
      "name": "Alpha_NotCorrectPriceForPack",
      "type": "error"
    },
    {
      "inputs": [],
      "name": "Alpha_NotEnoughPrizeBalance",
      "type": "error"
    },
    {
      "inputs": [],
      "name": "Alpha_NotPlayingThisSeason",
      "type": "error"
    },
    {
      "inputs": [],
      "name": "Alpha_NotYourAlbum",
      "type": "error"
    },
    {
      "inputs": [],
      "name": "Alpha_NotYourCard",
      "type": "error"
    },
    {
      "inputs": [],
      "name": "Alpha_PriceTooLow",
      "type": "error"
    },
    {
      "inputs": [],
      "name": "Alpha_StillAlbumsAvailable",
      "type": "error"
    },
    {
      "anonymous": false,
      "inputs": [
        {
          "indexed": true,
          "internalType": "address",
          "name": "owner",
          "type": "address"
        },
        {
          "indexed": true,
          "internalType": "address",
          "name": "approved",
          "type": "address"
        },
        {
          "indexed": true,
          "internalType": "uint256",
          "name": "tokenId",
          "type": "uint256"
        }
      ],
      "name": "Approval",
      "type": "event"
    },
    {
      "anonymous": false,
      "inputs": [
        {
          "indexed": true,
          "internalType": "address",
          "name": "owner",
          "type": "address"
        },
        {
          "indexed": true,
          "internalType": "address",
          "name": "operator",
          "type": "address"
        },
        {
          "indexed": false,
          "internalType": "bool",
          "name": "approved",
          "type": "bool"
        }
      ],
      "name": "ApprovalForAll",
      "type": "event"
    },
    {
      "anonymous": false,
      "inputs": [
        {
          "indexed": false,
          "internalType": "uint256",
          "name": "_fromTokenId",
          "type": "uint256"
        },
        {
          "indexed": false,
          "internalType": "uint256",
          "name": "_toTokenId",
          "type": "uint256"
        }
      ],
      "name": "BatchMetadataUpdate",
      "type": "event"
    },
    {
      "anonymous": false,
      "inputs": [
        {
          "indexed": false,
          "internalType": "address",
          "name": "buyer",
          "type": "address"
        },
        {
          "indexed": false,
          "internalType": "string",
          "name": "seasonName",
          "type": "string"
        }
      ],
      "name": "BuyPack",
      "type": "event"
    },
    {
      "anonymous": false,
      "inputs": [
        {
          "indexed": false,
          "internalType": "uint256",
          "name": "_tokenId",
          "type": "uint256"
        }
      ],
      "name": "MetadataUpdate",
      "type": "event"
    },
    {
      "anonymous": false,
      "inputs": [
        {
          "indexed": true,
          "internalType": "address",
          "name": "previousOwner",
          "type": "address"
        },
        {
          "indexed": true,
          "internalType": "address",
          "name": "newOwner",
          "type": "address"
        }
      ],
      "name": "OwnershipTransferred",
      "type": "event"
    },
    {
      "anonymous": false,
      "inputs": [
        {
          "indexed": true,
          "internalType": "address",
          "name": "from",
          "type": "address"
        },
        {
          "indexed": true,
          "internalType": "address",
          "name": "to",
          "type": "address"
        },
        {
          "indexed": true,
          "internalType": "uint256",
          "name": "tokenId",
          "type": "uint256"
        }
      ],
      "name": "Transfer",
      "type": "event"
    },
    {
      "anonymous": false,
      "inputs": [
        {
          "indexed": false,
          "internalType": "address",
          "name": "winner",
          "type": "address"
        },
        {
          "indexed": false,
          "internalType": "string",
          "name": "season",
          "type": "string"
        },
        {
          "indexed": false,
          "internalType": "uint256",
          "name": "position",
          "type": "uint256"
        }
      ],
      "name": "Winner",
      "type": "event"
    },
    {
      "inputs": [],
      "name": "DAI_TOKEN",
      "outputs": [
        {
          "internalType": "address",
          "name": "",
          "type": "address"
        }
      ],
      "stateMutability": "view",
      "type": "function"
    },
    {
      "inputs": [
        {
          "internalType": "address",
          "name": "to",
          "type": "address"
        },
        {
          "internalType": "uint256",
          "name": "tokenId",
          "type": "uint256"
        }
      ],
      "name": "approve",
      "outputs": [],
      "stateMutability": "nonpayable",
      "type": "function"
    },
    {
      "inputs": [
        {
          "internalType": "address",
          "name": "owner",
          "type": "address"
        }
      ],
      "name": "balanceOf",
      "outputs": [
        {
          "internalType": "uint256",
          "name": "",
          "type": "uint256"
        }
      ],
      "stateMutability": "view",
      "type": "function"
    },
    {
      "inputs": [],
      "name": "balanceReceiver",
      "outputs": [
        {
          "internalType": "address",
          "name": "",
          "type": "address"
        }
      ],
      "stateMutability": "view",
      "type": "function"
    },
    {
      "inputs": [],
      "name": "baseUri",
      "outputs": [
        {
          "internalType": "string",
          "name": "",
          "type": "string"
        }
      ],
      "stateMutability": "view",
      "type": "function"
    },
    {
      "inputs": [
        {
          "internalType": "uint256",
          "name": "_amount",
          "type": "uint256"
        },
        {
          "internalType": "string",
          "name": "_name",
          "type": "string"
        }
      ],
      "name": "buyPack",
      "outputs": [],
      "stateMutability": "nonpayable",
      "type": "function"
    },
    {
      "inputs": [
        {
          "internalType": "uint256",
          "name": "",
          "type": "uint256"
        }
      ],
      "name": "cards",
      "outputs": [
        {
          "internalType": "uint256",
          "name": "tokenId",
          "type": "uint256"
        },
        {
          "internalType": "uint256",
          "name": "class",
          "type": "uint256"
        },
        {
          "internalType": "uint256",
          "name": "collection",
          "type": "uint256"
        },
        {
          "internalType": "string",
          "name": "season",
          "type": "string"
        },
        {
          "internalType": "uint256",
          "name": "completion",
          "type": "uint256"
        },
        {
          "internalType": "uint256",
          "name": "number",
          "type": "uint256"
        }
      ],
      "stateMutability": "view",
      "type": "function"
    },
    {
      "inputs": [
        {
          "internalType": "address",
          "name": "",
          "type": "address"
        },
        {
          "internalType": "string",
          "name": "",
          "type": "string"
        },
        {
          "internalType": "uint256",
          "name": "",
          "type": "uint256"
        }
      ],
      "name": "cardsByUserBySeason",
      "outputs": [
        {
          "internalType": "uint256",
          "name": "tokenId",
          "type": "uint256"
        },
        {
          "internalType": "uint256",
          "name": "class",
          "type": "uint256"
        },
        {
          "internalType": "uint256",
          "name": "collection",
          "type": "uint256"
        },
        {
          "internalType": "string",
          "name": "season",
          "type": "string"
        },
        {
          "internalType": "uint256",
          "name": "completion",
          "type": "uint256"
        },
        {
          "internalType": "uint256",
          "name": "number",
          "type": "uint256"
        }
      ],
      "stateMutability": "view",
      "type": "function"
    },
    {
      "inputs": [
        {
          "internalType": "uint256",
          "name": "tokenId",
          "type": "uint256"
        }
      ],
      "name": "getApproved",
      "outputs": [
        {
          "internalType": "address",
          "name": "",
          "type": "address"
        }
      ],
      "stateMutability": "view",
      "type": "function"
    },
    {
      "inputs": [
        {
          "internalType": "address",
          "name": "_user",
          "type": "address"
        },
        {
          "internalType": "string",
          "name": "_seasonName",
          "type": "string"
        }
      ],
      "name": "getCardsByUserBySeason",
      "outputs": [
        {
          "components": [
            {
              "internalType": "uint256",
              "name": "tokenId",
              "type": "uint256"
            },
            {
              "internalType": "uint256",
              "name": "class",
              "type": "uint256"
            },
            {
              "internalType": "uint256",
              "name": "collection",
              "type": "uint256"
            },
            {
              "internalType": "string",
              "name": "season",
              "type": "string"
            },
            {
              "internalType": "uint256",
              "name": "completion",
              "type": "uint256"
            },
            {
              "internalType": "uint256",
              "name": "number",
              "type": "uint256"
            }
          ],
          "internalType": "struct NofAlphaV3.Card[]",
          "name": "",
          "type": "tuple[]"
        }
      ],
      "stateMutability": "view",
      "type": "function"
    },
    {
      "inputs": [
        {
          "internalType": "string",
          "name": "_name",
          "type": "string"
        }
      ],
      "name": "getSeasonAlbums",
      "outputs": [
        {
          "internalType": "uint256[]",
          "name": "",
          "type": "uint256[]"
        }
      ],
      "stateMutability": "view",
      "type": "function"
    },
    {
      "inputs": [
        {
          "internalType": "string",
          "name": "_name",
          "type": "string"
        }
      ],
      "name": "getSeasonCards",
      "outputs": [
        {
          "internalType": "uint256[]",
          "name": "",
          "type": "uint256[]"
        }
      ],
      "stateMutability": "view",
      "type": "function"
    },
    {
      "inputs": [],
      "name": "getSeasonData",
      "outputs": [
        {
          "internalType": "string[]",
          "name": "",
          "type": "string[]"
        },
        {
          "internalType": "uint256[]",
          "name": "",
          "type": "uint256[]"
        }
      ],
      "stateMutability": "view",
      "type": "function"
    },
    {
      "inputs": [
        {
          "internalType": "string",
          "name": "_seasonName",
          "type": "string"
        }
      ],
      "name": "getWinners",
      "outputs": [
        {
          "internalType": "address[]",
          "name": "",
          "type": "address[]"
        }
      ],
      "stateMutability": "view",
      "type": "function"
    },
    {
      "inputs": [
        {
          "internalType": "string",
          "name": "__baseUri",
          "type": "string"
        },
        {
          "internalType": "address",
          "name": "_daiTokenAddress",
          "type": "address"
        },
        {
          "internalType": "address",
          "name": "_balanceReceiver",
          "type": "address"
        }
      ],
      "name": "init",
      "outputs": [],
      "stateMutability": "nonpayable",
      "type": "function"
    },
    {
      "inputs": [
        {
          "internalType": "address",
          "name": "_owner",
          "type": "address"
        },
        {
          "internalType": "address",
          "name": "_operator",
          "type": "address"
        }
      ],
      "name": "isApprovedForAll",
      "outputs": [
        {
          "internalType": "bool",
          "name": "isOperator",
          "type": "bool"
        }
      ],
      "stateMutability": "view",
      "type": "function"
    },
    {
      "inputs": [],
      "name": "name",
      "outputs": [
        {
          "internalType": "string",
          "name": "",
          "type": "string"
        }
      ],
      "stateMutability": "view",
      "type": "function"
    },
    {
      "inputs": [
        {
          "internalType": "string",
          "name": "_name",
          "type": "string"
        },
        {
          "internalType": "uint256",
          "name": "_price",
          "type": "uint256"
        },
        {
          "internalType": "uint256",
          "name": "_amount",
          "type": "uint256"
        },
        {
          "internalType": "string",
          "name": "_folder",
          "type": "string"
        }
      ],
      "name": "newSeason",
      "outputs": [],
      "stateMutability": "nonpayable",
      "type": "function"
    },
    {
      "inputs": [],
      "name": "owner",
      "outputs": [
        {
          "internalType": "address",
          "name": "",
          "type": "address"
        }
      ],
      "stateMutability": "view",
      "type": "function"
    },
    {
      "inputs": [
        {
          "internalType": "uint256",
          "name": "tokenId",
          "type": "uint256"
        }
      ],
      "name": "ownerOf",
      "outputs": [
        {
          "internalType": "address",
          "name": "",
          "type": "address"
        }
      ],
      "stateMutability": "view",
      "type": "function"
    },
    {
      "inputs": [
        {
          "internalType": "uint256",
          "name": "card",
          "type": "uint256"
        },
        {
          "internalType": "uint256",
          "name": "album",
          "type": "uint256"
        }
      ],
      "name": "pasteCards",
      "outputs": [],
      "stateMutability": "nonpayable",
      "type": "function"
    },
    {
      "inputs": [],
      "name": "prizesBalance",
      "outputs": [
        {
          "internalType": "uint256",
          "name": "",
          "type": "uint256"
        }
      ],
      "stateMutability": "view",
      "type": "function"
    },
    {
      "inputs": [],
      "name": "renounceOwnership",
      "outputs": [],
      "stateMutability": "nonpayable",
      "type": "function"
    },
    {
      "inputs": [
        {
          "internalType": "address",
          "name": "from",
          "type": "address"
        },
        {
          "internalType": "address",
          "name": "to",
          "type": "address"
        },
        {
          "internalType": "uint256",
          "name": "tokenId",
          "type": "uint256"
        }
      ],
      "name": "safeTransferFrom",
      "outputs": [],
      "stateMutability": "nonpayable",
      "type": "function"
    },
    {
      "inputs": [
        {
          "internalType": "address",
          "name": "_from",
          "type": "address"
        },
        {
          "internalType": "address",
          "name": "_to",
          "type": "address"
        },
        {
          "internalType": "uint256",
          "name": "_tokenId",
          "type": "uint256"
        },
        {
          "internalType": "bytes",
          "name": "_data",
          "type": "bytes"
        }
      ],
      "name": "safeTransferFrom",
      "outputs": [],
      "stateMutability": "nonpayable",
      "type": "function"
    },
    {
      "inputs": [
        {
          "internalType": "uint256",
          "name": "",
          "type": "uint256"
        }
      ],
      "name": "seasonNames",
      "outputs": [
        {
          "internalType": "string",
          "name": "",
          "type": "string"
        }
      ],
      "stateMutability": "view",
      "type": "function"
    },
    {
      "inputs": [
        {
          "internalType": "uint256",
          "name": "",
          "type": "uint256"
        }
      ],
      "name": "seasonPrices",
      "outputs": [
        {
          "internalType": "uint256",
          "name": "",
          "type": "uint256"
        }
      ],
      "stateMutability": "view",
      "type": "function"
    },
    {
      "inputs": [
        {
          "internalType": "string",
          "name": "",
          "type": "string"
        }
      ],
      "name": "seasons",
      "outputs": [
        {
          "internalType": "uint256",
          "name": "price",
          "type": "uint256"
        },
        {
          "internalType": "string",
          "name": "folder",
          "type": "string"
        }
      ],
      "stateMutability": "view",
      "type": "function"
    },
    {
      "inputs": [
        {
          "internalType": "address",
          "name": "operator",
          "type": "address"
        },
        {
          "internalType": "bool",
          "name": "approved",
          "type": "bool"
        }
      ],
      "name": "setApprovalForAll",
      "outputs": [],
      "stateMutability": "nonpayable",
      "type": "function"
    },
    {
      "inputs": [
        {
          "internalType": "address",
          "name": "_newBalanceReceiver",
          "type": "address"
        }
      ],
      "name": "setBalanceReceiver",
      "outputs": [],
      "stateMutability": "nonpayable",
      "type": "function"
    },
    {
      "inputs": [
        {
          "internalType": "string",
          "name": "__baseURI",
          "type": "string"
        }
      ],
      "name": "setBaseURI",
      "outputs": [],
      "stateMutability": "nonpayable",
      "type": "function"
    },
    {
      "inputs": [
        {
          "internalType": "bytes4",
          "name": "interfaceId",
          "type": "bytes4"
        }
      ],
      "name": "supportsInterface",
      "outputs": [
        {
          "internalType": "bool",
          "name": "",
          "type": "bool"
        }
      ],
      "stateMutability": "view",
      "type": "function"
    },
    {
      "inputs": [],
      "name": "symbol",
      "outputs": [
        {
          "internalType": "string",
          "name": "",
          "type": "string"
        }
      ],
      "stateMutability": "view",
      "type": "function"
    },
    {
      "inputs": [
        {
          "internalType": "uint256",
          "name": "tokenId",
          "type": "uint256"
        }
      ],
      "name": "tokenURI",
      "outputs": [
        {
          "internalType": "string",
          "name": "",
          "type": "string"
        }
      ],
      "stateMutability": "view",
      "type": "function"
    },
    {
      "inputs": [
        {
          "internalType": "address",
          "name": "from",
          "type": "address"
        },
        {
          "internalType": "address",
          "name": "to",
          "type": "address"
        },
        {
          "internalType": "uint256",
          "name": "tokenId",
          "type": "uint256"
        }
      ],
      "name": "transferFrom",
      "outputs": [],
      "stateMutability": "nonpayable",
      "type": "function"
    },
    {
      "inputs": [
        {
          "internalType": "address",
          "name": "newOwner",
          "type": "address"
        }
      ],
      "name": "transferOwnership",
      "outputs": [],
      "stateMutability": "nonpayable",
      "type": "function"
    }
  ],
  "bytecode": "0x61016060405260146080908152600e60a052600c60c052600a60e0526008610100526006610120526005610140526200003d90600f9060076200018f565b503480156200004b57600080fd5b50604051806040016040528060098152602001684e4f4620416c70686160b81b815250604051806040016040528060048152602001634e4f464160e01b81525081600090816200009c9190620002e5565b506001620000ab8282620002e5565b505050620000c8620000c2620000ce60201b60201c565b620000df565b620003b1565b6000620000da62000131565b905090565b600780546001600160a01b038381166001600160a01b0319831681179093556040519116919082907f8be0079c531659141344cd1fd0a4f28419497f9722a3daafe3b4186f6b6457e090600090a35050565b60003033036200018957600080368080601f0160208091040260200160405190810160405280939291908181526020018383808284376000920191909152505050503601516001600160a01b031691506200018c9050565b50335b90565b600183019183908215620002175791602002820160005b83821115620001e657835183826101000a81548160ff021916908360ff1602179055509260200192600101602081600001049283019260010302620001a6565b8015620002155782816101000a81549060ff0219169055600101602081600001049283019260010302620001e6565b505b506200022592915062000229565b5090565b5b808211156200022557600081556001016200022a565b634e487b7160e01b600052604160045260246000fd5b600181811c908216806200026b57607f821691505b6020821081036200028c57634e487b7160e01b600052602260045260246000fd5b50919050565b601f821115620002e057600081815260208120601f850160051c81016020861015620002bb5750805b601f850160051c820191505b81811015620002dc57828155600101620002c7565b5050505b505050565b81516001600160401b0381111562000301576200030162000240565b620003198162000312845462000256565b8462000292565b602080601f831160018114620003515760008415620003385750858301515b600019600386901b1c1916600185901b178555620002dc565b600085815260208120601f198616915b82811015620003825788860151825594840194600190910190840162000361565b5085821015620003a15787850151600019600388901b60f8161c191681555b5050505050600190811b01905550565b61436a80620003c16000396000f3fe608060405234801561001057600080fd5b506004361061021c5760003560e01c80638477919b11610125578063be20e5a9116100ad578063e5db587a1161007c578063e5db587a146104c7578063e606df87146104d0578063e985e9c5146104e3578063e9d43f7d146104f6578063f2fde38b1461051657600080fd5b8063be20e5a91461047b578063c1f3a3bb1461048e578063c87b56dd146104a1578063d1811d02146104b457600080fd5b806395d89b41116100f457806395d89b411461042f5780639abc832014610437578063a22cb4651461043f578063b773d5c114610452578063b88d4fde1461046857600080fd5b80638477919b146103d85780638da5cb5b146103eb5780638dc10768146103fc57806395a4c5251461040f57600080fd5b806355f804b3116101a857806370a082311161017757806370a082311461035b578063715018a61461037c57806371f72fa014610384578063787f0b051461039757806383c73d81146103b857600080fd5b806355f804b31461030f57806361c66c1614610322578063627b253f146103355780636352211e1461034857600080fd5b8063095ea7b3116101ef578063095ea7b31461029e57806323b872dd146102b1578063308f5987146102c457806341c2c10f146102e957806342842e0e146102fc57600080fd5b8063015db3961461022157806301ffc9a71461023657806306fdde031461025e578063081812fc14610273575b600080fd5b61023461022f366004613653565b610529565b005b6102496102443660046136af565b610cab565b60405190151581526020015b60405180910390f35b610266610cbc565b604051610255919061371c565b61028661028136600461372f565b610d4e565b6040516001600160a01b039091168152602001610255565b6102346102ac366004613764565b610d75565b6102346102bf36600461378e565b610ea1565b6102d76102d23660046137ca565b610eac565b60405161025596959493929190613820565b6102346102f736600461385a565b610fa9565b61023461030a36600461378e565b6117ad565b61023461031d36600461387c565b6117c8565b61026661033036600461372f565b6117e0565b600a54610286906001600160a01b031681565b61028661035636600461372f565b61188c565b61036e6103693660046138b0565b6118ec565b604051908152602001610255565b610234611972565b6102346103923660046138cb565b611986565b6103aa6103a536600461387c565b6119ca565b604051610255929190613928565b6103cb6103c636600461387c565b611a7a565b604051610255919061397c565b6102346103e636600461398f565b611aed565b6007546001600160a01b0316610286565b6102d761040a36600461372f565b611cb3565b61042261041d366004613a4d565b611ce3565b6040516102559190613a8e565b610266611d60565b610266611d6f565b61023461044d366004613ae9565b611d7c565b61045a611d8e565b604051610255929190613b20565b610234610476366004613b96565b611ec2565b6103cb61048936600461387c565b612049565b61023461049c3660046138b0565b6120ba565b6102666104af36600461372f565b6120e4565b61036e6104c236600461372f565b6120ef565b61036e60125481565b601354610286906001600160a01b031681565b6102496104f1366004613c05565b612110565b610509610504366004613c38565b612170565b6040516102559190613c8a565b6102346105243660046138b0565b6122ce565b600b816040516105399190613d2a565b9081526040805160209281900383019020336000908152600390910190925290205460ff161561057c57604051635327f26b60e01b815260040160405180910390fd5b600b8160405161058c9190613d2a565b9081526040519081900360200190205482146105bb5760405163ad3973c160e01b815260040160405180910390fd5b600060646105ca84604b613d5c565b6105d49190613d89565b905080601260008282546105e89190613d9d565b90915550506013546040516323b872dd60e01b8152336004820152306024820152604481018390526001600160a01b03909116906323b872dd906064016020604051808303816000875af1158015610644573d6000803e3d6000fd5b505050506040513d601f19601f820116820180604052508101906106689190613db0565b50601354600a546001600160a01b03918216916323b872dd9133911661068e8588613dcd565b6040516001600160e01b031960e086901b1681526001600160a01b03938416600482015292909116602483015260448201526064016020604051808303816000875af11580156106e2573d6000803e3d6000fd5b505050506040513d601f19601f820116820180604052508101906107069190613db0565b506000600b836040516107199190613d2a565b9081526040805160209281900383018120600201544293820193909352016040516020818303038152906040528051906020012060001c61075a9190613de0565b90506000600b8460405161076e9190613d2a565b9081526020016040518091039020600201828154811061079057610790613df4565b90600052602060002001549050600b846040516107ad9190613d2a565b90815260200160405180910390206002016001600b866040516107d09190613d2a565b908152604051908190036020019020600201546107ed9190613dcd565b815481106107fd576107fd613df4565b9060005260206000200154600b856040516108189190613d2a565b9081526020016040518091039020600201838154811061083a5761083a613df4565b9060005260206000200181905550600b846040516108589190613d2a565b908152602001604051809103902060020180548061087857610878613e0a565b600190038181906000526020600020016000905590556109ae33600b866040516108a29190613d2a565b9081526020016040518091039020600401604051806040016040528060018152602001602f60f81b8152508473__$1bdba46fa44f06fa49315629a2a6224c43$__636900a3ae90916040518263ffffffff1660e01b815260040161090891815260200190565b600060405180830381865af4158015610925573d6000803e3d6000fd5b505050506040513d6000823e601f3d908101601f1916820160405261094d9190810190613e20565b60405180604001604052806005815260200164173539b7b760d91b81525060405160200161097e9493929190613f3a565b60408051601f198184030181529190526000600161099d600687613d89565b6109a79190613dcd565b8886612347565b505060005b6005811015610c6c576000600b846040516109ce9190613d2a565b9081526040805160209281900383018120600101544293820193909352016040516020818303038152906040528051906020012060001c610a0f9190613de0565b90506000600b85604051610a239190613d2a565b90815260200160405180910390206001018281548110610a4557610a45613df4565b90600052602060002001549050600b85604051610a629190613d2a565b90815260200160405180910390206001016001600b87604051610a859190613d2a565b90815260405190819003602001902060010154610aa29190613dcd565b81548110610ab257610ab2613df4565b9060005260206000200154600b86604051610acd9190613d2a565b90815260200160405180910390206001018381548110610aef57610aef613df4565b9060005260206000200181905550600b85604051610b0d9190613d2a565b9081526020016040518091039020600101805480610b2d57610b2d613e0a565b60019003818190600052602060002001600090559055610c5733600b87604051610b579190613d2a565b9081526020016040518091039020600401604051806040016040528060018152602001602f60f81b8152508473__$1bdba46fa44f06fa49315629a2a6224c43$__636900a3ae90916040518263ffffffff1660e01b8152600401610bbd91815260200190565b600060405180830381865af4158015610bda573d6000803e3d6000fd5b505050506040513d6000823e601f3d908101601f19168201604052610c029190810190613e20565b60405180604001604052806005815260200164173539b7b760d91b815250604051602001610c339493929190613f3a565b60408051601f198184030181529190526001610c50600686613d89565b8986612347565b50508080610c6490613f87565b9150506109b3565b507f55d44f7f091f0389b4dcb1b6ae002ed20fe8229c546e6aaf1ccac2646cdf514c3383604051610c9e929190613fa0565b60405180910390a1505050565b6000610cb682612454565b92915050565b606060008054610ccb90613e8d565b80601f0160208091040260200160405190810160405280929190818152602001828054610cf790613e8d565b8015610d445780601f10610d1957610100808354040283529160200191610d44565b820191906000526020600020905b815481529060010190602001808311610d2757829003601f168201915b5050505050905090565b6000610d5982612479565b506000908152600460205260409020546001600160a01b031690565b6000610d808261188c565b9050806001600160a01b0316836001600160a01b031603610df25760405162461bcd60e51b815260206004820152602160248201527f4552433732313a20617070726f76616c20746f2063757272656e74206f776e656044820152603960f91b60648201526084015b60405180910390fd5b806001600160a01b0316610e046124d8565b6001600160a01b03161480610e205750610e20816104f16124d8565b610e925760405162461bcd60e51b815260206004820152603d60248201527f4552433732313a20617070726f76652063616c6c6572206973206e6f7420746f60448201527f6b656e206f776e6572206f7220617070726f76656420666f7220616c6c0000006064820152608401610de9565b610e9c83836124e7565b505050565b610e9c8383836117ad565b600e6020908152600084815260409020835180850183018051928152908301928501929092209152805482908110610ee357600080fd5b90600052602060002090600602016000925092505050806000015490806001015490806002015490806003018054610f1a90613e8d565b80601f0160208091040260200160405190810160405280929190818152602001828054610f4690613e8d565b8015610f935780601f10610f6857610100808354040283529160200191610f93565b820191906000526020600020905b815481529060010190602001808311610f7657829003601f168201915b5050505050908060040154908060050154905086565b33610fb38361188c565b6001600160a01b031614610fda576040516318fc232560e01b815260040160405180910390fd5b33610fe48261188c565b6001600160a01b03161461100b5760405163364be83560e01b815260040160405180910390fd5b6000818152600c60205260409020600101541561103b5760405163d0286c2360e01b815260040160405180910390fd5b6000828152600c60205260408120600301805461105790613e8d565b80601f016020809104026020016040519081016040528092919081815260200182805461108390613e8d565b80156110d05780601f106110a5576101008083540402835291602001916110d0565b820191906000526020600020905b8154815290600101906020018083116110b357829003601f168201915b5050505050905060005b336000908152600e60205260409081902090516110f8908490613d2a565b9081526040519081900360200190205460ff8216101561133e576000848152600c6020908152604080832060050154338452600e909252918290209151909190611143908590613d2a565b90815260200160405180910390208260ff168154811061116557611165613df4565b9060005260206000209060060201600501540361132c57336000908152600e602052604090819020905161119a908490613d2a565b90815260200160405180910390206001600e6000336001600160a01b03166001600160a01b03168152602001908152602001600020846040516111dd9190613d2a565b908152604051908190036020019020546111f79190613dcd565b8154811061120757611207613df4565b60009182526020808320338452600e90915260409283902092516006909202019190611234908590613d2a565b90815260200160405180910390208260ff168154811061125657611256613df4565b9060005260206000209060060201600082015481600001556001820154816001015560028201548160020155600382018160030190816112969190614012565b5060048281015490820155600591820154910155336000908152600e60205260409081902090516112c8908490613d2a565b90815260200160405180910390208054806112e5576112e5613e0a565b600082815260208120600660001990930192830201818155600181018290556002810182905590611319600383018261353a565b5060006004820181905560059091015590555b80611336816140ee565b9150506110da565b5061134883612555565b6000828152600c6020526040812060040180549161136583613f87565b9091555050336000908152600e60209081526040808320868452600c909252918290209151909161139b9160039091019061410d565b90815260200160405180910390206000815481106113bb576113bb613df4565b6000918252602082206004600690920201018054916113d983613f87565b90915550506000828152600c6020526040902060040154600503610e9c576000828152600c60205260408120600301805461141390613e8d565b80601f016020809104026020016040519081016040528092919081815260200182805461143f90613e8d565b801561148c5780601f106114615761010080835404028352916020019161148c565b820191906000526020600020905b81548152906001019060200180831161146f57829003601f168201915b505050505090506007600d826040516114a59190613d2a565b90815260405190819003602001902054101561163e57600d816040516114cb9190613d2a565b908152604051908190036020908101822080546001818101835560009283529282200180546001600160a01b0319163317905591600a91600f91600d90611513908790613d2a565b9081526040519081900360200190205461152d9190613dcd565b6007811061153d5761153d613df4565b602091828204019190069054906101000a900460ff1660ff16600b846040516115669190613d2a565b908152604051908190036020019020546115809190613d5c565b61158a9190613d89565b90506012548111156115af5760405163090d760160e01b815260040160405180910390fd5b80601260008282546115c19190613dcd565b909155505060135460405163a9059cbb60e01b8152336004820152602481018390526001600160a01b039091169063a9059cbb906044016020604051808303816000875af1158015611617573d6000803e3d6000fd5b505050506040513d601f19601f8201168201806040525081019061163b9190613db0565b50505b61175183600b836040516116529190613d2a565b908152604080519182900360209081018320838301835260018452602f60f81b848301526000898152600c9092529082902060050154915163348051d760e11b81526004918201939273__$1bdba46fa44f06fa49315629a2a6224c43$__92636900a3ae926116c692910190815260200190565b600060405180830381865af41580156116e3573d6000803e3d6000fd5b505050506040513d6000823e601f3d908101601f1916820160405261170b9190810190613e20565b6040518060400160405280600681526020016523173539b7b760d11b81525060405160200161173d9493929190613f3a565b60405160208183030381529060405261255e565b7f953ec8b8176b9eb94e1561816a70bc231210aee5f1aaa59fdbad7915f9ad3c963382600d846040516117849190613d2a565b9081526040519081900360200181205461179f939291614119565b60405180910390a150505050565b610e9c83838360405180602001604052806000815250611ec2565b6117d0612629565b60096117dc828261414d565b5050565b601081815481106117f057600080fd5b90600052602060002001600091509050805461180b90613e8d565b80601f016020809104026020016040519081016040528092919081815260200182805461183790613e8d565b80156118845780601f1061185957610100808354040283529160200191611884565b820191906000526020600020905b81548152906001019060200180831161186757829003601f168201915b505050505081565b6000818152600260205260408120546001600160a01b031680610cb65760405162461bcd60e51b8152602060048201526018602482015277115490cdcc8c4e881a5b9d985b1a59081d1bdad95b88125160421b6044820152606401610de9565b60006001600160a01b0382166119565760405162461bcd60e51b815260206004820152602960248201527f4552433732313a2061646472657373207a65726f206973206e6f7420612076616044820152683634b21037bbb732b960b91b6064820152608401610de9565b506001600160a01b031660009081526003602052604090205490565b61197a612629565b61198460006126a2565b565b61198e612629565b600961199a848261414d565b50601380546001600160a01b039384166001600160a01b031991821617909155600a805492909316911617905550565b8051602081830181018051600b82529282019190930120915280546004820180549192916119f790613e8d565b80601f0160208091040260200160405190810160405280929190818152602001828054611a2390613e8d565b8015611a705780601f10611a4557610100808354040283529160200191611a70565b820191906000526020600020905b815481529060010190602001808311611a5357829003601f168201915b5050505050905082565b6060600b82604051611a8c9190613d2a565b9081526040805191829003602090810183206001018054808302850183019093528284529190830182828015611ae157602002820191906000526020600020905b815481526020019060010190808311611acd575b50505050509050919050565b611af5612629565b655af3107a4000831015611b1c5760405163b04a217360e01b815260040160405180910390fd5b611b27600683613de0565b15611b45576040516307fb5d6d60e01b815260040160405180910390fd5b82600b85604051611b569190613d2a565b908152604051908190036020018120919091558190600b90611b79908790613d2a565b90815260200160405180910390206004019081611b96919061414d565b50601080546001810182556000919091527f1b6847dc741a1b0cd08d278845f9d819d87b734759afb55fe2de5cb82a9ae67201611bd3858261414d565b5060118054600181810183556000929092527f31ecc21a745e3968a04e9570e4425bc18fa8019c68028196b546d1669c200c68018490555b828111611cac57611c1d600682613de0565b600003611c6057600b85604051611c349190613d2a565b908152604051602091819003820190206002018054600181018255600091825291902001819055611c9a565b600b85604051611c709190613d2a565b90815260405160209181900382019020600190810180549182018155600090815291909120018190555b80611ca481613f87565b915050611c0b565b5050505050565b600c60205260009081526040902080546001820154600283015460038401805493949293919291610f1a90613e8d565b6060600d8383604051611cf7929190614204565b9081526040805191829003602090810183208054808302850183019093528284529190830182828015611d5357602002820191906000526020600020905b81546001600160a01b03168152600190910190602001808311611d35575b5050505050905092915050565b606060018054610ccb90613e8d565b6009805461180b90613e8d565b6117dc611d876124d8565b83836126f4565b6060806010601181805480602002602001604051908101604052809291908181526020016000905b82821015611e62578382906000526020600020018054611dd590613e8d565b80601f0160208091040260200160405190810160405280929190818152602001828054611e0190613e8d565b8015611e4e5780601f10611e2357610100808354040283529160200191611e4e565b820191906000526020600020905b815481529060010190602001808311611e3157829003601f168201915b505050505081526020019060010190611db6565b50505050915080805480602002602001604051908101604052809291908181526020018280548015611eb357602002820191906000526020600020905b815481526020019060010190808311611e9f575b50505050509050915091509091565b6000828152600c602052604081206003018054611ede90613e8d565b80601f0160208091040260200160405190810160405280929190818152602001828054611f0a90613e8d565b8015611f575780601f10611f2c57610100808354040283529160200191611f57565b820191906000526020600020905b815481529060010190602001808311611f3a57829003601f168201915b50505050509050611f6781612049565b5115611f8657604051631c5836a160e21b815260040160405180910390fd5b611f92858585856127c2565b6000838152600c60205260409020600190810154900361200c57600b81604051611fbc9190613d2a565b90815260408051602092819003830190206001600160a01b0387166000908152600390910190925290205460ff1661200757604051636341b66f60e11b815260040160405180910390fd5b61203e565b6000838152600c602052604090206004015460051461203e5760405163f959be5b60e01b815260040160405180910390fd5b611cac858585612847565b6060600b8260405161205b9190613d2a565b9081526040805191829003602090810183206002018054808302850183019093528284529190830182828015611ae15760200282019190600052602060002090815481526020019060010190808311611acd5750505050509050919050565b6120c2612629565b600a80546001600160a01b0319166001600160a01b0392909216919091179055565b6060610cb682612c21565b601181815481106120ff57600080fd5b600091825260209091200154905081565b60007358807bad0b376efc12f5ad86aac70e78ed67dead196001600160a01b0383160161213f57506001610cb6565b6001600160a01b0380841660009081526005602090815260408083209386168352929052205460ff165b9392505050565b6001600160a01b0383166000908152600e60205260409081902090516060919061219d9085908590614204565b9081526020016040518091039020805480602002602001604051908101604052809291908181526020016000905b828210156122c157838290600052602060002090600602016040518060c001604052908160008201548152602001600182015481526020016002820154815260200160038201805461221c90613e8d565b80601f016020809104026020016040519081016040528092919081815260200182805461224890613e8d565b80156122955780601f1061226a57610100808354040283529160200191612295565b820191906000526020600020905b81548152906001019060200180831161227857829003601f168201915b5050505050815260200160048201548152602001600582015481525050815260200190600101906121cb565b5050505090509392505050565b6122d6612629565b6001600160a01b03811661233b5760405162461bcd60e51b815260206004820152602660248201527f4f776e61626c653a206e6577206f776e657220697320746865207a65726f206160448201526564647265737360d01b6064820152608401610de9565b612344816126a2565b50565b6008805490600190600061235b8385613d9d565b90915550506000818152600c60205260409020818155600181018690556002810185905560030161238c848261414d565b506000818152600c602090815260408083206005018590556001600160a01b038a168352600e9091529081902090516123c6908590613d2a565b90815260408051602092819003830190206000848152600c84529182208154600180820184559284529390922082546006909402019283558082015490830155600280820154908301559060038082019061242390840182614012565b50600482810154908201556005918201549101556124418782612d24565b61244b818761255e565b50505050505050565b60006001600160e01b03198216632483248360e11b1480610cb65750610cb682612ebd565b6000818152600260205260409020546001600160a01b03166123445760405162461bcd60e51b8152602060048201526018602482015277115490cdcc8c4e881a5b9d985b1a59081d1bdad95b88125160421b6044820152606401610de9565b60006124e2612f0d565b905090565b600081815260046020526040902080546001600160a01b0319166001600160a01b038416908117909155819061251c8261188c565b6001600160a01b03167f8c5be1e5ebec7d5bd14f71427d1e84f3dd0314c0f7b2291e5b200ac8c7c3b92560405160405180910390a45050565b61234481612f69565b6000828152600260205260409020546001600160a01b03166125d95760405162461bcd60e51b815260206004820152602e60248201527f45524337323155524953746f726167653a2055524920736574206f66206e6f6e60448201526d32bc34b9ba32b73a103a37b5b2b760911b6064820152608401610de9565b60008281526006602052604090206125f1828261414d565b506040518281527ff8e1a15aba9398e019f0b49df1a4fde98ee17ae345cb5f6b5e2c27f5033e8ce79060200160405180910390a15050565b6126316124d8565b6001600160a01b031661264c6007546001600160a01b031690565b6001600160a01b0316146119845760405162461bcd60e51b815260206004820181905260248201527f4f776e61626c653a2063616c6c6572206973206e6f7420746865206f776e65726044820152606401610de9565b600780546001600160a01b038381166001600160a01b0319831681179093556040519116919082907f8be0079c531659141344cd1fd0a4f28419497f9722a3daafe3b4186f6b6457e090600090a35050565b816001600160a01b0316836001600160a01b0316036127555760405162461bcd60e51b815260206004820152601960248201527f4552433732313a20617070726f766520746f2063616c6c6572000000000000006044820152606401610de9565b6001600160a01b03838116600081815260056020908152604080832094871680845294825291829020805460ff191686151590811790915591519182527f17307eab39ab6107e8899845ad3d59bd9653f200f220920489ca2b5937696c31910160405180910390a3505050565b6127d36127cd6124d8565b83612fa9565b6128355760405162461bcd60e51b815260206004820152602d60248201527f4552433732313a2063616c6c6572206973206e6f7420746f6b656e206f776e6560448201526c1c881bdc88185c1c1c9bdd9959609a1b6064820152608401610de9565b61284184848484613007565b50505050565b6000818152600c60205260408120600301805461286390613e8d565b80601f016020809104026020016040519081016040528092919081815260200182805461288f90613e8d565b80156128dc5780601f106128b1576101008083540402835291602001916128dc565b820191906000526020600020905b8154815290600101906020018083116128bf57829003601f168201915b5050505050905060005b6001600160a01b0385166000908152600e602052604090819020905161290d908490613d2a565b9081526040519081900360200190205460ff82161015612b82576000838152600c60209081526040808320600501546001600160a01b0389168452600e909252918290209151909190612961908590613d2a565b90815260200160405180910390208260ff168154811061298357612983613df4565b90600052602060002090600602016005015403612b70576001600160a01b0385166000908152600e60205260409081902090516129c1908490613d2a565b90815260200160405180910390206001600e6000886001600160a01b03166001600160a01b0316815260200190815260200160002084604051612a049190613d2a565b90815260405190819003602001902054612a1e9190613dcd565b81548110612a2e57612a2e613df4565b9060005260206000209060060201600e6000876001600160a01b03166001600160a01b0316815260200190815260200160002083604051612a6f9190613d2a565b90815260200160405180910390208260ff1681548110612a9157612a91613df4565b906000526020600020906006020160008201548160000155600182015481600101556002820154816002015560038201816003019081612ad19190614012565b50600482810154908201556005918201549101556001600160a01b0385166000908152600e6020526040908190209051612b0c908490613d2a565b9081526020016040518091039020805480612b2957612b29613e0a565b600082815260208120600660001990930192830201818155600181018290556002810182905590612b5d600383018261353a565b5060006004820181905560059091015590555b80612b7a816140ee565b9150506128e6565b506001600160a01b0383166000908152600e6020526040908190209051612baa908390613d2a565b90815260408051602092819003830190206000858152600c845291822081546001808201845592845293909220825460069094020192835580820154908301556002808201549083015590600380820190612c0790840182614012565b506004828101549082015560059182015491015550505050565b6060612c2c82612479565b60008281526006602052604081208054612c4590613e8d565b80601f0160208091040260200160405190810160405280929190818152602001828054612c7190613e8d565b8015612cbe5780601f10612c9357610100808354040283529160200191612cbe565b820191906000526020600020905b815481529060010190602001808311612ca157829003601f168201915b505050505090506000612ccf61303a565b90508051600003612ce1575092915050565b815115612d13578082604051602001612cfb929190614214565b60405160208183030381529060405292505050919050565b612d1c84613049565b949350505050565b6001600160a01b038216612d7a5760405162461bcd60e51b815260206004820181905260248201527f4552433732313a206d696e7420746f20746865207a65726f20616464726573736044820152606401610de9565b6000818152600260205260409020546001600160a01b031615612ddf5760405162461bcd60e51b815260206004820152601c60248201527f4552433732313a20746f6b656e20616c7265616479206d696e746564000000006044820152606401610de9565b612ded6000838360016130af565b6000818152600260205260409020546001600160a01b031615612e525760405162461bcd60e51b815260206004820152601c60248201527f4552433732313a20746f6b656e20616c7265616479206d696e746564000000006044820152606401610de9565b6001600160a01b038216600081815260036020908152604080832080546001019055848352600290915280822080546001600160a01b0319168417905551839291907fddf252ad1be2c89b69c2b068fc378daa952ba7f163c4a11628f55a4df523b3ef908290a45050565b60006001600160e01b031982166380ac58cd60e01b1480612eee57506001600160e01b03198216635b5e139f60e01b145b80610cb657506301ffc9a760e01b6001600160e01b0319831614610cb6565b6000303303612f6357600080368080601f0160208091040260200160405190810160405280939291908181526020018383808284376000920191909152505050503601516001600160a01b03169150612f669050565b50335b90565b612f72816130b4565b60008181526006602052604090208054612f8b90613e8d565b1590506123445760008181526006602052604081206123449161353a565b600080612fb58361188c565b9050806001600160a01b0316846001600160a01b03161480612fdc5750612fdc8185612110565b80612d1c5750836001600160a01b0316612ff584610d4e565b6001600160a01b031614949350505050565b613012848484613157565b61301e848484846132c8565b6128415760405162461bcd60e51b8152600401610de990614243565b606060098054610ccb90613e8d565b606061305482612479565b600061305e61303a565b9050600081511161307e5760405180602001604052806000815250612169565b80613088846133d0565b604051602001613099929190614214565b6040516020818303038152906040529392505050565b612841565b60006130bf8261188c565b90506130cf8160008460016130af565b6130d88261188c565b600083815260046020908152604080832080546001600160a01b03199081169091556001600160a01b0385168085526003845282852080546000190190558785526002909352818420805490911690555192935084927fddf252ad1be2c89b69c2b068fc378daa952ba7f163c4a11628f55a4df523b3ef908390a45050565b826001600160a01b031661316a8261188c565b6001600160a01b0316146131905760405162461bcd60e51b8152600401610de990614295565b6001600160a01b0382166131f25760405162461bcd60e51b8152602060048201526024808201527f4552433732313a207472616e7366657220746f20746865207a65726f206164646044820152637265737360e01b6064820152608401610de9565b6131ff83838360016130af565b826001600160a01b03166132128261188c565b6001600160a01b0316146132385760405162461bcd60e51b8152600401610de990614295565b600081815260046020908152604080832080546001600160a01b03199081169091556001600160a01b0387811680865260038552838620805460001901905590871680865283862080546001019055868652600290945282852080549092168417909155905184937fddf252ad1be2c89b69c2b068fc378daa952ba7f163c4a11628f55a4df523b3ef91a4505050565b60006001600160a01b0384163b156133c557836001600160a01b031663150b7a026132f16124d8565b8786866040518563ffffffff1660e01b815260040161331394939291906142da565b6020604051808303816000875af192505050801561334e575060408051601f3d908101601f1916820190925261334b91810190614317565b60015b6133ab573d80801561337c576040519150601f19603f3d011682016040523d82523d6000602084013e613381565b606091505b5080516000036133a35760405162461bcd60e51b8152600401610de990614243565b805181602001fd5b6001600160e01b031916630a85bd0160e11b149050612d1c565b506001949350505050565b606060006133dd83613462565b60010190506000816001600160401b038111156133fc576133fc613588565b6040519080825280601f01601f191660200182016040528015613426576020820181803683370190505b5090508181016020015b600019016f181899199a1a9b1b9c1cb0b131b232b360811b600a86061a8153600a850494508461343057509392505050565b60008072184f03e93ff9f4daa797ed6e38ed64bf6a1f0160401b83106134a15772184f03e93ff9f4daa797ed6e38ed64bf6a1f0160401b830492506040015b6d04ee2d6d415b85acef810000000083106134cd576d04ee2d6d415b85acef8100000000830492506020015b662386f26fc1000083106134eb57662386f26fc10000830492506010015b6305f5e1008310613503576305f5e100830492506008015b612710831061351757612710830492506004015b60648310613529576064830492506002015b600a8310610cb65760010192915050565b50805461354690613e8d565b6000825580601f10613556575050565b601f01602090049060005260206000209081019061234491905b808211156135845760008155600101613570565b5090565b634e487b7160e01b600052604160045260246000fd5b604051601f8201601f191681016001600160401b03811182821017156135c6576135c6613588565b604052919050565b60006001600160401b038211156135e7576135e7613588565b50601f01601f191660200190565b6000613608613603846135ce565b61359e565b905082815283838301111561361c57600080fd5b828260208301376000602084830101529392505050565b600082601f83011261364457600080fd5b612169838335602085016135f5565b6000806040838503121561366657600080fd5b8235915060208301356001600160401b0381111561368357600080fd5b61368f85828601613633565b9150509250929050565b6001600160e01b03198116811461234457600080fd5b6000602082840312156136c157600080fd5b813561216981613699565b60005b838110156136e75781810151838201526020016136cf565b50506000910152565b600081518084526137088160208601602086016136cc565b601f01601f19169290920160200192915050565b60208152600061216960208301846136f0565b60006020828403121561374157600080fd5b5035919050565b80356001600160a01b038116811461375f57600080fd5b919050565b6000806040838503121561377757600080fd5b61378083613748565b946020939093013593505050565b6000806000606084860312156137a357600080fd5b6137ac84613748565b92506137ba60208501613748565b9150604084013590509250925092565b6000806000606084860312156137df57600080fd5b6137e884613748565b925060208401356001600160401b0381111561380357600080fd5b61380f86828701613633565b925050604084013590509250925092565b86815285602082015284604082015260c06060820152600061384560c08301866136f0565b60808301949094525060a00152949350505050565b6000806040838503121561386d57600080fd5b50508035926020909101359150565b60006020828403121561388e57600080fd5b81356001600160401b038111156138a457600080fd5b612d1c84828501613633565b6000602082840312156138c257600080fd5b61216982613748565b6000806000606084860312156138e057600080fd5b83356001600160401b038111156138f657600080fd5b61390286828701613633565b93505061391160208501613748565b915061391f60408501613748565b90509250925092565b828152604060208201526000612d1c60408301846136f0565b600081518084526020808501945080840160005b8381101561397157815187529582019590820190600101613955565b509495945050505050565b6020815260006121696020830184613941565b600080600080608085870312156139a557600080fd5b84356001600160401b03808211156139bc57600080fd5b6139c888838901613633565b9550602087013594506040870135935060608701359150808211156139ec57600080fd5b506139f987828801613633565b91505092959194509250565b60008083601f840112613a1757600080fd5b5081356001600160401b03811115613a2e57600080fd5b602083019150836020828501011115613a4657600080fd5b9250929050565b60008060208385031215613a6057600080fd5b82356001600160401b03811115613a7657600080fd5b613a8285828601613a05565b90969095509350505050565b6020808252825182820181905260009190848201906040850190845b81811015613acf5783516001600160a01b031683529284019291840191600101613aaa565b50909695505050505050565b801515811461234457600080fd5b60008060408385031215613afc57600080fd5b613b0583613748565b91506020830135613b1581613adb565b809150509250929050565b6000604082016040835280855180835260608501915060608160051b8601019250602080880160005b83811015613b7757605f19888703018552613b658683516136f0565b95509382019390820190600101613b49565b505085840381870152505050613b8d8185613941565b95945050505050565b60008060008060808587031215613bac57600080fd5b613bb585613748565b9350613bc360208601613748565b92506040850135915060608501356001600160401b03811115613be557600080fd5b8501601f81018713613bf657600080fd5b6139f9878235602084016135f5565b60008060408385031215613c1857600080fd5b613c2183613748565b9150613c2f60208401613748565b90509250929050565b600080600060408486031215613c4d57600080fd5b613c5684613748565b925060208401356001600160401b03811115613c7157600080fd5b613c7d86828701613a05565b9497909650939450505050565b60006020808301818452808551808352604092508286019150828160051b87010184880160005b83811015613d1c57603f19898403018552815160c081518552888201518986015287820151888601526060808301518282880152613cf1838801826136f0565b6080858101519089015260a09485015194909701939093525050509386019390860190600101613cb1565b509098975050505050505050565b60008251613d3c8184602087016136cc565b9190910192915050565b634e487b7160e01b600052601160045260246000fd5b8082028115828204841417610cb657610cb6613d46565b634e487b7160e01b600052601260045260246000fd5b600082613d9857613d98613d73565b500490565b80820180821115610cb657610cb6613d46565b600060208284031215613dc257600080fd5b815161216981613adb565b81810381811115610cb657610cb6613d46565b600082613def57613def613d73565b500690565b634e487b7160e01b600052603260045260246000fd5b634e487b7160e01b600052603160045260246000fd5b600060208284031215613e3257600080fd5b81516001600160401b03811115613e4857600080fd5b8201601f81018413613e5957600080fd5b8051613e67613603826135ce565b818152856020838501011115613e7c57600080fd5b613b8d8260208301602086016136cc565b600181811c90821680613ea157607f821691505b602082108103613ec157634e487b7160e01b600052602260045260246000fd5b50919050565b60008154613ed481613e8d565b60018281168015613eec5760018114613f0157613f30565b60ff1984168752821515830287019450613f30565b8560005260208060002060005b85811015613f275781548a820152908401908201613f0e565b50505082870194505b5050505092915050565b6000613f468287613ec7565b8551613f56818360208a016136cc565b8551910190613f698183602089016136cc565b8451910190613f7c8183602088016136cc565b019695505050505050565b600060018201613f9957613f99613d46565b5060010190565b6001600160a01b0383168152604060208201819052600090612d1c908301846136f0565b601f821115610e9c57600081815260208120601f850160051c81016020861015613feb5750805b601f850160051c820191505b8181101561400a57828155600101613ff7565b505050505050565b81810361401d575050565b6140278254613e8d565b6001600160401b0381111561403e5761403e613588565b6140528161404c8454613e8d565b84613fc4565b6000601f821160018114614086576000831561406e5750848201545b600019600385901b1c1916600184901b178455611cac565b600085815260209020601f19841690600086815260209020845b838110156140c057828601548255600195860195909101906020016140a0565b50858310156140de5781850154600019600388901b60f8161c191681555b5050505050600190811b01905550565b600060ff821660ff810361410457614104613d46565b60010192915050565b60006121698284613ec7565b6001600160a01b038416815260606020820181905260009061413d908301856136f0565b9050826040830152949350505050565b81516001600160401b0381111561416657614166613588565b6141748161404c8454613e8d565b602080601f8311600181146141a957600084156141915750858301515b600019600386901b1c1916600185901b17855561400a565b600085815260208120601f198616915b828110156141d8578886015182559484019460019091019084016141b9565b50858210156140de57939096015160001960f8600387901b161c19169092555050600190811b01905550565b8183823760009101908152919050565b600083516142268184602088016136cc565b83519083019061423a8183602088016136cc565b01949350505050565b60208082526032908201527f4552433732313a207472616e7366657220746f206e6f6e20455243373231526560408201527131b2b4bb32b91034b6b83632b6b2b73a32b960711b606082015260800190565b60208082526025908201527f4552433732313a207472616e736665722066726f6d20696e636f72726563742060408201526437bbb732b960d91b606082015260800190565b6001600160a01b038581168252841660208201526040810183905260806060820181905260009061430d908301846136f0565b9695505050505050565b60006020828403121561432957600080fd5b81516121698161369956fea264697066735822122012805d895fb42f484133a44b20b0563fb4c96c938aee672386bc64257d97bdd864736f6c63430008140033",
  "linkReferences": {
    "contracts/libs/LibStringUtils.sol": {
      "LibStringUtils": [
        {
          "length": 20,
          "start": 3217
        },
        {
          "length": 20,
          "start": 3910
        },
        {
          "length": 20,
          "start": 6750
        }
      ]
    }
  },
  "deployedLinkReferences": {
    "contracts/libs/LibStringUtils.sol": {
      "LibStringUtils": [
        {
          "length": 20,
          "start": 2256
        },
        {
          "length": 20,
          "start": 2949
        },
        {
          "length": 20,
          "start": 5789
        }
      ]
    }
  }
}