{
  "_format": "hh-sol-artifact-1",
  "contractName": "NofAlphaV4",
  "sourceName": "contracts/alpha/Alpha.v4.sol",
  "abi": [
    {
      "inputs": [],
      "stateMutability": "nonpayable",
      "type": "constructor"
    },
    {
      "inputs": [],
      "name": "Alpha_AlbumNotCompleted",
      "type": "error"
    },
    {
      "inputs": [],
      "name": "Alpha_AlreadyHaveAPack",
      "type": "error"
    },
    {
      "inputs": [],
      "name": "Alpha_AmountMustBeMultipleOf6",
      "type": "error"
    },
    {
      "inputs": [],
      "name": "Alpha_AuthorizedStatusAlreadySet",
      "type": "error"
    },
    {
      "inputs": [],
      "name": "Alpha_CardIsNotAnAlbum",
      "type": "error"
    },
    {
      "inputs": [],
      "name": "Alpha_NotAuthorized",
      "type": "error"
    },
    {
      "inputs": [],
      "name": "Alpha_NotCorrectPriceForPack",
      "type": "error"
    },
    {
      "inputs": [],
      "name": "Alpha_NotEnoughPrizeBalance",
      "type": "error"
    },
    {
      "inputs": [],
      "name": "Alpha_NotPlayingThisSeason",
      "type": "error"
    },
    {
      "inputs": [],
      "name": "Alpha_NotYourAlbum",
      "type": "error"
    },
    {
      "inputs": [],
      "name": "Alpha_NotYourCard",
      "type": "error"
    },
    {
      "inputs": [],
      "name": "Alpha_PriceTooLow",
      "type": "error"
    },
    {
      "inputs": [],
      "name": "Alpha_SeasonAlreadyExists",
      "type": "error"
    },
    {
      "inputs": [],
      "name": "Alpha_StillAlbumsAvailable",
      "type": "error"
    },
    {
      "anonymous": false,
      "inputs": [
        {
          "indexed": true,
          "internalType": "address",
          "name": "owner",
          "type": "address"
        },
        {
          "indexed": true,
          "internalType": "address",
          "name": "approved",
          "type": "address"
        },
        {
          "indexed": true,
          "internalType": "uint256",
          "name": "tokenId",
          "type": "uint256"
        }
      ],
      "name": "Approval",
      "type": "event"
    },
    {
      "anonymous": false,
      "inputs": [
        {
          "indexed": true,
          "internalType": "address",
          "name": "owner",
          "type": "address"
        },
        {
          "indexed": true,
          "internalType": "address",
          "name": "operator",
          "type": "address"
        },
        {
          "indexed": false,
          "internalType": "bool",
          "name": "approved",
          "type": "bool"
        }
      ],
      "name": "ApprovalForAll",
      "type": "event"
    },
    {
      "anonymous": false,
      "inputs": [
        {
          "indexed": true,
          "internalType": "address",
          "name": "authorized",
          "type": "address"
        },
        {
          "indexed": false,
          "internalType": "bool",
          "name": "status",
          "type": "bool"
        }
      ],
      "name": "Authorized",
      "type": "event"
    },
    {
      "anonymous": false,
      "inputs": [
        {
          "indexed": false,
          "internalType": "uint256",
          "name": "_fromTokenId",
          "type": "uint256"
        },
        {
          "indexed": false,
          "internalType": "uint256",
          "name": "_toTokenId",
          "type": "uint256"
        }
      ],
      "name": "BatchMetadataUpdate",
      "type": "event"
    },
    {
      "anonymous": false,
      "inputs": [
        {
          "indexed": true,
          "internalType": "address",
          "name": "buyer",
          "type": "address"
        },
        {
          "indexed": true,
          "internalType": "string",
          "name": "seasonName",
          "type": "string"
        }
      ],
      "name": "BuyPack",
      "type": "event"
    },
    {
      "anonymous": false,
      "inputs": [
        {
          "indexed": false,
          "internalType": "uint256",
          "name": "_tokenId",
          "type": "uint256"
        }
      ],
      "name": "MetadataUpdate",
      "type": "event"
    },
    {
      "anonymous": false,
      "inputs": [
        {
          "indexed": true,
          "internalType": "address",
          "name": "previousOwner",
          "type": "address"
        },
        {
          "indexed": true,
          "internalType": "address",
          "name": "newOwner",
          "type": "address"
        }
      ],
      "name": "OwnershipTransferred",
      "type": "event"
    },
    {
      "anonymous": false,
      "inputs": [
        {
          "indexed": true,
          "internalType": "address",
          "name": "from",
          "type": "address"
        },
        {
          "indexed": true,
          "internalType": "address",
          "name": "to",
          "type": "address"
        },
        {
          "indexed": true,
          "internalType": "uint256",
          "name": "tokenId",
          "type": "uint256"
        }
      ],
      "name": "Transfer",
      "type": "event"
    },
    {
      "anonymous": false,
      "inputs": [
        {
          "indexed": true,
          "internalType": "address",
          "name": "winner",
          "type": "address"
        },
        {
          "indexed": true,
          "internalType": "string",
          "name": "season",
          "type": "string"
        },
        {
          "indexed": true,
          "internalType": "uint256",
          "name": "position",
          "type": "uint256"
        }
      ],
      "name": "Winner",
      "type": "event"
    },
    {
      "inputs": [],
      "name": "DAI_TOKEN",
      "outputs": [
        {
          "internalType": "address",
          "name": "",
          "type": "address"
        }
      ],
      "stateMutability": "view",
      "type": "function"
    },
    {
      "inputs": [
        {
          "internalType": "address",
          "name": "to",
          "type": "address"
        },
        {
          "internalType": "uint256",
          "name": "tokenId",
          "type": "uint256"
        }
      ],
      "name": "approve",
      "outputs": [],
      "stateMutability": "nonpayable",
      "type": "function"
    },
    {
      "inputs": [
        {
          "internalType": "address",
          "name": "",
          "type": "address"
        }
      ],
      "name": "authorized",
      "outputs": [
        {
          "internalType": "bool",
          "name": "",
          "type": "bool"
        }
      ],
      "stateMutability": "view",
      "type": "function"
    },
    {
      "inputs": [
        {
          "internalType": "address",
          "name": "owner",
          "type": "address"
        }
      ],
      "name": "balanceOf",
      "outputs": [
        {
          "internalType": "uint256",
          "name": "",
          "type": "uint256"
        }
      ],
      "stateMutability": "view",
      "type": "function"
    },
    {
      "inputs": [],
      "name": "balanceReceiver",
      "outputs": [
        {
          "internalType": "address",
          "name": "",
          "type": "address"
        }
      ],
      "stateMutability": "view",
      "type": "function"
    },
    {
      "inputs": [],
      "name": "baseUri",
      "outputs": [
        {
          "internalType": "string",
          "name": "",
          "type": "string"
        }
      ],
      "stateMutability": "view",
      "type": "function"
    },
    {
      "inputs": [
        {
          "internalType": "uint256",
          "name": "_amount",
          "type": "uint256"
        },
        {
          "internalType": "string",
          "name": "_name",
          "type": "string"
        }
      ],
      "name": "buyPack",
      "outputs": [],
      "stateMutability": "nonpayable",
      "type": "function"
    },
    {
      "inputs": [
        {
          "internalType": "uint256",
          "name": "",
          "type": "uint256"
        }
      ],
      "name": "cards",
      "outputs": [
        {
          "internalType": "uint256",
          "name": "tokenId",
          "type": "uint256"
        },
        {
          "internalType": "uint256",
          "name": "class",
          "type": "uint256"
        },
        {
          "internalType": "uint256",
          "name": "collection",
          "type": "uint256"
        },
        {
          "internalType": "string",
          "name": "season",
          "type": "string"
        },
        {
          "internalType": "uint256",
          "name": "completion",
          "type": "uint256"
        },
        {
          "internalType": "uint256",
          "name": "number",
          "type": "uint256"
        }
      ],
      "stateMutability": "view",
      "type": "function"
    },
    {
      "inputs": [
        {
          "internalType": "address",
          "name": "",
          "type": "address"
        },
        {
          "internalType": "string",
          "name": "",
          "type": "string"
        },
        {
          "internalType": "uint256",
          "name": "",
          "type": "uint256"
        }
      ],
      "name": "cardsByUserBySeason",
      "outputs": [
        {
          "internalType": "uint256",
          "name": "tokenId",
          "type": "uint256"
        },
        {
          "internalType": "uint256",
          "name": "class",
          "type": "uint256"
        },
        {
          "internalType": "uint256",
          "name": "collection",
          "type": "uint256"
        },
        {
          "internalType": "string",
          "name": "season",
          "type": "string"
        },
        {
          "internalType": "uint256",
          "name": "completion",
          "type": "uint256"
        },
        {
          "internalType": "uint256",
          "name": "number",
          "type": "uint256"
        }
      ],
      "stateMutability": "view",
      "type": "function"
    },
    {
      "inputs": [
        {
          "internalType": "uint256",
          "name": "tokenId",
          "type": "uint256"
        }
      ],
      "name": "getApproved",
      "outputs": [
        {
          "internalType": "address",
          "name": "",
          "type": "address"
        }
      ],
      "stateMutability": "view",
      "type": "function"
    },
    {
      "inputs": [
        {
          "internalType": "address",
          "name": "_authorizedAddress",
          "type": "address"
        }
      ],
      "name": "getAuthorized",
      "outputs": [
        {
          "internalType": "bool",
          "name": "",
          "type": "bool"
        }
      ],
      "stateMutability": "view",
      "type": "function"
    },
    {
      "inputs": [
        {
          "internalType": "address",
          "name": "_user",
          "type": "address"
        },
        {
          "internalType": "string",
          "name": "_seasonName",
          "type": "string"
        }
      ],
      "name": "getCardsByUserBySeason",
      "outputs": [
        {
          "components": [
            {
              "internalType": "uint256",
              "name": "tokenId",
              "type": "uint256"
            },
            {
              "internalType": "uint256",
              "name": "class",
              "type": "uint256"
            },
            {
              "internalType": "uint256",
              "name": "collection",
              "type": "uint256"
            },
            {
              "internalType": "string",
              "name": "season",
              "type": "string"
            },
            {
              "internalType": "uint256",
              "name": "completion",
              "type": "uint256"
            },
            {
              "internalType": "uint256",
              "name": "number",
              "type": "uint256"
            }
          ],
          "internalType": "struct NofAlphaV4.Card[]",
          "name": "",
          "type": "tuple[]"
        }
      ],
      "stateMutability": "view",
      "type": "function"
    },
    {
      "inputs": [
        {
          "internalType": "string",
          "name": "_name",
          "type": "string"
        }
      ],
      "name": "getSeasonAlbums",
      "outputs": [
        {
          "internalType": "uint256[]",
          "name": "",
          "type": "uint256[]"
        }
      ],
      "stateMutability": "view",
      "type": "function"
    },
    {
      "inputs": [
        {
          "internalType": "string",
          "name": "_name",
          "type": "string"
        }
      ],
      "name": "getSeasonCards",
      "outputs": [
        {
          "internalType": "uint256[]",
          "name": "",
          "type": "uint256[]"
        }
      ],
      "stateMutability": "view",
      "type": "function"
    },
    {
      "inputs": [],
      "name": "getSeasonData",
      "outputs": [
        {
          "internalType": "string[]",
          "name": "",
          "type": "string[]"
        },
        {
          "internalType": "uint256[]",
          "name": "",
          "type": "uint256[]"
        }
      ],
      "stateMutability": "view",
      "type": "function"
    },
    {
      "inputs": [
        {
          "internalType": "string",
          "name": "_seasonName",
          "type": "string"
        }
      ],
      "name": "getWinners",
      "outputs": [
        {
          "internalType": "address[]",
          "name": "",
          "type": "address[]"
        }
      ],
      "stateMutability": "view",
      "type": "function"
    },
    {
      "inputs": [
        {
          "internalType": "string",
          "name": "__baseUri",
          "type": "string"
        },
        {
          "internalType": "address",
          "name": "_daiTokenAddress",
          "type": "address"
        },
        {
          "internalType": "address",
          "name": "_balanceReceiver",
          "type": "address"
        }
      ],
      "name": "init",
      "outputs": [],
      "stateMutability": "nonpayable",
      "type": "function"
    },
    {
      "inputs": [
        {
          "internalType": "address",
          "name": "_owner",
          "type": "address"
        },
        {
          "internalType": "address",
          "name": "_operator",
          "type": "address"
        }
      ],
      "name": "isApprovedForAll",
      "outputs": [
        {
          "internalType": "bool",
          "name": "isOperator",
          "type": "bool"
        }
      ],
      "stateMutability": "view",
      "type": "function"
    },
    {
      "inputs": [],
      "name": "name",
      "outputs": [
        {
          "internalType": "string",
          "name": "",
          "type": "string"
        }
      ],
      "stateMutability": "view",
      "type": "function"
    },
    {
      "inputs": [
        {
          "internalType": "string",
          "name": "_name",
          "type": "string"
        },
        {
          "internalType": "uint256",
          "name": "_price",
          "type": "uint256"
        },
        {
          "internalType": "uint256",
          "name": "_amount",
          "type": "uint256"
        },
        {
          "internalType": "string",
          "name": "_folder",
          "type": "string"
        }
      ],
      "name": "newSeason",
      "outputs": [],
      "stateMutability": "nonpayable",
      "type": "function"
    },
    {
      "inputs": [],
      "name": "owner",
      "outputs": [
        {
          "internalType": "address",
          "name": "",
          "type": "address"
        }
      ],
      "stateMutability": "view",
      "type": "function"
    },
    {
      "inputs": [
        {
          "internalType": "uint256",
          "name": "tokenId",
          "type": "uint256"
        }
      ],
      "name": "ownerOf",
      "outputs": [
        {
          "internalType": "address",
          "name": "",
          "type": "address"
        }
      ],
      "stateMutability": "view",
      "type": "function"
    },
    {
      "inputs": [
        {
          "internalType": "uint256",
          "name": "card",
          "type": "uint256"
        },
        {
          "internalType": "uint256",
          "name": "album",
          "type": "uint256"
        }
      ],
      "name": "pasteCards",
      "outputs": [],
      "stateMutability": "nonpayable",
      "type": "function"
    },
    {
      "inputs": [],
      "name": "prizesBalance",
      "outputs": [
        {
          "internalType": "uint256",
          "name": "",
          "type": "uint256"
        }
      ],
      "stateMutability": "view",
      "type": "function"
    },
    {
      "inputs": [],
      "name": "renounceOwnership",
      "outputs": [],
      "stateMutability": "nonpayable",
      "type": "function"
    },
    {
      "inputs": [
        {
          "internalType": "address",
          "name": "from",
          "type": "address"
        },
        {
          "internalType": "address",
          "name": "to",
          "type": "address"
        },
        {
          "internalType": "uint256",
          "name": "tokenId",
          "type": "uint256"
        }
      ],
      "name": "safeTransferFrom",
      "outputs": [],
      "stateMutability": "nonpayable",
      "type": "function"
    },
    {
      "inputs": [
        {
          "internalType": "address",
          "name": "_from",
          "type": "address"
        },
        {
          "internalType": "address",
          "name": "_to",
          "type": "address"
        },
        {
          "internalType": "uint256",
          "name": "_tokenId",
          "type": "uint256"
        },
        {
          "internalType": "bytes",
          "name": "_data",
          "type": "bytes"
        }
      ],
      "name": "safeTransferFrom",
      "outputs": [],
      "stateMutability": "nonpayable",
      "type": "function"
    },
    {
      "inputs": [
        {
          "internalType": "uint256",
          "name": "",
          "type": "uint256"
        }
      ],
      "name": "seasonNames",
      "outputs": [
        {
          "internalType": "string",
          "name": "",
          "type": "string"
        }
      ],
      "stateMutability": "view",
      "type": "function"
    },
    {
      "inputs": [
        {
          "internalType": "uint256",
          "name": "",
          "type": "uint256"
        }
      ],
      "name": "seasonPrices",
      "outputs": [
        {
          "internalType": "uint256",
          "name": "",
          "type": "uint256"
        }
      ],
      "stateMutability": "view",
      "type": "function"
    },
    {
      "inputs": [
        {
          "internalType": "string",
          "name": "",
          "type": "string"
        }
      ],
      "name": "seasons",
      "outputs": [
        {
          "internalType": "uint256",
          "name": "price",
          "type": "uint256"
        },
        {
          "internalType": "string",
          "name": "folder",
          "type": "string"
        }
      ],
      "stateMutability": "view",
      "type": "function"
    },
    {
      "inputs": [
        {
          "internalType": "address",
          "name": "operator",
          "type": "address"
        },
        {
          "internalType": "bool",
          "name": "approved",
          "type": "bool"
        }
      ],
      "name": "setApprovalForAll",
      "outputs": [],
      "stateMutability": "nonpayable",
      "type": "function"
    },
    {
      "inputs": [
        {
          "internalType": "address",
          "name": "_authorizedAddress",
          "type": "address"
        },
        {
          "internalType": "bool",
          "name": "_status",
          "type": "bool"
        }
      ],
      "name": "setAuthorized",
      "outputs": [],
      "stateMutability": "nonpayable",
      "type": "function"
    },
    {
      "inputs": [
        {
          "internalType": "address",
          "name": "_newBalanceReceiver",
          "type": "address"
        }
      ],
      "name": "setBalanceReceiver",
      "outputs": [],
      "stateMutability": "nonpayable",
      "type": "function"
    },
    {
      "inputs": [
        {
          "internalType": "string",
          "name": "__baseURI",
          "type": "string"
        }
      ],
      "name": "setBaseURI",
      "outputs": [],
      "stateMutability": "nonpayable",
      "type": "function"
    },
    {
      "inputs": [
        {
          "internalType": "bytes4",
          "name": "interfaceId",
          "type": "bytes4"
        }
      ],
      "name": "supportsInterface",
      "outputs": [
        {
          "internalType": "bool",
          "name": "",
          "type": "bool"
        }
      ],
      "stateMutability": "view",
      "type": "function"
    },
    {
      "inputs": [],
      "name": "symbol",
      "outputs": [
        {
          "internalType": "string",
          "name": "",
          "type": "string"
        }
      ],
      "stateMutability": "view",
      "type": "function"
    },
    {
      "inputs": [
        {
          "internalType": "uint256",
          "name": "tokenId",
          "type": "uint256"
        }
      ],
      "name": "tokenURI",
      "outputs": [
        {
          "internalType": "string",
          "name": "",
          "type": "string"
        }
      ],
      "stateMutability": "view",
      "type": "function"
    },
    {
      "inputs": [
        {
          "internalType": "address",
          "name": "from",
          "type": "address"
        },
        {
          "internalType": "address",
          "name": "to",
          "type": "address"
        },
        {
          "internalType": "uint256",
          "name": "tokenId",
          "type": "uint256"
        }
      ],
      "name": "transferFrom",
      "outputs": [],
      "stateMutability": "nonpayable",
      "type": "function"
    },
    {
      "inputs": [
        {
          "internalType": "address",
          "name": "newOwner",
          "type": "address"
        }
      ],
      "name": "transferOwnership",
      "outputs": [],
      "stateMutability": "nonpayable",
      "type": "function"
    }
  ],
  "bytecode": "0x61016060405260146080818152600e60a052600c60c052600a60e0526008610100526006610120526005610140526200003b919060076200018d565b503480156200004957600080fd5b50604051806040016040528060098152602001684e4f4620416c70686160b81b815250604051806040016040528060048152602001634e4f464160e01b81525081600090816200009a9190620002e3565b506001620000a98282620002e3565b505050620000c6620000c0620000cc60201b60201c565b620000dd565b620003af565b6000620000d86200012f565b905090565b600780546001600160a01b038381166001600160a01b0319831681179093556040519116919082907f8be0079c531659141344cd1fd0a4f28419497f9722a3daafe3b4186f6b6457e090600090a35050565b60003033036200018757600080368080601f0160208091040260200160405190810160405280939291908181526020018383808284376000920191909152505050503601516001600160a01b031691506200018a9050565b50335b90565b600183019183908215620002155791602002820160005b83821115620001e457835183826101000a81548160ff021916908360ff1602179055509260200192600101602081600001049283019260010302620001a4565b8015620002135782816101000a81549060ff0219169055600101602081600001049283019260010302620001e4565b505b506200022392915062000227565b5090565b5b8082111562000223576000815560010162000228565b634e487b7160e01b600052604160045260246000fd5b600181811c908216806200026957607f821691505b6020821081036200028a57634e487b7160e01b600052602260045260246000fd5b50919050565b601f821115620002de57600081815260208120601f850160051c81016020861015620002b95750805b601f850160051c820191505b81811015620002da57828155600101620002c5565b5050505b505050565b81516001600160401b03811115620002ff57620002ff6200023e565b620003178162000310845462000254565b8462000290565b602080601f8311600181146200034f5760008415620003365750858301515b600019600386901b1c1916600185901b178555620002da565b600085815260208120601f198616915b8281101562000380578886015182559484019460019091019084016200035f565b50858210156200039f5787850151600019600388901b60f8161c191681555b5050505050600190811b01905550565b6144cc80620003bf6000396000f3fe608060405234801561001057600080fd5b506004361061023d5760003560e01c80638477919b1161013b578063be20e5a9116100b8578063e5db587a1161007c578063e5db587a1461054a578063e606df8714610553578063e985e9c514610566578063e9d43f7d14610579578063f2fde38b1461059957600080fd5b8063be20e5a9146104d2578063c1f3a3bb146104e5578063c731fc7b146104f8578063c87b56dd14610524578063d1811d021461053757600080fd5b80639abc8320116100ff5780639abc83201461046b578063a22cb46514610473578063b773d5c114610486578063b88d4fde1461049c578063b9181611146104af57600080fd5b80638477919b1461040c5780638da5cb5b1461041f5780638dc107681461043057806395a4c5251461044357806395d89b411461046357600080fd5b806355f804b3116101c9578063711bf9b21161018d578063711bf9b21461039d578063715018a6146103b057806371f72fa0146103b8578063787f0b05146103cb57806383c73d81146103ec57600080fd5b806355f804b31461033057806361c66c1614610343578063627b253f146103565780636352211e1461036957806370a082311461037c57600080fd5b8063095ea7b311610210578063095ea7b3146102bf57806323b872dd146102d2578063308f5987146102e557806341c2c10f1461030a57806342842e0e1461031d57600080fd5b8063015db3961461024257806301ffc9a71461025757806306fdde031461027f578063081812fc14610294575b600080fd5b61025561025036600461380d565b6105ac565b005b61026a610265366004613869565b610d35565b60405190151581526020015b60405180910390f35b610287610d46565b60405161027691906138d6565b6102a76102a23660046138e9565b610dd8565b6040516001600160a01b039091168152602001610276565b6102556102cd36600461391e565b610dff565b6102556102e0366004613948565b610f2b565b6102f86102f3366004613984565b610f36565b604051610276969594939291906139da565b610255610318366004613a14565b611033565b61025561032b366004613948565b61183f565b61025561033e366004613a36565b61185a565b6102876103513660046138e9565b611872565b6008546102a7906001600160a01b031681565b6102a76103773660046138e9565b61191e565b61038f61038a366004613a6a565b61197e565b604051908152602001610276565b6102556103ab366004613a93565b611a04565b610255611aac565b6102556103c6366004613aca565b611ac0565b6103de6103d9366004613a36565b611b1e565b604051610276929190613b27565b6103ff6103fa366004613a36565b611bce565b6040516102769190613b7b565b61025561041a366004613b8e565b611c41565b6007546001600160a01b03166102a7565b6102f861043e3660046138e9565b611e6d565b610456610451366004613c4c565b611e9d565b6040516102769190613c8d565b610287611f1a565b610287611f29565b610255610481366004613a93565b611f36565b61048e611f48565b604051610276929190613cda565b6102556104aa366004613d50565b61207c565b61026a6104bd366004613a6a565b600e6020526000908152604090205460ff1681565b6103ff6104e0366004613a36565b612203565b6102556104f3366004613a6a565b612274565b61026a610506366004613a6a565b6001600160a01b03166000908152600e602052604090205460ff1690565b6102876105323660046138e9565b61229e565b61038f6105453660046138e9565b6122a9565b61038f60115481565b6009546102a7906001600160a01b031681565b61026a610574366004613dbf565b6122ca565b61058c610587366004613df2565b61232a565b6040516102769190613e44565b6102556105a7366004613a6a565b612488565b600a816040516105bc9190613ee4565b9081526040805160209281900383019020336000908152600390910190925290205460ff16156105ff57604051635327f26b60e01b815260040160405180910390fd5b600a8160405161060f9190613ee4565b90815260405190819003602001902054821461063e5760405163ad3973c160e01b815260040160405180910390fd5b6000606461064d84604b613f16565b6106579190613f43565b9050806011600082825461066b9190613f57565b90915550506009546040516323b872dd60e01b8152336004820152306024820152604481018390526001600160a01b03909116906323b872dd906064016020604051808303816000875af11580156106c7573d6000803e3d6000fd5b505050506040513d601f19601f820116820180604052508101906106eb9190613f6a565b506009546008546001600160a01b03918216916323b872dd913391166107118588613f87565b6040516001600160e01b031960e086901b1681526001600160a01b03938416600482015292909116602483015260448201526064016020604051808303816000875af1158015610765573d6000803e3d6000fd5b505050506040513d601f19601f820116820180604052508101906107899190613f6a565b506000600a8360405161079c9190613ee4565b9081526040805160209281900383018120600201544293820193909352016040516020818303038152906040528051906020012060001c6107dd9190613f9a565b90506000600a846040516107f19190613ee4565b9081526020016040518091039020600201828154811061081357610813613fae565b90600052602060002001549050600a846040516108309190613ee4565b90815260200160405180910390206002016001600a866040516108539190613ee4565b908152604051908190036020019020600201546108709190613f87565b8154811061088057610880613fae565b9060005260206000200154600a8560405161089b9190613ee4565b908152602001604051809103902060020183815481106108bd576108bd613fae565b9060005260206000200181905550600a846040516108db9190613ee4565b90815260200160405180910390206002018054806108fb576108fb613fc4565b60019003818190600052602060002001600090559055610a3133600a866040516109259190613ee4565b9081526020016040518091039020600401604051806040016040528060018152602001602f60f81b8152508473__$1bdba46fa44f06fa49315629a2a6224c43$__636900a3ae90916040518263ffffffff1660e01b815260040161098b91815260200190565b600060405180830381865af41580156109a8573d6000803e3d6000fd5b505050506040513d6000823e601f3d908101601f191682016040526109d09190810190613fda565b60405180604001604052806005815260200164173539b7b760d91b815250604051602001610a0194939291906140f4565b60408051601f1981840301815291905260006001610a20600687613f43565b610a2a9190613f87565b8886612501565b505060005b6005811015610cef576000600a84604051610a519190613ee4565b9081526040805160209281900383018120600101544293820193909352016040516020818303038152906040528051906020012060001c610a929190613f9a565b90506000600a85604051610aa69190613ee4565b90815260200160405180910390206001018281548110610ac857610ac8613fae565b90600052602060002001549050600a85604051610ae59190613ee4565b90815260200160405180910390206001016001600a87604051610b089190613ee4565b90815260405190819003602001902060010154610b259190613f87565b81548110610b3557610b35613fae565b9060005260206000200154600a86604051610b509190613ee4565b90815260200160405180910390206001018381548110610b7257610b72613fae565b9060005260206000200181905550600a85604051610b909190613ee4565b9081526020016040518091039020600101805480610bb057610bb0613fc4565b60019003818190600052602060002001600090559055610cda33600a87604051610bda9190613ee4565b9081526020016040518091039020600401604051806040016040528060018152602001602f60f81b8152508473__$1bdba46fa44f06fa49315629a2a6224c43$__636900a3ae90916040518263ffffffff1660e01b8152600401610c4091815260200190565b600060405180830381865af4158015610c5d573d6000803e3d6000fd5b505050506040513d6000823e601f3d908101601f19168201604052610c859190810190613fda565b60405180604001604052806005815260200164173539b7b760d91b815250604051602001610cb694939291906140f4565b60408051601f198184030181529190526001610cd3600686613f43565b8986612501565b50508080610ce790614141565b915050610a36565b5081604051610cfe9190613ee4565b6040519081900381209033907f55d44f7f091f0389b4dcb1b6ae002ed20fe8229c546e6aaf1ccac2646cdf514c90600090a3505050565b6000610d408261260e565b92915050565b606060008054610d5590614047565b80601f0160208091040260200160405190810160405280929190818152602001828054610d8190614047565b8015610dce5780601f10610da357610100808354040283529160200191610dce565b820191906000526020600020905b815481529060010190602001808311610db157829003601f168201915b5050505050905090565b6000610de382612633565b506000908152600460205260409020546001600160a01b031690565b6000610e0a8261191e565b9050806001600160a01b0316836001600160a01b031603610e7c5760405162461bcd60e51b815260206004820152602160248201527f4552433732313a20617070726f76616c20746f2063757272656e74206f776e656044820152603960f91b60648201526084015b60405180910390fd5b806001600160a01b0316610e8e612692565b6001600160a01b03161480610eaa5750610eaa81610574612692565b610f1c5760405162461bcd60e51b815260206004820152603d60248201527f4552433732313a20617070726f76652063616c6c6572206973206e6f7420746f60448201527f6b656e206f776e6572206f7220617070726f76656420666f7220616c6c0000006064820152608401610e73565b610f2683836126a1565b505050565b610f2683838361183f565b600d6020908152600084815260409020835180850183018051928152908301928501929092209152805482908110610f6d57600080fd5b90600052602060002090600602016000925092505050806000015490806001015490806002015490806003018054610fa490614047565b80601f0160208091040260200160405190810160405280929190818152602001828054610fd090614047565b801561101d5780601f10610ff25761010080835404028352916020019161101d565b820191906000526020600020905b81548152906001019060200180831161100057829003601f168201915b5050505050908060040154908060050154905086565b3361103d8361191e565b6001600160a01b031614611064576040516318fc232560e01b815260040160405180910390fd5b3361106e8261191e565b6001600160a01b0316146110955760405163364be83560e01b815260040160405180910390fd5b6000818152600b6020526040902060010154156110c55760405163d0286c2360e01b815260040160405180910390fd5b6000828152600b6020526040812060030180546110e190614047565b80601f016020809104026020016040519081016040528092919081815260200182805461110d90614047565b801561115a5780601f1061112f5761010080835404028352916020019161115a565b820191906000526020600020905b81548152906001019060200180831161113d57829003601f168201915b5050505050905060005b336000908152600d6020526040908190209051611182908490613ee4565b9081526040519081900360200190205460ff821610156113c8576000848152600b6020908152604080832060050154338452600d9092529182902091519091906111cd908590613ee4565b90815260200160405180910390208260ff16815481106111ef576111ef613fae565b906000526020600020906006020160050154036113b657336000908152600d6020526040908190209051611224908490613ee4565b90815260200160405180910390206001600d6000336001600160a01b03166001600160a01b03168152602001908152602001600020846040516112679190613ee4565b908152604051908190036020019020546112819190613f87565b8154811061129157611291613fae565b60009182526020808320338452600d909152604092839020925160069092020191906112be908590613ee4565b90815260200160405180910390208260ff16815481106112e0576112e0613fae565b90600052602060002090600602016000820154816000015560018201548160010155600282015481600201556003820181600301908161132091906141a8565b5060048281015490820155600591820154910155336000908152600d6020526040908190209051611352908490613ee4565b908152602001604051809103902080548061136f5761136f613fc4565b6000828152602081206006600019909301928302018181556001810182905560028101829055906113a360038301826136f4565b5060006004820181905560059091015590555b806113c081614284565b915050611164565b506113d28361270f565b6000828152600b602052604081206004018054916113ef83614141565b9091555050336000908152600d60209081526040808320868452600b9092529182902091519091611425916003909101906142a3565b908152602001604051809103902060008154811061144557611445613fae565b60009182526020822060046006909202010180549161146383614141565b90915550506000828152600b6020526040902060040154600503610f26576000828152600b60205260408120600301805461149d90614047565b80601f01602080910402602001604051908101604052809291908181526020018280546114c990614047565b80156115165780601f106114eb57610100808354040283529160200191611516565b820191906000526020600020905b8154815290600101906020018083116114f957829003601f168201915b505050505090506007600c8260405161152f9190613ee4565b9081526040519081900360200190205410156116c857600c816040516115559190613ee4565b908152604051908190036020908101822080546001818101835560009283529282200180546001600160a01b0319163317905591600a91601491600c9061159d908790613ee4565b908152604051908190036020019020546115b79190613f87565b600781106115c7576115c7613fae565b602091828204019190069054906101000a900460ff1660ff16600a846040516115f09190613ee4565b9081526040519081900360200190205461160a9190613f16565b6116149190613f43565b90506011548111156116395760405163090d760160e01b815260040160405180910390fd5b806011600082825461164b9190613f87565b909155505060095460405163a9059cbb60e01b8152336004820152602481018390526001600160a01b039091169063a9059cbb906044016020604051808303816000875af11580156116a1573d6000803e3d6000fd5b505050506040513d601f19601f820116820180604052508101906116c59190613f6a565b50505b6117db83600a836040516116dc9190613ee4565b908152604080519182900360209081018320838301835260018452602f60f81b848301526000898152600b9092529082902060050154915163348051d760e11b81526004918201939273__$1bdba46fa44f06fa49315629a2a6224c43$__92636900a3ae9261175092910190815260200190565b600060405180830381865af415801561176d573d6000803e3d6000fd5b505050506040513d6000823e601f3d908101601f191682016040526117959190810190613fda565b6040518060400160405280600681526020016523173539b7b760d11b8152506040516020016117c794939291906140f4565b604051602081830303815290604052612718565b600c816040516117eb9190613ee4565b9081526040519081900360200181205490611807908390613ee4565b6040519081900381209033907f953ec8b8176b9eb94e1561816a70bc231210aee5f1aaa59fdbad7915f9ad3c9690600090a450505050565b610f268383836040518060200160405280600081525061207c565b6118626127e3565b600f61186e82826142af565b5050565b6010818154811061188257600080fd5b90600052602060002001600091509050805461189d90614047565b80601f01602080910402602001604051908101604052809291908181526020018280546118c990614047565b80156119165780601f106118eb57610100808354040283529160200191611916565b820191906000526020600020905b8154815290600101906020018083116118f957829003601f168201915b505050505081565b6000818152600260205260408120546001600160a01b031680610d405760405162461bcd60e51b8152602060048201526018602482015277115490cdcc8c4e881a5b9d985b1a59081d1bdad95b88125160421b6044820152606401610e73565b60006001600160a01b0382166119e85760405162461bcd60e51b815260206004820152602960248201527f4552433732313a2061646472657373207a65726f206973206e6f7420612076616044820152683634b21037bbb732b960b91b6064820152608401610e73565b506001600160a01b031660009081526003602052604090205490565b611a0c6127e3565b6001600160a01b0382166000908152600e602052604090205481151560ff909116151503611a4d5760405163295d231d60e11b815260040160405180910390fd5b6001600160a01b0382166000818152600e6020908152604091829020805460ff191685151590811790915591519182527f4c0079b9bcd37cd5d29a13938effd97c881798cbc6bd52a3026a29d94b27d1bf910160405180910390a25050565b611ab46127e3565b611abe600061285c565b565b611ac86127e3565b600f611ad484826142af565b50600980546001600160a01b039384166001600160a01b0319918216179091556008805492909316911617905550336000908152600e60205260409020805460ff19166001179055565b8051602081830181018051600a8252928201919093012091528054600482018054919291611b4b90614047565b80601f0160208091040260200160405190810160405280929190818152602001828054611b7790614047565b8015611bc45780601f10611b9957610100808354040283529160200191611bc4565b820191906000526020600020905b815481529060010190602001808311611ba757829003601f168201915b5050505050905082565b6060600a82604051611be09190613ee4565b9081526040805191829003602090810183206001018054808302850183019093528284529190830182828015611c3557602002820191906000526020600020905b815481526020019060010190808311611c21575b50505050509050919050565b600a84604051611c519190613ee4565b9081526040519081900360200190205415611c7f5760405163209b4beb60e01b815260040160405180910390fd5b336000908152600e602052604090205460ff16611caf57604051630d87421760e11b815260040160405180910390fd5b655af3107a4000831015611cd65760405163b04a217360e01b815260040160405180910390fd5b611ce1600683613f9a565b15611cff576040516307fb5d6d60e01b815260040160405180910390fd5b82600a85604051611d109190613ee4565b908152604051908190036020018120919091558190600a90611d33908790613ee4565b90815260200160405180910390206004019081611d5091906142af565b50601080546001810182556000919091527f1b6847dc741a1b0cd08d278845f9d819d87b734759afb55fe2de5cb82a9ae67201611d8d85826142af565b5060138054600181810183556000929092527f66de8ffda797e3de9c05e8fc57b3bf0ec28a930d40b0d285d93c06501cf6a090018490555b828111611e6657611dd7600682613f9a565b600003611e1a57600a85604051611dee9190613ee4565b908152604051602091819003820190206002018054600181018255600091825291902001819055611e54565b600a85604051611e2a9190613ee4565b90815260405160209181900382019020600190810180549182018155600090815291909120018190555b80611e5e81614141565b915050611dc5565b5050505050565b600b60205260009081526040902080546001820154600283015460038401805493949293919291610fa490614047565b6060600c8383604051611eb1929190614366565b9081526040805191829003602090810183208054808302850183019093528284529190830182828015611f0d57602002820191906000526020600020905b81546001600160a01b03168152600190910190602001808311611eef575b5050505050905092915050565b606060018054610d5590614047565b600f805461189d90614047565b61186e611f41612692565b83836128ae565b6060806010601381805480602002602001604051908101604052809291908181526020016000905b8282101561201c578382906000526020600020018054611f8f90614047565b80601f0160208091040260200160405190810160405280929190818152602001828054611fbb90614047565b80156120085780601f10611fdd57610100808354040283529160200191612008565b820191906000526020600020905b815481529060010190602001808311611feb57829003601f168201915b505050505081526020019060010190611f70565b5050505091508080548060200260200160405190810160405280929190818152602001828054801561206d57602002820191906000526020600020905b815481526020019060010190808311612059575b50505050509050915091509091565b6000828152600b60205260408120600301805461209890614047565b80601f01602080910402602001604051908101604052809291908181526020018280546120c490614047565b80156121115780601f106120e657610100808354040283529160200191612111565b820191906000526020600020905b8154815290600101906020018083116120f457829003601f168201915b5050505050905061212181612203565b511561214057604051631c5836a160e21b815260040160405180910390fd5b6000838152600b6020526040902060019081015490036121ba57600a8160405161216a9190613ee4565b90815260408051602092819003830190206001600160a01b0387166000908152600390910190925290205460ff166121b557604051636341b66f60e11b815260040160405180910390fd5b6121ec565b6000838152600b60205260409020600401546005146121ec5760405163f959be5b60e01b815260040160405180910390fd5b6121f785858561297c565b611e6685858585612d56565b6060600a826040516122159190613ee4565b9081526040805191829003602090810183206002018054808302850183019093528284529190830182828015611c355760200282019190600052602060002090815481526020019060010190808311611c215750505050509050919050565b61227c6127e3565b600880546001600160a01b0319166001600160a01b0392909216919091179055565b6060610d4082612ddb565b601381815481106122b957600080fd5b600091825260209091200154905081565b60007358807bad0b376efc12f5ad86aac70e78ed67dead196001600160a01b038316016122f957506001610d40565b6001600160a01b0380841660009081526005602090815260408083209386168352929052205460ff165b9392505050565b6001600160a01b0383166000908152600d6020526040908190209051606091906123579085908590614366565b9081526020016040518091039020805480602002602001604051908101604052809291908181526020016000905b8282101561247b57838290600052602060002090600602016040518060c00160405290816000820154815260200160018201548152602001600282015481526020016003820180546123d690614047565b80601f016020809104026020016040519081016040528092919081815260200182805461240290614047565b801561244f5780601f106124245761010080835404028352916020019161244f565b820191906000526020600020905b81548152906001019060200180831161243257829003601f168201915b505050505081526020016004820154815260200160058201548152505081526020019060010190612385565b5050505090509392505050565b6124906127e3565b6001600160a01b0381166124f55760405162461bcd60e51b815260206004820152602660248201527f4f776e61626c653a206e6577206f776e657220697320746865207a65726f206160448201526564647265737360d01b6064820152608401610e73565b6124fe8161285c565b50565b601280549060019060006125158385613f57565b90915550506000818152600b60205260409020818155600181018690556002810185905560030161254684826142af565b506000818152600b602090815260408083206005018590556001600160a01b038a168352600d909152908190209051612580908590613ee4565b90815260408051602092819003830190206000848152600b8452918220815460018082018455928452939092208254600690940201928355808201549083015560028082015490830155906003808201906125dd908401826141a8565b50600482810154908201556005918201549101556125fb8782612ede565b6126058187612718565b50505050505050565b60006001600160e01b03198216632483248360e11b1480610d405750610d4082613077565b6000818152600260205260409020546001600160a01b03166124fe5760405162461bcd60e51b8152602060048201526018602482015277115490cdcc8c4e881a5b9d985b1a59081d1bdad95b88125160421b6044820152606401610e73565b600061269c6130c7565b905090565b600081815260046020526040902080546001600160a01b0319166001600160a01b03841690811790915581906126d68261191e565b6001600160a01b03167f8c5be1e5ebec7d5bd14f71427d1e84f3dd0314c0f7b2291e5b200ac8c7c3b92560405160405180910390a45050565b6124fe81613123565b6000828152600260205260409020546001600160a01b03166127935760405162461bcd60e51b815260206004820152602e60248201527f45524337323155524953746f726167653a2055524920736574206f66206e6f6e60448201526d32bc34b9ba32b73a103a37b5b2b760911b6064820152608401610e73565b60008281526006602052604090206127ab82826142af565b506040518281527ff8e1a15aba9398e019f0b49df1a4fde98ee17ae345cb5f6b5e2c27f5033e8ce79060200160405180910390a15050565b6127eb612692565b6001600160a01b03166128066007546001600160a01b031690565b6001600160a01b031614611abe5760405162461bcd60e51b815260206004820181905260248201527f4f776e61626c653a2063616c6c6572206973206e6f7420746865206f776e65726044820152606401610e73565b600780546001600160a01b038381166001600160a01b0319831681179093556040519116919082907f8be0079c531659141344cd1fd0a4f28419497f9722a3daafe3b4186f6b6457e090600090a35050565b816001600160a01b0316836001600160a01b03160361290f5760405162461bcd60e51b815260206004820152601960248201527f4552433732313a20617070726f766520746f2063616c6c6572000000000000006044820152606401610e73565b6001600160a01b03838116600081815260056020908152604080832094871680845294825291829020805460ff191686151590811790915591519182527f17307eab39ab6107e8899845ad3d59bd9653f200f220920489ca2b5937696c31910160405180910390a3505050565b6000818152600b60205260408120600301805461299890614047565b80601f01602080910402602001604051908101604052809291908181526020018280546129c490614047565b8015612a115780601f106129e657610100808354040283529160200191612a11565b820191906000526020600020905b8154815290600101906020018083116129f457829003601f168201915b5050505050905060005b6001600160a01b0385166000908152600d6020526040908190209051612a42908490613ee4565b9081526040519081900360200190205460ff82161015612cb7576000838152600b60209081526040808320600501546001600160a01b0389168452600d909252918290209151909190612a96908590613ee4565b90815260200160405180910390208260ff1681548110612ab857612ab8613fae565b90600052602060002090600602016005015403612ca5576001600160a01b0385166000908152600d6020526040908190209051612af6908490613ee4565b90815260200160405180910390206001600d6000886001600160a01b03166001600160a01b0316815260200190815260200160002084604051612b399190613ee4565b90815260405190819003602001902054612b539190613f87565b81548110612b6357612b63613fae565b9060005260206000209060060201600d6000876001600160a01b03166001600160a01b0316815260200190815260200160002083604051612ba49190613ee4565b90815260200160405180910390208260ff1681548110612bc657612bc6613fae565b906000526020600020906006020160008201548160000155600182015481600101556002820154816002015560038201816003019081612c0691906141a8565b50600482810154908201556005918201549101556001600160a01b0385166000908152600d6020526040908190209051612c41908490613ee4565b9081526020016040518091039020805480612c5e57612c5e613fc4565b600082815260208120600660001990930192830201818155600181018290556002810182905590612c9260038301826136f4565b5060006004820181905560059091015590555b80612caf81614284565b915050612a1b565b506001600160a01b0383166000908152600d6020526040908190209051612cdf908390613ee4565b90815260408051602092819003830190206000858152600b845291822081546001808201845592845293909220825460069094020192835580820154908301556002808201549083015590600380820190612d3c908401826141a8565b506004828101549082015560059182015491015550505050565b612d67612d61612692565b83613163565b612dc95760405162461bcd60e51b815260206004820152602d60248201527f4552433732313a2063616c6c6572206973206e6f7420746f6b656e206f776e6560448201526c1c881bdc88185c1c1c9bdd9959609a1b6064820152608401610e73565b612dd5848484846131c1565b50505050565b6060612de682612633565b60008281526006602052604081208054612dff90614047565b80601f0160208091040260200160405190810160405280929190818152602001828054612e2b90614047565b8015612e785780601f10612e4d57610100808354040283529160200191612e78565b820191906000526020600020905b815481529060010190602001808311612e5b57829003601f168201915b505050505090506000612e896131f4565b90508051600003612e9b575092915050565b815115612ecd578082604051602001612eb5929190614376565b60405160208183030381529060405292505050919050565b612ed684613203565b949350505050565b6001600160a01b038216612f345760405162461bcd60e51b815260206004820181905260248201527f4552433732313a206d696e7420746f20746865207a65726f20616464726573736044820152606401610e73565b6000818152600260205260409020546001600160a01b031615612f995760405162461bcd60e51b815260206004820152601c60248201527f4552433732313a20746f6b656e20616c7265616479206d696e746564000000006044820152606401610e73565b612fa7600083836001613269565b6000818152600260205260409020546001600160a01b03161561300c5760405162461bcd60e51b815260206004820152601c60248201527f4552433732313a20746f6b656e20616c7265616479206d696e746564000000006044820152606401610e73565b6001600160a01b038216600081815260036020908152604080832080546001019055848352600290915280822080546001600160a01b0319168417905551839291907fddf252ad1be2c89b69c2b068fc378daa952ba7f163c4a11628f55a4df523b3ef908290a45050565b60006001600160e01b031982166380ac58cd60e01b14806130a857506001600160e01b03198216635b5e139f60e01b145b80610d4057506301ffc9a760e01b6001600160e01b0319831614610d40565b600030330361311d57600080368080601f0160208091040260200160405190810160405280939291908181526020018383808284376000920191909152505050503601516001600160a01b031691506131209050565b50335b90565b61312c8161326e565b6000818152600660205260409020805461314590614047565b1590506124fe5760008181526006602052604081206124fe916136f4565b60008061316f8361191e565b9050806001600160a01b0316846001600160a01b03161480613196575061319681856122ca565b80612ed65750836001600160a01b03166131af84610dd8565b6001600160a01b031614949350505050565b6131cc848484613311565b6131d884848484613482565b612dd55760405162461bcd60e51b8152600401610e73906143a5565b6060600f8054610d5590614047565b606061320e82612633565b60006132186131f4565b905060008151116132385760405180602001604052806000815250612323565b806132428461358a565b604051602001613253929190614376565b6040516020818303038152906040529392505050565b612dd5565b60006132798261191e565b9050613289816000846001613269565b6132928261191e565b600083815260046020908152604080832080546001600160a01b03199081169091556001600160a01b0385168085526003845282852080546000190190558785526002909352818420805490911690555192935084927fddf252ad1be2c89b69c2b068fc378daa952ba7f163c4a11628f55a4df523b3ef908390a45050565b826001600160a01b03166133248261191e565b6001600160a01b03161461334a5760405162461bcd60e51b8152600401610e73906143f7565b6001600160a01b0382166133ac5760405162461bcd60e51b8152602060048201526024808201527f4552433732313a207472616e7366657220746f20746865207a65726f206164646044820152637265737360e01b6064820152608401610e73565b6133b98383836001613269565b826001600160a01b03166133cc8261191e565b6001600160a01b0316146133f25760405162461bcd60e51b8152600401610e73906143f7565b600081815260046020908152604080832080546001600160a01b03199081169091556001600160a01b0387811680865260038552838620805460001901905590871680865283862080546001019055868652600290945282852080549092168417909155905184937fddf252ad1be2c89b69c2b068fc378daa952ba7f163c4a11628f55a4df523b3ef91a4505050565b60006001600160a01b0384163b1561357f57836001600160a01b031663150b7a026134ab612692565b8786866040518563ffffffff1660e01b81526004016134cd949392919061443c565b6020604051808303816000875af1925050508015613508575060408051601f3d908101601f1916820190925261350591810190614479565b60015b613565573d808015613536576040519150601f19603f3d011682016040523d82523d6000602084013e61353b565b606091505b50805160000361355d5760405162461bcd60e51b8152600401610e73906143a5565b805181602001fd5b6001600160e01b031916630a85bd0160e11b149050612ed6565b506001949350505050565b606060006135978361361c565b60010190506000816001600160401b038111156135b6576135b6613742565b6040519080825280601f01601f1916602001820160405280156135e0576020820181803683370190505b5090508181016020015b600019016f181899199a1a9b1b9c1cb0b131b232b360811b600a86061a8153600a85049450846135ea57509392505050565b60008072184f03e93ff9f4daa797ed6e38ed64bf6a1f0160401b831061365b5772184f03e93ff9f4daa797ed6e38ed64bf6a1f0160401b830492506040015b6d04ee2d6d415b85acef81000000008310613687576d04ee2d6d415b85acef8100000000830492506020015b662386f26fc1000083106136a557662386f26fc10000830492506010015b6305f5e10083106136bd576305f5e100830492506008015b61271083106136d157612710830492506004015b606483106136e3576064830492506002015b600a8310610d405760010192915050565b50805461370090614047565b6000825580601f10613710575050565b601f0160209004906000526020600020908101906124fe91905b8082111561373e576000815560010161372a565b5090565b634e487b7160e01b600052604160045260246000fd5b604051601f8201601f191681016001600160401b038111828210171561378057613780613742565b604052919050565b60006001600160401b038211156137a1576137a1613742565b50601f01601f191660200190565b60006137c26137bd84613788565b613758565b90508281528383830111156137d657600080fd5b828260208301376000602084830101529392505050565b600082601f8301126137fe57600080fd5b612323838335602085016137af565b6000806040838503121561382057600080fd5b8235915060208301356001600160401b0381111561383d57600080fd5b613849858286016137ed565b9150509250929050565b6001600160e01b0319811681146124fe57600080fd5b60006020828403121561387b57600080fd5b813561232381613853565b60005b838110156138a1578181015183820152602001613889565b50506000910152565b600081518084526138c2816020860160208601613886565b601f01601f19169290920160200192915050565b60208152600061232360208301846138aa565b6000602082840312156138fb57600080fd5b5035919050565b80356001600160a01b038116811461391957600080fd5b919050565b6000806040838503121561393157600080fd5b61393a83613902565b946020939093013593505050565b60008060006060848603121561395d57600080fd5b61396684613902565b925061397460208501613902565b9150604084013590509250925092565b60008060006060848603121561399957600080fd5b6139a284613902565b925060208401356001600160401b038111156139bd57600080fd5b6139c9868287016137ed565b925050604084013590509250925092565b86815285602082015284604082015260c0606082015260006139ff60c08301866138aa565b60808301949094525060a00152949350505050565b60008060408385031215613a2757600080fd5b50508035926020909101359150565b600060208284031215613a4857600080fd5b81356001600160401b03811115613a5e57600080fd5b612ed6848285016137ed565b600060208284031215613a7c57600080fd5b61232382613902565b80151581146124fe57600080fd5b60008060408385031215613aa657600080fd5b613aaf83613902565b91506020830135613abf81613a85565b809150509250929050565b600080600060608486031215613adf57600080fd5b83356001600160401b03811115613af557600080fd5b613b01868287016137ed565b935050613b1060208501613902565b9150613b1e60408501613902565b90509250925092565b828152604060208201526000612ed660408301846138aa565b600081518084526020808501945080840160005b83811015613b7057815187529582019590820190600101613b54565b509495945050505050565b6020815260006123236020830184613b40565b60008060008060808587031215613ba457600080fd5b84356001600160401b0380821115613bbb57600080fd5b613bc7888389016137ed565b955060208701359450604087013593506060870135915080821115613beb57600080fd5b50613bf8878288016137ed565b91505092959194509250565b60008083601f840112613c1657600080fd5b5081356001600160401b03811115613c2d57600080fd5b602083019150836020828501011115613c4557600080fd5b9250929050565b60008060208385031215613c5f57600080fd5b82356001600160401b03811115613c7557600080fd5b613c8185828601613c04565b90969095509350505050565b6020808252825182820181905260009190848201906040850190845b81811015613cce5783516001600160a01b031683529284019291840191600101613ca9565b50909695505050505050565b6000604082016040835280855180835260608501915060608160051b8601019250602080880160005b83811015613d3157605f19888703018552613d1f8683516138aa565b95509382019390820190600101613d03565b505085840381870152505050613d478185613b40565b95945050505050565b60008060008060808587031215613d6657600080fd5b613d6f85613902565b9350613d7d60208601613902565b92506040850135915060608501356001600160401b03811115613d9f57600080fd5b8501601f81018713613db057600080fd5b613bf8878235602084016137af565b60008060408385031215613dd257600080fd5b613ddb83613902565b9150613de960208401613902565b90509250929050565b600080600060408486031215613e0757600080fd5b613e1084613902565b925060208401356001600160401b03811115613e2b57600080fd5b613e3786828701613c04565b9497909650939450505050565b60006020808301818452808551808352604092508286019150828160051b87010184880160005b83811015613ed657603f19898403018552815160c081518552888201518986015287820151888601526060808301518282880152613eab838801826138aa565b6080858101519089015260a09485015194909701939093525050509386019390860190600101613e6b565b509098975050505050505050565b60008251613ef6818460208701613886565b9190910192915050565b634e487b7160e01b600052601160045260246000fd5b8082028115828204841417610d4057610d40613f00565b634e487b7160e01b600052601260045260246000fd5b600082613f5257613f52613f2d565b500490565b80820180821115610d4057610d40613f00565b600060208284031215613f7c57600080fd5b815161232381613a85565b81810381811115610d4057610d40613f00565b600082613fa957613fa9613f2d565b500690565b634e487b7160e01b600052603260045260246000fd5b634e487b7160e01b600052603160045260246000fd5b600060208284031215613fec57600080fd5b81516001600160401b0381111561400257600080fd5b8201601f8101841361401357600080fd5b80516140216137bd82613788565b81815285602083850101111561403657600080fd5b613d47826020830160208601613886565b600181811c9082168061405b57607f821691505b60208210810361407b57634e487b7160e01b600052602260045260246000fd5b50919050565b6000815461408e81614047565b600182811680156140a657600181146140bb576140ea565b60ff19841687528215158302870194506140ea565b8560005260208060002060005b858110156140e15781548a8201529084019082016140c8565b50505082870194505b5050505092915050565b60006141008287614081565b8551614110818360208a01613886565b8551910190614123818360208901613886565b8451910190614136818360208801613886565b019695505050505050565b60006001820161415357614153613f00565b5060010190565b601f821115610f2657600081815260208120601f850160051c810160208610156141815750805b601f850160051c820191505b818110156141a05782815560010161418d565b505050505050565b8181036141b3575050565b6141bd8254614047565b6001600160401b038111156141d4576141d4613742565b6141e8816141e28454614047565b8461415a565b6000601f82116001811461421c57600083156142045750848201545b600019600385901b1c1916600184901b178455611e66565b600085815260209020601f19841690600086815260209020845b838110156142565782860154825560019586019590910190602001614236565b50858310156142745781850154600019600388901b60f8161c191681555b5050505050600190811b01905550565b600060ff821660ff810361429a5761429a613f00565b60010192915050565b60006123238284614081565b81516001600160401b038111156142c8576142c8613742565b6142d6816141e28454614047565b602080601f83116001811461430b57600084156142f35750858301515b600019600386901b1c1916600185901b1785556141a0565b600085815260208120601f198616915b8281101561433a5788860151825594840194600190910190840161431b565b508582101561427457939096015160001960f8600387901b161c19169092555050600190811b01905550565b8183823760009101908152919050565b60008351614388818460208801613886565b83519083019061439c818360208801613886565b01949350505050565b60208082526032908201527f4552433732313a207472616e7366657220746f206e6f6e20455243373231526560408201527131b2b4bb32b91034b6b83632b6b2b73a32b960711b606082015260800190565b60208082526025908201527f4552433732313a207472616e736665722066726f6d20696e636f72726563742060408201526437bbb732b960d91b606082015260800190565b6001600160a01b038581168252841660208201526040810183905260806060820181905260009061446f908301846138aa565b9695505050505050565b60006020828403121561448b57600080fd5b81516123238161385356fea264697066735822122080f0c94d0240e1c6b13b7cd5b0ef5d9ffe5eec711478947d79b63db89cf4012964736f6c63430008140033",
  "linkReferences": {
    "contracts/libs/LibStringUtils.sol": {
      "LibStringUtils": [
        {
          "length": 20,
          "start": 3346
        },
        {
          "length": 20,
          "start": 4039
        },
        {
          "length": 20,
          "start": 6886
        }
      ]
    }
  },
  "deployedLinkReferences": {
    "contracts/libs/LibStringUtils.sol": {
      "LibStringUtils": [
        {
          "length": 20,
          "start": 2387
        },
        {
          "length": 20,
          "start": 3080
        },
        {
          "length": 20,
          "start": 5927
        }
      ]
    }
  }
}